{
  "_format": "hh-sol-artifact-1",
  "contractName": "BTCBetting",
  "sourceName": "contracts/BettingNew.sol",
  "abi": [
    {
      "inputs": [],
      "stateMutability": "nonpayable",
      "type": "constructor"
    },
    {
      "inputs": [],
      "name": "EmptySource",
      "type": "error"
    },
    {
      "inputs": [],
      "name": "NoInlineSecrets",
      "type": "error"
    },
    {
      "inputs": [],
      "name": "OnlyRouterCanFulfill",
      "type": "error"
    },
    {
      "anonymous": false,
      "inputs": [
        {
          "indexed": true,
          "internalType": "address",
          "name": "user",
          "type": "address"
        },
        {
          "indexed": false,
          "internalType": "uint8",
          "name": "position",
          "type": "uint8"
        },
        {
          "indexed": false,
          "internalType": "uint256",
          "name": "amount",
          "type": "uint256"
        }
      ],
      "name": "BetPlaced",
      "type": "event"
    },
    {
      "anonymous": false,
      "inputs": [
        {
          "indexed": true,
          "internalType": "address",
          "name": "user",
          "type": "address"
        },
        {
          "indexed": false,
          "internalType": "bool",
          "name": "won",
          "type": "bool"
        },
        {
          "indexed": false,
          "internalType": "int256",
          "name": "startPrice",
          "type": "int256"
        },
        {
          "indexed": false,
          "internalType": "int256",
          "name": "endPrice",
          "type": "int256"
        }
      ],
      "name": "BetSettled",
      "type": "event"
    },
    {
      "anonymous": false,
      "inputs": [
        {
          "indexed": true,
          "internalType": "address",
          "name": "from",
          "type": "address"
        },
        {
          "indexed": true,
          "internalType": "address",
          "name": "to",
          "type": "address"
        }
      ],
      "name": "OwnershipTransferRequested",
      "type": "event"
    },
    {
      "anonymous": false,
      "inputs": [
        {
          "indexed": true,
          "internalType": "address",
          "name": "from",
          "type": "address"
        },
        {
          "indexed": true,
          "internalType": "address",
          "name": "to",
          "type": "address"
        }
      ],
      "name": "OwnershipTransferred",
      "type": "event"
    },
    {
      "anonymous": false,
      "inputs": [
        {
          "indexed": true,
          "internalType": "address",
          "name": "user",
          "type": "address"
        },
        {
          "indexed": false,
          "internalType": "enum BTCBetting.PriceType",
          "name": "priceType",
          "type": "uint8"
        },
        {
          "indexed": false,
          "internalType": "int256",
          "name": "price",
          "type": "int256"
        }
      ],
      "name": "PriceFulfilled",
      "type": "event"
    },
    {
      "anonymous": false,
      "inputs": [
        {
          "indexed": true,
          "internalType": "address",
          "name": "user",
          "type": "address"
        },
        {
          "indexed": false,
          "internalType": "enum BTCBetting.PriceType",
          "name": "priceType",
          "type": "uint8"
        },
        {
          "indexed": false,
          "internalType": "bytes32",
          "name": "requestId",
          "type": "bytes32"
        }
      ],
      "name": "PriceRequested",
      "type": "event"
    },
    {
      "anonymous": false,
      "inputs": [
        {
          "indexed": true,
          "internalType": "bytes32",
          "name": "id",
          "type": "bytes32"
        }
      ],
      "name": "RequestFulfilled",
      "type": "event"
    },
    {
      "anonymous": false,
      "inputs": [
        {
          "indexed": true,
          "internalType": "bytes32",
          "name": "id",
          "type": "bytes32"
        }
      ],
      "name": "RequestSent",
      "type": "event"
    },
    {
      "inputs": [],
      "name": "acceptOwnership",
      "outputs": [],
      "stateMutability": "nonpayable",
      "type": "function"
    },
    {
      "inputs": [
        {
          "internalType": "uint256",
          "name": "",
          "type": "uint256"
        }
      ],
      "name": "activeBettors",
      "outputs": [
        {
          "internalType": "address",
          "name": "",
          "type": "address"
        }
      ],
      "stateMutability": "view",
      "type": "function"
    },
    {
      "inputs": [
        {
          "internalType": "address",
          "name": "",
          "type": "address"
        }
      ],
      "name": "bets",
      "outputs": [
        {
          "internalType": "uint256",
          "name": "amount",
          "type": "uint256"
        },
        {
          "internalType": "uint256",
          "name": "startTime",
          "type": "uint256"
        },
        {
          "internalType": "int256",
          "name": "startPrice",
          "type": "int256"
        },
        {
          "internalType": "int256",
          "name": "endPrice",
          "type": "int256"
        },
        {
          "internalType": "uint8",
          "name": "position",
          "type": "uint8"
        },
        {
          "internalType": "bool",
          "name": "settled",
          "type": "bool"
        }
      ],
      "stateMutability": "view",
      "type": "function"
    },
    {
      "inputs": [],
      "name": "carbonCreditContract",
      "outputs": [
        {
          "internalType": "address",
          "name": "",
          "type": "address"
        }
      ],
      "stateMutability": "view",
      "type": "function"
    },
    {
      "inputs": [
        {
          "internalType": "bytes",
          "name": "",
          "type": "bytes"
        }
      ],
      "name": "checkUpkeep",
      "outputs": [
        {
          "internalType": "bool",
          "name": "upkeepNeeded",
          "type": "bool"
        },
        {
          "internalType": "bytes",
          "name": "performData",
          "type": "bytes"
        }
      ],
      "stateMutability": "view",
      "type": "function"
    },
    {
      "inputs": [],
      "name": "fundPool",
      "outputs": [],
      "stateMutability": "payable",
      "type": "function"
    },
    {
      "inputs": [],
      "name": "getActiveBettors",
      "outputs": [
        {
          "internalType": "address[]",
          "name": "",
          "type": "address[]"
        }
      ],
      "stateMutability": "view",
      "type": "function"
    },
    {
      "inputs": [
        {
          "internalType": "address",
          "name": "user",
          "type": "address"
        }
      ],
      "name": "getBet",
      "outputs": [
        {
          "components": [
            {
              "internalType": "uint256",
              "name": "amount",
              "type": "uint256"
            },
            {
              "internalType": "uint256",
              "name": "startTime",
              "type": "uint256"
            },
            {
              "internalType": "int256",
              "name": "startPrice",
              "type": "int256"
            },
            {
              "internalType": "int256",
              "name": "endPrice",
              "type": "int256"
            },
            {
              "internalType": "uint8",
              "name": "position",
              "type": "uint8"
            },
            {
              "internalType": "bool",
              "name": "settled",
              "type": "bool"
            }
          ],
          "internalType": "struct BTCBetting.Bet",
          "name": "",
          "type": "tuple"
        }
      ],
      "stateMutability": "view",
      "type": "function"
    },
    {
      "inputs": [
        {
          "internalType": "bytes32",
          "name": "requestId",
          "type": "bytes32"
        },
        {
          "internalType": "bytes",
          "name": "response",
          "type": "bytes"
        },
        {
          "internalType": "bytes",
          "name": "err",
          "type": "bytes"
        }
      ],
      "name": "handleOracleFulfillment",
      "outputs": [],
      "stateMutability": "nonpayable",
      "type": "function"
    },
    {
      "inputs": [],
      "name": "lastRequestId",
      "outputs": [
        {
          "internalType": "bytes32",
          "name": "",
          "type": "bytes32"
        }
      ],
      "stateMutability": "view",
      "type": "function"
    },
    {
      "inputs": [],
      "name": "lotteryContract",
      "outputs": [
        {
          "internalType": "address",
          "name": "",
          "type": "address"
        }
      ],
      "stateMutability": "view",
      "type": "function"
    },
    {
      "inputs": [],
      "name": "owner",
      "outputs": [
        {
          "internalType": "address",
          "name": "",
          "type": "address"
        }
      ],
      "stateMutability": "view",
      "type": "function"
    },
    {
      "inputs": [
        {
          "internalType": "bytes",
          "name": "performData",
          "type": "bytes"
        }
      ],
      "name": "performUpkeep",
      "outputs": [],
      "stateMutability": "nonpayable",
      "type": "function"
    },
    {
      "inputs": [
        {
          "internalType": "address",
          "name": "user",
          "type": "address"
        },
        {
          "internalType": "uint8",
          "name": "position",
          "type": "uint8"
        },
        {
          "internalType": "uint256",
          "name": "amount",
          "type": "uint256"
        }
      ],
      "name": "placeBetFor",
      "outputs": [],
      "stateMutability": "nonpayable",
      "type": "function"
    },
    {
      "inputs": [],
      "name": "poolBalance",
      "outputs": [
        {
          "internalType": "uint256",
          "name": "",
          "type": "uint256"
        }
      ],
      "stateMutability": "view",
      "type": "function"
    },
    {
      "inputs": [
        {
          "internalType": "address",
          "name": "_carbon",
          "type": "address"
        }
      ],
      "name": "setCarbonContract",
      "outputs": [],
      "stateMutability": "nonpayable",
      "type": "function"
    },
    {
      "inputs": [
        {
          "internalType": "address",
          "name": "_lottery",
          "type": "address"
        }
      ],
      "name": "setLotteryContract",
      "outputs": [],
      "stateMutability": "nonpayable",
      "type": "function"
    },
    {
      "inputs": [
        {
          "internalType": "address",
          "name": "_vault",
          "type": "address"
        }
      ],
      "name": "setVault",
      "outputs": [],
      "stateMutability": "nonpayable",
      "type": "function"
    },
    {
      "inputs": [
        {
          "internalType": "address",
          "name": "to",
          "type": "address"
        }
      ],
      "name": "transferOwnership",
      "outputs": [],
      "stateMutability": "nonpayable",
      "type": "function"
    },
    {
      "inputs": [],
      "name": "vault",
      "outputs": [
        {
          "internalType": "address",
          "name": "",
          "type": "address"
        }
      ],
      "stateMutability": "view",
      "type": "function"
    },
    {
      "inputs": [
        {
          "internalType": "uint256",
          "name": "amt",
          "type": "uint256"
        }
      ],
      "name": "withdrawPool",
      "outputs": [],
      "stateMutability": "nonpayable",
      "type": "function"
    },
    {
      "stateMutability": "payable",
      "type": "receive"
    }
  ],
  "bytecode": "0x60a060405260405180610180016040528061015b81526020016143f861015b9139600a908161002e9190610501565b5034801561003b57600080fd5b503380600073a9d587a00a31a52ed70d6026794a8fc5e2f5dcb08073ffffffffffffffffffffffffffffffffffffffff1660808173ffffffffffffffffffffffffffffffffffffffff168152505050600073ffffffffffffffffffffffffffffffffffffffff168273ffffffffffffffffffffffffffffffffffffffff16036100f9576040517f08c379a00000000000000000000000000000000000000000000000000000000081526004016100f090610630565b60405180910390fd5b816000806101000a81548173ffffffffffffffffffffffffffffffffffffffff021916908373ffffffffffffffffffffffffffffffffffffffff160217905550600073ffffffffffffffffffffffffffffffffffffffff168173ffffffffffffffffffffffffffffffffffffffff161461017d5761017c8161018560201b60201c565b5b5050506106bc565b3373ffffffffffffffffffffffffffffffffffffffff168173ffffffffffffffffffffffffffffffffffffffff16036101f3576040517f08c379a00000000000000000000000000000000000000000000000000000000081526004016101ea9061069c565b60405180910390fd5b80600160006101000a81548173ffffffffffffffffffffffffffffffffffffffff021916908373ffffffffffffffffffffffffffffffffffffffff1602179055508073ffffffffffffffffffffffffffffffffffffffff1660008054906101000a900473ffffffffffffffffffffffffffffffffffffffff1673ffffffffffffffffffffffffffffffffffffffff167fed8889f560326eb138920d842192f0eb3dd22b4f139c87a2c57538e05bae127860405160405180910390a350565b600081519050919050565b7f4e487b7100000000000000000000000000000000000000000000000000000000600052604160045260246000fd5b7f4e487b7100000000000000000000000000000000000000000000000000000000600052602260045260246000fd5b6000600282049050600182168061033257607f821691505b602082108103610345576103446102eb565b5b50919050565b60008190508160005260206000209050919050565b60006020601f8301049050919050565b600082821b905092915050565b6000600883026103ad7fffffffffffffffffffffffffffffffffffffffffffffffffffffffffffffffff82610370565b6103b78683610370565b95508019841693508086168417925050509392505050565b6000819050919050565b6000819050919050565b60006103fe6103f96103f4846103cf565b6103d9565b6103cf565b9050919050565b6000819050919050565b610418836103e3565b61042c61042482610405565b84845461037d565b825550505050565b600090565b610441610434565b61044c81848461040f565b505050565b5b8181101561047057610465600082610439565b600181019050610452565b5050565b601f8211156104b5576104868161034b565b61048f84610360565b8101602085101561049e578190505b6104b26104aa85610360565b830182610451565b50505b505050565b600082821c905092915050565b60006104d8600019846008026104ba565b1980831691505092915050565b60006104f183836104c7565b9150826002028217905092915050565b61050a826102b1565b67ffffffffffffffff811115610523576105226102bc565b5b61052d825461031a565b610538828285610474565b600060209050601f83116001811461056b5760008415610559578287015190505b61056385826104e5565b8655506105cb565b601f1984166105798661034b565b60005b828110156105a15784890151825560018201915060208501945060208101905061057c565b868310156105be57848901516105ba601f8916826104c7565b8355505b6001600288020188555050505b505050505050565b600082825260208201905092915050565b7f43616e6e6f7420736574206f776e657220746f207a65726f0000000000000000600082015250565b600061061a6018836105d3565b9150610625826105e4565b602082019050919050565b600060208201905081810360008301526106498161060d565b9050919050565b7f43616e6e6f74207472616e7366657220746f2073656c66000000000000000000600082015250565b60006106866017836105d3565b915061069182610650565b602082019050919050565b600060208201905081810360008301526106b581610679565b9050919050565b608051613d1a6106de600039600081816104e401526121da0152613d1a6000f3fe60806040526004361061012e5760003560e01c806389a78f1a116100ab578063cbf9a3821161006f578063cbf9a382146103d2578063d847ee8a146103fb578063f2fde38b14610426578063f7566b491461044f578063fbfa77cf1461048c578063fc2a88c3146104b75761014d565b806389a78f1a146102d25780638da5cb5b1461031457806396365d441461033f578063ab65faf41461036a578063b29c662a146103a75761014d565b80636817031b116100f25780636817031b1461021f5780636e04ff0d1461024857806370f37d271461028657806376e4fc2a1461029057806379ba5097146102bb5761014d565b80630ca761751461015257806314f955dc1461017b5780631590a04f146101a45780634585e33b146101cd5780634c034ea9146101f65761014d565b3661014d57346005600082825461014591906129fd565b925050819055005b600080fd5b34801561015e57600080fd5b5061017960048036038101906101749190612bc1565b6104e2565b005b34801561018757600080fd5b506101a2600480360381019061019d9190612d0f565b6105a4565b005b3480156101b057600080fd5b506101cb60048036038101906101c69190612d62565b610955565b005b3480156101d957600080fd5b506101f460048036038101906101ef9190612def565b6109a1565b005b34801561020257600080fd5b5061021d60048036038101906102189190612e3c565b6109cf565b005b34801561022b57600080fd5b5061024660048036038101906102419190612d62565b610a86565b005b34801561025457600080fd5b5061026f600480360381019061026a9190612def565b610ad2565b60405161027d929190612f03565b60405180910390f35b61028e610c36565b005b34801561029c57600080fd5b506102a5610c51565b6040516102b29190612f42565b60405180910390f35b3480156102c757600080fd5b506102d0610c77565b005b3480156102de57600080fd5b506102f960048036038101906102f49190612d62565b610e0c565b60405161030b96959493929190612f94565b60405180910390f35b34801561032057600080fd5b50610329610e62565b6040516103369190612f42565b60405180910390f35b34801561034b57600080fd5b50610354610e8b565b6040516103619190612ff5565b60405180910390f35b34801561037657600080fd5b50610391600480360381019061038c9190612e3c565b610e91565b60405161039e9190612f42565b60405180910390f35b3480156103b357600080fd5b506103bc610ed0565b6040516103c99190612f42565b60405180910390f35b3480156103de57600080fd5b506103f960048036038101906103f49190612d62565b610ef6565b005b34801561040757600080fd5b50610410610f42565b60405161041d91906130ce565b60405180910390f35b34801561043257600080fd5b5061044d60048036038101906104489190612d62565b610fd0565b005b34801561045b57600080fd5b5061047660048036038101906104719190612d62565b610fe4565b60405161048391906131a7565b60405180910390f35b34801561049857600080fd5b506104a161109d565b6040516104ae9190612f42565b60405180910390f35b3480156104c357600080fd5b506104cc6110c3565b6040516104d991906131d1565b60405180910390f35b7f000000000000000000000000000000000000000000000000000000000000000073ffffffffffffffffffffffffffffffffffffffff163373ffffffffffffffffffffffffffffffffffffffff1614610567576040517fc6829f8300000000000000000000000000000000000000000000000000000000815260040160405180910390fd5b6105728383836110c9565b827f85e1543bf2f84fe80c6badbce3648c8539ad1df4d2b3d822938ca0538be727e660405160405180910390a2505050565b60018260ff1611156105eb576040517f08c379a00000000000000000000000000000000000000000000000000000000081526004016105e290613249565b60405180910390fd5b6000811161062e576040517f08c379a0000000000000000000000000000000000000000000000000000000008152600401610625906132b5565b60405180910390fd5b6000600660008573ffffffffffffffffffffffffffffffffffffffff1673ffffffffffffffffffffffffffffffffffffffff1681526020019081526020016000206000015414806106cb5750600660008473ffffffffffffffffffffffffffffffffffffffff1673ffffffffffffffffffffffffffffffffffffffff16815260200190815260200160002060040160019054906101000a900460ff165b61070a576040517f08c379a000000000000000000000000000000000000000000000000000000000815260040161070190613321565b60405180910390fd5b600260009054906101000a900473ffffffffffffffffffffffffffffffffffffffff1673ffffffffffffffffffffffffffffffffffffffff1663d1ce472084836040518363ffffffff1660e01b8152600401610767929190613341565b600060405180830381600087803b15801561078157600080fd5b505af1158015610795573d6000803e3d6000fd5b5050505080600560008282546107ab91906129fd565b925050819055506040518060c0016040528082815260200142815260200160008152602001600081526020018360ff16815260200160001515815250600660008573ffffffffffffffffffffffffffffffffffffffff1673ffffffffffffffffffffffffffffffffffffffff1681526020019081526020016000206000820151816000015560208201518160010155604082015181600201556060820151816003015560808201518160040160006101000a81548160ff021916908360ff16021790555060a08201518160040160016101000a81548160ff0219169083151502179055509050506007839080600181540180825580915050600190039060005260206000200160009091909190916101000a81548173ffffffffffffffffffffffffffffffffffffffff021916908373ffffffffffffffffffffffffffffffffffffffff1602179055508273ffffffffffffffffffffffffffffffffffffffff167f9f6b4cced64244a64465098f682029975b1614400b96bc6bd12c668083719166838360405161093d92919061336a565b60405180910390a2610950836001611344565b505050565b61095d611513565b80600360006101000a81548173ffffffffffffffffffffffffffffffffffffffff021916908373ffffffffffffffffffffffffffffffffffffffff16021790555050565b60008083838101906109b391906133d1565b915091506109c0826115a3565b6109c9816116b8565b50505050565b6109d7611513565b600554811115610a1c576040517f08c379a0000000000000000000000000000000000000000000000000000000008152600401610a139061345d565b60405180910390fd5b8060056000828254610a2e919061347d565b92505081905550610a3d610e62565b73ffffffffffffffffffffffffffffffffffffffff166108fc829081150290604051600060405180830381858888f19350505050158015610a82573d6000803e3d6000fd5b5050565b610a8e611513565b80600260006101000a81548173ffffffffffffffffffffffffffffffffffffffff021916908373ffffffffffffffffffffffffffffffffffffffff16021790555050565b6000606060005b600780549050811015610c175760006006600060078481548110610b0057610aff6134b1565b5b9060005260206000200160009054906101000a900473ffffffffffffffffffffffffffffffffffffffff1673ffffffffffffffffffffffffffffffffffffffff1673ffffffffffffffffffffffffffffffffffffffff16815260200190815260200160002090508060040160019054906101000a900460ff16158015610b97575061012c8160010154610b9391906129fd565b4210155b15610c0957600160078381548110610bb257610bb16134b1565b5b9060005260206000200160009054906101000a900473ffffffffffffffffffffffffffffffffffffffff1683604051602001610bef929190613341565b604051602081830303815290604052935093505050610c2f565b508080600101915050610ad9565b50600060405180602001604052806000815250915091505b9250929050565b3460056000828254610c4891906129fd565b92505081905550565b600460009054906101000a900473ffffffffffffffffffffffffffffffffffffffff1681565b600160009054906101000a900473ffffffffffffffffffffffffffffffffffffffff1673ffffffffffffffffffffffffffffffffffffffff163373ffffffffffffffffffffffffffffffffffffffff1614610d07576040517f08c379a0000000000000000000000000000000000000000000000000000000008152600401610cfe9061352c565b60405180910390fd5b60008060009054906101000a900473ffffffffffffffffffffffffffffffffffffffff169050336000806101000a81548173ffffffffffffffffffffffffffffffffffffffff021916908373ffffffffffffffffffffffffffffffffffffffff1602179055506000600160006101000a81548173ffffffffffffffffffffffffffffffffffffffff021916908373ffffffffffffffffffffffffffffffffffffffff1602179055503373ffffffffffffffffffffffffffffffffffffffff168173ffffffffffffffffffffffffffffffffffffffff167f8be0079c531659141344cd1fd0a4f28419497f9722a3daafe3b4186f6b6457e060405160405180910390a350565b60066020528060005260406000206000915090508060000154908060010154908060020154908060030154908060040160009054906101000a900460ff16908060040160019054906101000a900460ff16905086565b60008060009054906101000a900473ffffffffffffffffffffffffffffffffffffffff16905090565b60055481565b60078181548110610ea157600080fd5b906000526020600020016000915054906101000a900473ffffffffffffffffffffffffffffffffffffffff1681565b600360009054906101000a900473ffffffffffffffffffffffffffffffffffffffff1681565b610efe611513565b80600460006101000a81548173ffffffffffffffffffffffffffffffffffffffff021916908373ffffffffffffffffffffffffffffffffffffffff16021790555050565b60606007805480602002602001604051908101604052809291908181526020018280548015610fc657602002820191906000526020600020905b8160009054906101000a900473ffffffffffffffffffffffffffffffffffffffff1673ffffffffffffffffffffffffffffffffffffffff1681526020019060010190808311610f7c575b5050505050905090565b610fd8611513565b610fe1816117ae565b50565b610fec6128dd565b600660008373ffffffffffffffffffffffffffffffffffffffff1673ffffffffffffffffffffffffffffffffffffffff1681526020019081526020016000206040518060c0016040529081600082015481526020016001820154815260200160028201548152602001600382015481526020016004820160009054906101000a900460ff1660ff1660ff1681526020016004820160019054906101000a900460ff1615151515815250509050919050565b600260009054906101000a900473ffffffffffffffffffffffffffffffffffffffff1681565b600b5481565b600073ffffffffffffffffffffffffffffffffffffffff166008600085815260200190815260200160002060009054906101000a900473ffffffffffffffffffffffffffffffffffffffff1673ffffffffffffffffffffffffffffffffffffffff160361116b576040517f08c379a000000000000000000000000000000000000000000000000000000000815260040161116290613598565b60405180910390fd5b60006008600085815260200190815260200160002060009054906101000a900473ffffffffffffffffffffffffffffffffffffffff16905060006009600086815260200190815260200160002060009054906101000a900460ff16905060006111d3856118da565b90508273ffffffffffffffffffffffffffffffffffffffff167f048c26a84457a98927756e15ed46af34953a8de5a806b985c1b65ae7b3eec1d5838360405161121d92919061362f565b60405180910390a26000600660008573ffffffffffffffffffffffffffffffffffffffff1673ffffffffffffffffffffffffffffffffffffffff16815260200190815260200160002090506001600281111561127c5761127b6135b8565b5b83600281111561128f5761128e6135b8565b5b036112a2578181600201819055506112e2565b6002808111156112b5576112b46135b8565b5b8360028111156112c8576112c76135b8565b5b036112e1578181600301819055506112e08482611a1e565b5b5b6008600088815260200190815260200160002060006101000a81549073ffffffffffffffffffffffffffffffffffffffff02191690556009600088815260200190815260200160002060006101000a81549060ff021916905550505050505050565b61134c612918565b6113e9600a805461135c90613687565b80601f016020809104026020016040519081016040528092919081815260200182805461138890613687565b80156113d55780601f106113aa576101008083540402835291602001916113d5565b820191906000526020600020905b8154815290600101906020018083116113b857829003601f168201915b505050505082611db490919063ffffffff16565b60006114276113f783611dc5565b613d40620493e07f66756e2d6176616c616e6368652d66756a692d3100000000000000000000000060001b6121d5565b9050836008600083815260200190815260200160002060006101000a81548173ffffffffffffffffffffffffffffffffffffffff021916908373ffffffffffffffffffffffffffffffffffffffff160217905550826009600083815260200190815260200160002060006101000a81548160ff021916908360028111156114b1576114b06135b8565b5b021790555080600b819055508373ffffffffffffffffffffffffffffffffffffffff167f34096771911d55e0f95bc578c7cf3f812ecec9af25d9b3bddb38a6bd415c1b6984836040516115059291906136b8565b60405180910390a250505050565b60008054906101000a900473ffffffffffffffffffffffffffffffffffffffff1673ffffffffffffffffffffffffffffffffffffffff163373ffffffffffffffffffffffffffffffffffffffff16146115a1576040517f08c379a00000000000000000000000000000000000000000000000000000000081526004016115989061372d565b60405180910390fd5b565b6000600660008373ffffffffffffffffffffffffffffffffffffffff1673ffffffffffffffffffffffffffffffffffffffff16815260200190815260200160002090508060040160019054906101000a900460ff1615611638576040517f08c379a000000000000000000000000000000000000000000000000000000000815260040161162f90613799565b60405180910390fd5b61012c816001015461164a91906129fd565b42101561168c576040517f08c379a000000000000000000000000000000000000000000000000000000000815260040161168390613805565b60405180910390fd5b611697826002611344565b60018160040160016101000a81548160ff0219169083151502179055505050565b600760016007805490506116cc919061347d565b815481106116dd576116dc6134b1565b5b9060005260206000200160009054906101000a900473ffffffffffffffffffffffffffffffffffffffff166007828154811061171c5761171b6134b1565b5b9060005260206000200160006101000a81548173ffffffffffffffffffffffffffffffffffffffff021916908373ffffffffffffffffffffffffffffffffffffffff160217905550600780548061177657611775613825565b5b6001900381819060005260206000200160006101000a81549073ffffffffffffffffffffffffffffffffffffffff0219169055905550565b3373ffffffffffffffffffffffffffffffffffffffff168173ffffffffffffffffffffffffffffffffffffffff160361181c576040517f08c379a0000000000000000000000000000000000000000000000000000000008152600401611813906138a0565b60405180910390fd5b80600160006101000a81548173ffffffffffffffffffffffffffffffffffffffff021916908373ffffffffffffffffffffffffffffffffffffffff1602179055508073ffffffffffffffffffffffffffffffffffffffff1660008054906101000a900473ffffffffffffffffffffffffffffffffffffffff1673ffffffffffffffffffffffffffffffffffffffff167fed8889f560326eb138920d842192f0eb3dd22b4f139c87a2c57538e05bae127860405160405180910390a350565b60008060005b8351811015611a1457603060f81b848281518110611901576119006134b1565b5b602001015160f81c60f81b7effffffffffffffffffffffffffffffffffffffffffffffffffffffffffffff19161015801561197f5750603960f81b84828151811061194f5761194e6134b1565b5b602001015160f81c60f81b7effffffffffffffffffffffffffffffffffffffffffffffffffffffffffffff191611155b6119be576040517f08c379a00000000000000000000000000000000000000000000000000000000081526004016119b59061390c565b60405180910390fd5b60308482815181106119d3576119d26134b1565b5b602001015160f81c60f81b60f81c6119eb919061392c565b60ff16600a836119fb9190613961565b611a0591906129fd565b915080806001019150506118e0565b5080915050919050565b6000808260040160009054906101000a900460ff1660ff16148015611a4a575081600201548260030154135b80611a7c575060018260040160009054906101000a900460ff1660ff16148015611a7b575081600201548260030154125b5b9050600082600201548360030154149050600082611aab5781611aa0576000611aa6565b83600001545b611abd565b60028460000154611abc9190613961565b5b90506000811115611d53576000606460058660000154611add9190613961565b611ae791906139d2565b90506000606460028760000154611afe9190613961565b611b0891906139d2565b90506000818385611b19919061347d565b611b23919061347d565b90508360056000828254611b37919061347d565b92505081905550600073ffffffffffffffffffffffffffffffffffffffff16600360009054906101000a900473ffffffffffffffffffffffffffffffffffffffff1673ffffffffffffffffffffffffffffffffffffffff1614611c2357600360009054906101000a900473ffffffffffffffffffffffffffffffffffffffff1673ffffffffffffffffffffffffffffffffffffffff1663e3a0b950848a6040518363ffffffff1660e01b8152600401611bf09190612f42565b6000604051808303818588803b158015611c0957600080fd5b505af1158015611c1d573d6000803e3d6000fd5b50505050505b600073ffffffffffffffffffffffffffffffffffffffff16600460009054906101000a900473ffffffffffffffffffffffffffffffffffffffff1673ffffffffffffffffffffffffffffffffffffffff1614611d0857600460009054906101000a900473ffffffffffffffffffffffffffffffffffffffff1673ffffffffffffffffffffffffffffffffffffffff1663af10e10d838a6040518363ffffffff1660e01b8152600401611cd59190612f42565b6000604051808303818588803b158015611cee57600080fd5b505af1158015611d02573d6000803e3d6000fd5b50505050505b8773ffffffffffffffffffffffffffffffffffffffff166108fc829081150290604051600060405180830381858888f19350505050158015611d4e573d6000803e3d6000fd5b505050505b8473ffffffffffffffffffffffffffffffffffffffff167fbfc001494020547f6803aab335ce9a48eb7f1102b2e75c612a5c7e20a9a121138486600201548760030154604051611da593929190613a03565b60405180910390a25050505050565b611dc182600080846122b8565b5050565b60606000611dd4610100612362565b9050611e1e6040518060400160405280600c81526020017f636f64654c6f636174696f6e00000000000000000000000000000000000000008152508261238990919063ffffffff16565b611e4783600001516002811115611e3857611e376135b8565b5b826123b290919063ffffffff16565b611e8f6040518060400160405280600881526020017f6c616e67756167650000000000000000000000000000000000000000000000008152508261238990919063ffffffff16565b611eb883604001516000811115611ea957611ea86135b8565b5b826123b290919063ffffffff16565b611f006040518060400160405280600681526020017f736f7572636500000000000000000000000000000000000000000000000000008152508261238990919063ffffffff16565b611f1783606001518261238990919063ffffffff16565b60008360a00151511115611fcd57611f6d6040518060400160405280600481526020017f61726773000000000000000000000000000000000000000000000000000000008152508261238990919063ffffffff16565b611f7681612402565b60005b8360a0015151811015611fc257611fb78460a001518281518110611fa057611f9f6134b1565b5b60200260200101518361238990919063ffffffff16565b806001019050611f79565b50611fcc8161242a565b5b6000836080015151111561210e5760006002811115611fef57611fee6135b8565b5b83602001516002811115612006576120056135b8565b5b0361203d576040517fa80d31f700000000000000000000000000000000000000000000000000000000815260040160405180910390fd5b6120856040518060400160405280600f81526020017f736563726574734c6f636174696f6e00000000000000000000000000000000008152508261238990919063ffffffff16565b6120ae8360200151600281111561209f5761209e6135b8565b5b826123b290919063ffffffff16565b6120f66040518060400160405280600781526020017f73656372657473000000000000000000000000000000000000000000000000008152508261238990919063ffffffff16565b61210d83608001518261245290919063ffffffff16565b5b60008360c001515111156121c4576121646040518060400160405280600981526020017f62797465734172677300000000000000000000000000000000000000000000008152508261238990919063ffffffff16565b61216d81612402565b60005b8360c00151518110156121b9576121ae8460c001518281518110612197576121966134b1565b5b60200260200101518361245290919063ffffffff16565b806001019050612170565b506121c38161242a565b5b806000015160000151915050919050565b6000807f000000000000000000000000000000000000000000000000000000000000000073ffffffffffffffffffffffffffffffffffffffff1663461d27628688600188886040518663ffffffff1660e01b815260040161223a959493929190613a99565b6020604051808303816000875af1158015612259573d6000803e3d6000fd5b505050506040513d601f19601f8201168201806040525081019061227d9190613b08565b9050807f1131472297a800fee664d1d89cfa8f7676ff07189ecc53f80bbb5f4969099db860405160405180910390a280915050949350505050565b60008151036122f3576040517f22ce3edd00000000000000000000000000000000000000000000000000000000815260040160405180910390fd5b828460000190600281111561230b5761230a6135b8565b5b9081600281111561231f5761231e6135b8565b5b81525050818460400190600081111561233b5761233a6135b8565b5b9081600081111561234f5761234e6135b8565b5b8152505080846060018190525050505050565b61236a61298a565b61237881600001518361247b565b506000816020018181525050919050565b61239682600383516124f4565b6123ad81836000015161269d90919063ffffffff16565b505050565b6123d460026005600660ff16901b1783600001516126b990919063ffffffff16565b506123fe82826040516020016123ea9190612ff5565b604051602081830303815290604052612452565b5050565b61240d816004612723565b60018160200181815161242091906129fd565b9150818152505050565b612435816007612723565b600181602001818151612448919061347d565b9150818152505050565b61245f82600283516124f4565b61247681836000015161269d90919063ffffffff16565b505050565b6124836129aa565b60006020836124929190613b35565b146124be576020826124a49190613b35565b60206124b0919061347d565b826124bb91906129fd565b91505b8183602001818152505060405180845260008152828101602001818110156124e557600080fd5b80604052505082905092915050565b60178167ffffffffffffffff161161252f576125298160058460ff16901b60ff161784600001516126b990919063ffffffff16565b50612698565b60ff8167ffffffffffffffff161161258d57612562601860058460ff16901b1784600001516126b990919063ffffffff16565b506125878167ffffffffffffffff16600185600001516127499092919063ffffffff16565b50612697565b61ffff8167ffffffffffffffff16116125ec576125c1601960058460ff16901b1784600001516126b990919063ffffffff16565b506125e68167ffffffffffffffff16600285600001516127499092919063ffffffff16565b50612696565b63ffffffff8167ffffffffffffffff161161264d57612622601a60058460ff16901b1784600001516126b990919063ffffffff16565b506126478167ffffffffffffffff16600485600001516127499092919063ffffffff16565b50612695565b61266e601b60058460ff16901b1784600001516126b990919063ffffffff16565b506126938167ffffffffffffffff16600885600001516127499092919063ffffffff16565b505b5b5b5b505050565b6126a56129aa565b6126b1838384516127d6565b905092915050565b6126c16129aa565b6000836000015151905060006001826126da91906129fd565b9050846020015182106126fe576126fd856002836126f89190613961565b6128b9565b5b84516020838201018581538151831115612716578282525b5050849250505092915050565b612744601f60058360ff16901b1783600001516126b990919063ffffffff16565b505050565b6127516129aa565b600084600001515190506000818461276991906129fd565b9050856020015181111561278e5761278d866002836127889190613961565b6128b9565b5b60006001856101006127a09190613c99565b6127aa919061347d565b9050865182810187831982511617815281518411156127c7578382525b50508693505050509392505050565b6127de6129aa565b82518211156127ec57600080fd5b600084600001515190506000838261280491906129fd565b9050856020015181111561282957612828866002836128239190613961565b6128b9565b5b60008087518051856020830101935080851115612844578482525b60208901925050505b6020861061288b578051825260208261286691906129fd565b915060208161287591906129fd565b9050602086612884919061347d565b955061284d565b60006001876020036101000a0390508019825116818451168181178552505050879450505050509392505050565b6000826000015190506128cc838361247b565b506128d7838261269d565b50505050565b6040518060c0016040528060008152602001600081526020016000815260200160008152602001600060ff1681526020016000151581525090565b6040518060e0016040528060006002811115612937576129366135b8565b5b8152602001600060028111156129505761294f6135b8565b5b8152602001600080811115612968576129676135b8565b5b8152602001606081526020016060815260200160608152602001606081525090565b604051806040016040528061299d6129aa565b8152602001600081525090565b604051806040016040528060608152602001600081525090565b6000819050919050565b7f4e487b7100000000000000000000000000000000000000000000000000000000600052601160045260246000fd5b6000612a08826129c4565b9150612a13836129c4565b9250828201905080821115612a2b57612a2a6129ce565b5b92915050565b6000604051905090565b600080fd5b600080fd5b6000819050919050565b612a5881612a45565b8114612a6357600080fd5b50565b600081359050612a7581612a4f565b92915050565b600080fd5b600080fd5b6000601f19601f8301169050919050565b7f4e487b7100000000000000000000000000000000000000000000000000000000600052604160045260246000fd5b612ace82612a85565b810181811067ffffffffffffffff82111715612aed57612aec612a96565b5b80604052505050565b6000612b00612a31565b9050612b0c8282612ac5565b919050565b600067ffffffffffffffff821115612b2c57612b2b612a96565b5b612b3582612a85565b9050602081019050919050565b82818337600083830152505050565b6000612b64612b5f84612b11565b612af6565b905082815260208101848484011115612b8057612b7f612a80565b5b612b8b848285612b42565b509392505050565b600082601f830112612ba857612ba7612a7b565b5b8135612bb8848260208601612b51565b91505092915050565b600080600060608486031215612bda57612bd9612a3b565b5b6000612be886828701612a66565b935050602084013567ffffffffffffffff811115612c0957612c08612a40565b5b612c1586828701612b93565b925050604084013567ffffffffffffffff811115612c3657612c35612a40565b5b612c4286828701612b93565b9150509250925092565b600073ffffffffffffffffffffffffffffffffffffffff82169050919050565b6000612c7782612c4c565b9050919050565b612c8781612c6c565b8114612c9257600080fd5b50565b600081359050612ca481612c7e565b92915050565b600060ff82169050919050565b612cc081612caa565b8114612ccb57600080fd5b50565b600081359050612cdd81612cb7565b92915050565b612cec816129c4565b8114612cf757600080fd5b50565b600081359050612d0981612ce3565b92915050565b600080600060608486031215612d2857612d27612a3b565b5b6000612d3686828701612c95565b9350506020612d4786828701612cce565b9250506040612d5886828701612cfa565b9150509250925092565b600060208284031215612d7857612d77612a3b565b5b6000612d8684828501612c95565b91505092915050565b600080fd5b600080fd5b60008083601f840112612daf57612dae612a7b565b5b8235905067ffffffffffffffff811115612dcc57612dcb612d8f565b5b602083019150836001820283011115612de857612de7612d94565b5b9250929050565b60008060208385031215612e0657612e05612a3b565b5b600083013567ffffffffffffffff811115612e2457612e23612a40565b5b612e3085828601612d99565b92509250509250929050565b600060208284031215612e5257612e51612a3b565b5b6000612e6084828501612cfa565b91505092915050565b60008115159050919050565b612e7e81612e69565b82525050565b600081519050919050565b600082825260208201905092915050565b60005b83811015612ebe578082015181840152602081019050612ea3565b60008484015250505050565b6000612ed582612e84565b612edf8185612e8f565b9350612eef818560208601612ea0565b612ef881612a85565b840191505092915050565b6000604082019050612f186000830185612e75565b8181036020830152612f2a8184612eca565b90509392505050565b612f3c81612c6c565b82525050565b6000602082019050612f576000830184612f33565b92915050565b612f66816129c4565b82525050565b6000819050919050565b612f7f81612f6c565b82525050565b612f8e81612caa565b82525050565b600060c082019050612fa96000830189612f5d565b612fb66020830188612f5d565b612fc36040830187612f76565b612fd06060830186612f76565b612fdd6080830185612f85565b612fea60a0830184612e75565b979650505050505050565b600060208201905061300a6000830184612f5d565b92915050565b600081519050919050565b600082825260208201905092915050565b6000819050602082019050919050565b61304581612c6c565b82525050565b6000613057838361303c565b60208301905092915050565b6000602082019050919050565b600061307b82613010565b613085818561301b565b93506130908361302c565b8060005b838110156130c15781516130a8888261304b565b97506130b383613063565b925050600181019050613094565b5085935050505092915050565b600060208201905081810360008301526130e88184613070565b905092915050565b6130f9816129c4565b82525050565b61310881612f6c565b82525050565b61311781612caa565b82525050565b61312681612e69565b82525050565b60c08201600082015161314260008501826130f0565b50602082015161315560208501826130f0565b50604082015161316860408501826130ff565b50606082015161317b60608501826130ff565b50608082015161318e608085018261310e565b5060a08201516131a160a085018261311d565b50505050565b600060c0820190506131bc600083018461312c565b92915050565b6131cb81612a45565b82525050565b60006020820190506131e660008301846131c2565b92915050565b600082825260208201905092915050565b7f496e76616c696420706f736974696f6e00000000000000000000000000000000600082015250565b60006132336010836131ec565b915061323e826131fd565b602082019050919050565b6000602082019050818103600083015261326281613226565b9050919050565b7f416d6f756e74207a65726f000000000000000000000000000000000000000000600082015250565b600061329f600b836131ec565b91506132aa82613269565b602082019050919050565b600060208201905081810360008301526132ce81613292565b9050919050565b7f4163746976652062657420657869737473000000000000000000000000000000600082015250565b600061330b6011836131ec565b9150613316826132d5565b602082019050919050565b6000602082019050818103600083015261333a816132fe565b9050919050565b60006040820190506133566000830185612f33565b6133636020830184612f5d565b9392505050565b600060408201905061337f6000830185612f85565b61338c6020830184612f5d565b9392505050565b600061339e82612c4c565b9050919050565b6133ae81613393565b81146133b957600080fd5b50565b6000813590506133cb816133a5565b92915050565b600080604083850312156133e8576133e7612a3b565b5b60006133f6858286016133bc565b925050602061340785828601612cfa565b9150509250929050565b7f496e73756666696369656e7420706f6f6c000000000000000000000000000000600082015250565b60006134476011836131ec565b915061345282613411565b602082019050919050565b600060208201905081810360008301526134768161343a565b9050919050565b6000613488826129c4565b9150613493836129c4565b92508282039050818111156134ab576134aa6129ce565b5b92915050565b7f4e487b7100000000000000000000000000000000000000000000000000000000600052603260045260246000fd5b7f4d7573742062652070726f706f736564206f776e657200000000000000000000600082015250565b60006135166016836131ec565b9150613521826134e0565b602082019050919050565b6000602082019050818103600083015261354581613509565b9050919050565b7f556e6b6e6f776e20726571756573740000000000000000000000000000000000600082015250565b6000613582600f836131ec565b915061358d8261354c565b602082019050919050565b600060208201905081810360008301526135b181613575565b9050919050565b7f4e487b7100000000000000000000000000000000000000000000000000000000600052602160045260246000fd5b600381106135f8576135f76135b8565b5b50565b6000819050613609826135e7565b919050565b6000613619826135fb565b9050919050565b6136298161360e565b82525050565b60006040820190506136446000830185613620565b6136516020830184612f76565b9392505050565b7f4e487b7100000000000000000000000000000000000000000000000000000000600052602260045260246000fd5b6000600282049050600182168061369f57607f821691505b6020821081036136b2576136b1613658565b5b50919050565b60006040820190506136cd6000830185613620565b6136da60208301846131c2565b9392505050565b7f4f6e6c792063616c6c61626c65206279206f776e657200000000000000000000600082015250565b60006137176016836131ec565b9150613722826136e1565b602082019050919050565b600060208201905081810360008301526137468161370a565b9050919050565b7f416c726561647920736574746c65640000000000000000000000000000000000600082015250565b6000613783600f836131ec565b915061378e8261374d565b602082019050919050565b600060208201905081810360008301526137b281613776565b9050919050565b7f546f6f20736f6f6e000000000000000000000000000000000000000000000000600082015250565b60006137ef6008836131ec565b91506137fa826137b9565b602082019050919050565b6000602082019050818103600083015261381e816137e2565b9050919050565b7f4e487b7100000000000000000000000000000000000000000000000000000000600052603160045260246000fd5b7f43616e6e6f74207472616e7366657220746f2073656c66000000000000000000600082015250565b600061388a6017836131ec565b915061389582613854565b602082019050919050565b600060208201905081810360008301526138b98161387d565b9050919050565b7f4e6f6e2d64696769740000000000000000000000000000000000000000000000600082015250565b60006138f66009836131ec565b9150613901826138c0565b602082019050919050565b60006020820190508181036000830152613925816138e9565b9050919050565b600061393782612caa565b915061394283612caa565b9250828203905060ff81111561395b5761395a6129ce565b5b92915050565b600061396c826129c4565b9150613977836129c4565b9250828202613985816129c4565b9150828204841483151761399c5761399b6129ce565b5b5092915050565b7f4e487b7100000000000000000000000000000000000000000000000000000000600052601260045260246000fd5b60006139dd826129c4565b91506139e8836129c4565b9250826139f8576139f76139a3565b5b828204905092915050565b6000606082019050613a186000830186612e75565b613a256020830185612f76565b613a326040830184612f76565b949350505050565b600067ffffffffffffffff82169050919050565b613a5781613a3a565b82525050565b600061ffff82169050919050565b613a7481613a5d565b82525050565b600063ffffffff82169050919050565b613a9381613a7a565b82525050565b600060a082019050613aae6000830188613a4e565b8181036020830152613ac08187612eca565b9050613acf6040830186613a6b565b613adc6060830185613a8a565b613ae960808301846131c2565b9695505050505050565b600081519050613b0281612a4f565b92915050565b600060208284031215613b1e57613b1d612a3b565b5b6000613b2c84828501613af3565b91505092915050565b6000613b40826129c4565b9150613b4b836129c4565b925082613b5b57613b5a6139a3565b5b828206905092915050565b60008160011c9050919050565b6000808291508390505b6001851115613bbd57808604811115613b9957613b986129ce565b5b6001851615613ba85780820291505b8081029050613bb685613b66565b9450613b7d565b94509492505050565b600082613bd65760019050613c92565b81613be45760009050613c92565b8160018114613bfa5760028114613c0457613c33565b6001915050613c92565b60ff841115613c1657613c156129ce565b5b8360020a915084821115613c2d57613c2c6129ce565b5b50613c92565b5060208310610133831016604e8410600b8410161715613c685782820a905083811115613c6357613c626129ce565b5b613c92565b613c758484846001613b73565b92509050818404811115613c8c57613c8b6129ce565b5b81810290505b9392505050565b6000613ca4826129c4565b9150613caf836129c4565b9250613cdc7fffffffffffffffffffffffffffffffffffffffffffffffffffffffffffffffff8484613bc6565b90509291505056fea2646970667358221220167627882bfad318b0018bd6fae8e397121263a03e0b57227c7a431d442c7ed864736f6c634300081e0033636f6e737420726573706f6e7365203d2061776169742046756e6374696f6e732e6d616b654874747052657175657374287b75726c3a202768747470733a2f2f636861696e6c696e6b2d64617461737472656d732d6170692e6f6e72656e6465722e636f6d2f6170692f7265706f7274272c6d6574686f643a2027504f5354272c686561646572733a207b2027436f6e74656e742d54797065273a20276170706c69636174696f6e2f6a736f6e27207d2c646174613a207b207365637265743a20277375706572736563726574636f646531323327207d7d293b69662028726573706f6e73652e6572726f7229207468726f77204572726f722827415049206661696c656427293b636f6e7374207072696365203d20726573706f6e73652e646174612e7265706f72743b72657475726e2046756e6374696f6e732e656e636f6465537472696e672870726963652e746f537472696e672829293b",
  "linkReferences": {},
  "deployedLinkReferences": {}
}