{
  "_format": "hh-sol-artifact-1",
  "contractName": "BTCBetting",
  "sourceName": "contracts/BettingNew.sol",
  "abi": [
    {
      "inputs": [],
      "stateMutability": "nonpayable",
      "type": "constructor"
    },
    {
      "inputs": [],
      "name": "EmptySource",
      "type": "error"
    },
    {
      "inputs": [],
      "name": "NoInlineSecrets",
      "type": "error"
    },
    {
      "inputs": [],
      "name": "OnlyRouterCanFulfill",
      "type": "error"
    },
    {
      "anonymous": false,
      "inputs": [
        {
          "indexed": true,
          "internalType": "address",
          "name": "user",
          "type": "address"
        },
        {
          "indexed": false,
          "internalType": "uint8",
          "name": "position",
          "type": "uint8"
        },
        {
          "indexed": false,
          "internalType": "uint256",
          "name": "amount",
          "type": "uint256"
        }
      ],
      "name": "BetPlaced",
      "type": "event"
    },
    {
      "anonymous": false,
      "inputs": [
        {
          "indexed": true,
          "internalType": "address",
          "name": "user",
          "type": "address"
        },
        {
          "indexed": false,
          "internalType": "bool",
          "name": "won",
          "type": "bool"
        },
        {
          "indexed": false,
          "internalType": "int256",
          "name": "startPrice",
          "type": "int256"
        },
        {
          "indexed": false,
          "internalType": "int256",
          "name": "endPrice",
          "type": "int256"
        }
      ],
      "name": "BetSettled",
      "type": "event"
    },
    {
      "anonymous": false,
      "inputs": [
        {
          "indexed": true,
          "internalType": "address",
          "name": "from",
          "type": "address"
        },
        {
          "indexed": true,
          "internalType": "address",
          "name": "to",
          "type": "address"
        }
      ],
      "name": "OwnershipTransferRequested",
      "type": "event"
    },
    {
      "anonymous": false,
      "inputs": [
        {
          "indexed": true,
          "internalType": "address",
          "name": "from",
          "type": "address"
        },
        {
          "indexed": true,
          "internalType": "address",
          "name": "to",
          "type": "address"
        }
      ],
      "name": "OwnershipTransferred",
      "type": "event"
    },
    {
      "anonymous": false,
      "inputs": [
        {
          "indexed": true,
          "internalType": "address",
          "name": "user",
          "type": "address"
        },
        {
          "indexed": false,
          "internalType": "enum BTCBetting.PriceType",
          "name": "priceType",
          "type": "uint8"
        },
        {
          "indexed": false,
          "internalType": "int256",
          "name": "price",
          "type": "int256"
        }
      ],
      "name": "PriceFulfilled",
      "type": "event"
    },
    {
      "anonymous": false,
      "inputs": [
        {
          "indexed": true,
          "internalType": "address",
          "name": "user",
          "type": "address"
        },
        {
          "indexed": false,
          "internalType": "enum BTCBetting.PriceType",
          "name": "priceType",
          "type": "uint8"
        },
        {
          "indexed": false,
          "internalType": "bytes32",
          "name": "requestId",
          "type": "bytes32"
        }
      ],
      "name": "PriceRequested",
      "type": "event"
    },
    {
      "anonymous": false,
      "inputs": [
        {
          "indexed": true,
          "internalType": "bytes32",
          "name": "id",
          "type": "bytes32"
        }
      ],
      "name": "RequestFulfilled",
      "type": "event"
    },
    {
      "anonymous": false,
      "inputs": [
        {
          "indexed": true,
          "internalType": "bytes32",
          "name": "id",
          "type": "bytes32"
        }
      ],
      "name": "RequestSent",
      "type": "event"
    },
    {
      "inputs": [],
      "name": "acceptOwnership",
      "outputs": [],
      "stateMutability": "nonpayable",
      "type": "function"
    },
    {
      "inputs": [
        {
          "internalType": "uint256",
          "name": "",
          "type": "uint256"
        }
      ],
      "name": "activeBettors",
      "outputs": [
        {
          "internalType": "address",
          "name": "",
          "type": "address"
        }
      ],
      "stateMutability": "view",
      "type": "function"
    },
    {
      "inputs": [
        {
          "internalType": "address",
          "name": "",
          "type": "address"
        }
      ],
      "name": "bets",
      "outputs": [
        {
          "internalType": "uint256",
          "name": "amount",
          "type": "uint256"
        },
        {
          "internalType": "uint256",
          "name": "startTime",
          "type": "uint256"
        },
        {
          "internalType": "int256",
          "name": "startPrice",
          "type": "int256"
        },
        {
          "internalType": "int256",
          "name": "endPrice",
          "type": "int256"
        },
        {
          "internalType": "uint8",
          "name": "position",
          "type": "uint8"
        },
        {
          "internalType": "bool",
          "name": "settled",
          "type": "bool"
        }
      ],
      "stateMutability": "view",
      "type": "function"
    },
    {
      "inputs": [],
      "name": "carbonCreditContract",
      "outputs": [
        {
          "internalType": "address",
          "name": "",
          "type": "address"
        }
      ],
      "stateMutability": "view",
      "type": "function"
    },
    {
      "inputs": [
        {
          "internalType": "bytes",
          "name": "",
          "type": "bytes"
        }
      ],
      "name": "checkUpkeep",
      "outputs": [
        {
          "internalType": "bool",
          "name": "upkeepNeeded",
          "type": "bool"
        },
        {
          "internalType": "bytes",
          "name": "performData",
          "type": "bytes"
        }
      ],
      "stateMutability": "view",
      "type": "function"
    },
    {
      "inputs": [],
      "name": "fundPool",
      "outputs": [],
      "stateMutability": "payable",
      "type": "function"
    },
    {
      "inputs": [],
      "name": "getActiveBettors",
      "outputs": [
        {
          "internalType": "address[]",
          "name": "",
          "type": "address[]"
        }
      ],
      "stateMutability": "view",
      "type": "function"
    },
    {
      "inputs": [
        {
          "internalType": "address",
          "name": "user",
          "type": "address"
        }
      ],
      "name": "getBet",
      "outputs": [
        {
          "components": [
            {
              "internalType": "uint256",
              "name": "amount",
              "type": "uint256"
            },
            {
              "internalType": "uint256",
              "name": "startTime",
              "type": "uint256"
            },
            {
              "internalType": "int256",
              "name": "startPrice",
              "type": "int256"
            },
            {
              "internalType": "int256",
              "name": "endPrice",
              "type": "int256"
            },
            {
              "internalType": "uint8",
              "name": "position",
              "type": "uint8"
            },
            {
              "internalType": "bool",
              "name": "settled",
              "type": "bool"
            }
          ],
          "internalType": "struct BTCBetting.Bet",
          "name": "",
          "type": "tuple"
        }
      ],
      "stateMutability": "view",
      "type": "function"
    },
    {
      "inputs": [
        {
          "internalType": "bytes32",
          "name": "requestId",
          "type": "bytes32"
        },
        {
          "internalType": "bytes",
          "name": "response",
          "type": "bytes"
        },
        {
          "internalType": "bytes",
          "name": "err",
          "type": "bytes"
        }
      ],
      "name": "handleOracleFulfillment",
      "outputs": [],
      "stateMutability": "nonpayable",
      "type": "function"
    },
    {
      "inputs": [],
      "name": "lastRequestId",
      "outputs": [
        {
          "internalType": "bytes32",
          "name": "",
          "type": "bytes32"
        }
      ],
      "stateMutability": "view",
      "type": "function"
    },
    {
      "inputs": [],
      "name": "lotteryContract",
      "outputs": [
        {
          "internalType": "address",
          "name": "",
          "type": "address"
        }
      ],
      "stateMutability": "view",
      "type": "function"
    },
    {
      "inputs": [],
      "name": "owner",
      "outputs": [
        {
          "internalType": "address",
          "name": "",
          "type": "address"
        }
      ],
      "stateMutability": "view",
      "type": "function"
    },
    {
      "inputs": [
        {
          "internalType": "bytes",
          "name": "performData",
          "type": "bytes"
        }
      ],
      "name": "performUpkeep",
      "outputs": [],
      "stateMutability": "nonpayable",
      "type": "function"
    },
    {
      "inputs": [
        {
          "internalType": "address",
          "name": "user",
          "type": "address"
        },
        {
          "internalType": "uint8",
          "name": "position",
          "type": "uint8"
        }
      ],
      "name": "placeBetFor",
      "outputs": [],
      "stateMutability": "payable",
      "type": "function"
    },
    {
      "inputs": [],
      "name": "poolBalance",
      "outputs": [
        {
          "internalType": "uint256",
          "name": "",
          "type": "uint256"
        }
      ],
      "stateMutability": "view",
      "type": "function"
    },
    {
      "inputs": [
        {
          "internalType": "address",
          "name": "_carbon",
          "type": "address"
        }
      ],
      "name": "setCarbonContract",
      "outputs": [],
      "stateMutability": "nonpayable",
      "type": "function"
    },
    {
      "inputs": [
        {
          "internalType": "address",
          "name": "_lottery",
          "type": "address"
        }
      ],
      "name": "setLotteryContract",
      "outputs": [],
      "stateMutability": "nonpayable",
      "type": "function"
    },
    {
      "inputs": [
        {
          "internalType": "address",
          "name": "_vault",
          "type": "address"
        }
      ],
      "name": "setVault",
      "outputs": [],
      "stateMutability": "nonpayable",
      "type": "function"
    },
    {
      "inputs": [
        {
          "internalType": "address",
          "name": "to",
          "type": "address"
        }
      ],
      "name": "transferOwnership",
      "outputs": [],
      "stateMutability": "nonpayable",
      "type": "function"
    },
    {
      "inputs": [],
      "name": "vault",
      "outputs": [
        {
          "internalType": "address",
          "name": "",
          "type": "address"
        }
      ],
      "stateMutability": "view",
      "type": "function"
    },
    {
      "inputs": [
        {
          "internalType": "uint256",
          "name": "amt",
          "type": "uint256"
        }
      ],
      "name": "withdrawPool",
      "outputs": [],
      "stateMutability": "nonpayable",
      "type": "function"
    },
    {
      "stateMutability": "payable",
      "type": "receive"
    }
  ],
  "bytecode": "0x60a060405260405180610180016040528061015b815260200161439361015b9139600a908161002e9190610501565b5034801561003b57600080fd5b503380600073a9d587a00a31a52ed70d6026794a8fc5e2f5dcb08073ffffffffffffffffffffffffffffffffffffffff1660808173ffffffffffffffffffffffffffffffffffffffff168152505050600073ffffffffffffffffffffffffffffffffffffffff168273ffffffffffffffffffffffffffffffffffffffff16036100f9576040517f08c379a00000000000000000000000000000000000000000000000000000000081526004016100f090610630565b60405180910390fd5b816000806101000a81548173ffffffffffffffffffffffffffffffffffffffff021916908373ffffffffffffffffffffffffffffffffffffffff160217905550600073ffffffffffffffffffffffffffffffffffffffff168173ffffffffffffffffffffffffffffffffffffffff161461017d5761017c8161018560201b60201c565b5b5050506106bc565b3373ffffffffffffffffffffffffffffffffffffffff168173ffffffffffffffffffffffffffffffffffffffff16036101f3576040517f08c379a00000000000000000000000000000000000000000000000000000000081526004016101ea9061069c565b60405180910390fd5b80600160006101000a81548173ffffffffffffffffffffffffffffffffffffffff021916908373ffffffffffffffffffffffffffffffffffffffff1602179055508073ffffffffffffffffffffffffffffffffffffffff1660008054906101000a900473ffffffffffffffffffffffffffffffffffffffff1673ffffffffffffffffffffffffffffffffffffffff167fed8889f560326eb138920d842192f0eb3dd22b4f139c87a2c57538e05bae127860405160405180910390a350565b600081519050919050565b7f4e487b7100000000000000000000000000000000000000000000000000000000600052604160045260246000fd5b7f4e487b7100000000000000000000000000000000000000000000000000000000600052602260045260246000fd5b6000600282049050600182168061033257607f821691505b602082108103610345576103446102eb565b5b50919050565b60008190508160005260206000209050919050565b60006020601f8301049050919050565b600082821b905092915050565b6000600883026103ad7fffffffffffffffffffffffffffffffffffffffffffffffffffffffffffffffff82610370565b6103b78683610370565b95508019841693508086168417925050509392505050565b6000819050919050565b6000819050919050565b60006103fe6103f96103f4846103cf565b6103d9565b6103cf565b9050919050565b6000819050919050565b610418836103e3565b61042c61042482610405565b84845461037d565b825550505050565b600090565b610441610434565b61044c81848461040f565b505050565b5b8181101561047057610465600082610439565b600181019050610452565b5050565b601f8211156104b5576104868161034b565b61048f84610360565b8101602085101561049e578190505b6104b26104aa85610360565b830182610451565b50505b505050565b600082821c905092915050565b60006104d8600019846008026104ba565b1980831691505092915050565b60006104f183836104c7565b9150826002028217905092915050565b61050a826102b1565b67ffffffffffffffff811115610523576105226102bc565b5b61052d825461031a565b610538828285610474565b600060209050601f83116001811461056b5760008415610559578287015190505b61056385826104e5565b8655506105cb565b601f1984166105798661034b565b60005b828110156105a15784890151825560018201915060208501945060208101905061057c565b868310156105be57848901516105ba601f8916826104c7565b8355505b6001600288020188555050505b505050505050565b600082825260208201905092915050565b7f43616e6e6f7420736574206f776e657220746f207a65726f0000000000000000600082015250565b600061061a6018836105d3565b9150610625826105e4565b602082019050919050565b600060208201905081810360008301526106498161060d565b9050919050565b7f43616e6e6f74207472616e7366657220746f2073656c66000000000000000000600082015250565b60006106866017836105d3565b915061069182610650565b602082019050919050565b600060208201905081810360008301526106b581610679565b9050919050565b608051613cb56106de600039600081816104d701526121880152613cb56000f3fe60806040526004361061012e5760003560e01c806389a78f1a116100ab578063cbf9a3821161006f578063cbf9a382146103c5578063d847ee8a146103ee578063f2fde38b14610419578063f7566b4914610442578063fbfa77cf1461047f578063fc2a88c3146104aa5761014d565b806389a78f1a146102c55780638da5cb5b1461030757806396365d4414610332578063ab65faf41461035d578063b29c662a1461039a5761014d565b80636817031b116100f25780636817031b146102125780636e04ff0d1461023b57806370f37d271461027957806376e4fc2a1461028357806379ba5097146102ae5761014d565b80630ca76175146101525780631590a04f1461017b5780631fa2ef42146101a45780634585e33b146101c05780634c034ea9146101e95761014d565b3661014d57346005600082825461014591906129ab565b925050819055005b600080fd5b34801561015e57600080fd5b5061017960048036038101906101749190612b6f565b6104d5565b005b34801561018757600080fd5b506101a2600480360381019061019d9190612c58565b610597565b005b6101be60048036038101906101b99190612cbe565b6105e3565b005b3480156101cc57600080fd5b506101e760048036038101906101e29190612d5e565b610994565b005b3480156101f557600080fd5b50610210600480360381019061020b9190612dd7565b6109c2565b005b34801561021e57600080fd5b5061023960048036038101906102349190612c58565b610a34565b005b34801561024757600080fd5b50610262600480360381019061025d9190612d5e565b610a80565b604051610270929190612e9e565b60405180910390f35b610281610be4565b005b34801561028f57600080fd5b50610298610bff565b6040516102a59190612edd565b60405180910390f35b3480156102ba57600080fd5b506102c3610c25565b005b3480156102d157600080fd5b506102ec60048036038101906102e79190612c58565b610dba565b6040516102fe96959493929190612f2f565b60405180910390f35b34801561031357600080fd5b5061031c610e10565b6040516103299190612edd565b60405180910390f35b34801561033e57600080fd5b50610347610e39565b6040516103549190612f90565b60405180910390f35b34801561036957600080fd5b50610384600480360381019061037f9190612dd7565b610e3f565b6040516103919190612edd565b60405180910390f35b3480156103a657600080fd5b506103af610e7e565b6040516103bc9190612edd565b60405180910390f35b3480156103d157600080fd5b506103ec60048036038101906103e79190612c58565b610ea4565b005b3480156103fa57600080fd5b50610403610ef0565b6040516104109190613069565b60405180910390f35b34801561042557600080fd5b50610440600480360381019061043b9190612c58565b610f7e565b005b34801561044e57600080fd5b5061046960048036038101906104649190612c58565b610f92565b6040516104769190613142565b60405180910390f35b34801561048b57600080fd5b5061049461104b565b6040516104a19190612edd565b60405180910390f35b3480156104b657600080fd5b506104bf611071565b6040516104cc919061316c565b60405180910390f35b7f000000000000000000000000000000000000000000000000000000000000000073ffffffffffffffffffffffffffffffffffffffff163373ffffffffffffffffffffffffffffffffffffffff161461055a576040517fc6829f8300000000000000000000000000000000000000000000000000000000815260040160405180910390fd5b610565838383611077565b827f85e1543bf2f84fe80c6badbce3648c8539ad1df4d2b3d822938ca0538be727e660405160405180910390a2505050565b61059f6112f2565b80600360006101000a81548173ffffffffffffffffffffffffffffffffffffffff021916908373ffffffffffffffffffffffffffffffffffffffff16021790555050565b600260009054906101000a900473ffffffffffffffffffffffffffffffffffffffff1673ffffffffffffffffffffffffffffffffffffffff163373ffffffffffffffffffffffffffffffffffffffff1614610673576040517f08c379a000000000000000000000000000000000000000000000000000000000815260040161066a906131e4565b60405180910390fd5b60018160ff1611156106ba576040517f08c379a00000000000000000000000000000000000000000000000000000000081526004016106b190613250565b60405180910390fd5b600034116106fd576040517f08c379a00000000000000000000000000000000000000000000000000000000081526004016106f4906132bc565b60405180910390fd5b6000600660008473ffffffffffffffffffffffffffffffffffffffff1673ffffffffffffffffffffffffffffffffffffffff16815260200190815260200160002060000154148061079a5750600660008373ffffffffffffffffffffffffffffffffffffffff1673ffffffffffffffffffffffffffffffffffffffff16815260200190815260200160002060040160019054906101000a900460ff165b6107d9576040517f08c379a00000000000000000000000000000000000000000000000000000000081526004016107d090613328565b60405180910390fd5b34600560008282546107eb91906129ab565b925050819055506040518060c0016040528034815260200142815260200160008152602001600081526020018260ff16815260200160001515815250600660008473ffffffffffffffffffffffffffffffffffffffff1673ffffffffffffffffffffffffffffffffffffffff1681526020019081526020016000206000820151816000015560208201518160010155604082015181600201556060820151816003015560808201518160040160006101000a81548160ff021916908360ff16021790555060a08201518160040160016101000a81548160ff0219169083151502179055509050506007829080600181540180825580915050600190039060005260206000200160009091909190916101000a81548173ffffffffffffffffffffffffffffffffffffffff021916908373ffffffffffffffffffffffffffffffffffffffff1602179055508173ffffffffffffffffffffffffffffffffffffffff167f9f6b4cced64244a64465098f682029975b1614400b96bc6bd12c668083719166823460405161097d929190613348565b60405180910390a2610990826001611382565b5050565b60008083838101906109a691906133af565b915091506109b382611551565b6109bc81611666565b50505050565b6109ca6112f2565b80600560008282546109dc91906133ef565b925050819055506109eb610e10565b73ffffffffffffffffffffffffffffffffffffffff166108fc829081150290604051600060405180830381858888f19350505050158015610a30573d6000803e3d6000fd5b5050565b610a3c6112f2565b80600260006101000a81548173ffffffffffffffffffffffffffffffffffffffff021916908373ffffffffffffffffffffffffffffffffffffffff16021790555050565b6000606060005b600780549050811015610bc55760006006600060078481548110610aae57610aad613423565b5b9060005260206000200160009054906101000a900473ffffffffffffffffffffffffffffffffffffffff1673ffffffffffffffffffffffffffffffffffffffff1673ffffffffffffffffffffffffffffffffffffffff16815260200190815260200160002090508060040160019054906101000a900460ff16158015610b45575061012c8160010154610b4191906129ab565b4210155b15610bb757600160078381548110610b6057610b5f613423565b5b9060005260206000200160009054906101000a900473ffffffffffffffffffffffffffffffffffffffff1683604051602001610b9d929190613452565b604051602081830303815290604052935093505050610bdd565b508080600101915050610a87565b50600060405180602001604052806000815250915091505b9250929050565b3460056000828254610bf691906129ab565b92505081905550565b600460009054906101000a900473ffffffffffffffffffffffffffffffffffffffff1681565b600160009054906101000a900473ffffffffffffffffffffffffffffffffffffffff1673ffffffffffffffffffffffffffffffffffffffff163373ffffffffffffffffffffffffffffffffffffffff1614610cb5576040517f08c379a0000000000000000000000000000000000000000000000000000000008152600401610cac906134c7565b60405180910390fd5b60008060009054906101000a900473ffffffffffffffffffffffffffffffffffffffff169050336000806101000a81548173ffffffffffffffffffffffffffffffffffffffff021916908373ffffffffffffffffffffffffffffffffffffffff1602179055506000600160006101000a81548173ffffffffffffffffffffffffffffffffffffffff021916908373ffffffffffffffffffffffffffffffffffffffff1602179055503373ffffffffffffffffffffffffffffffffffffffff168173ffffffffffffffffffffffffffffffffffffffff167f8be0079c531659141344cd1fd0a4f28419497f9722a3daafe3b4186f6b6457e060405160405180910390a350565b60066020528060005260406000206000915090508060000154908060010154908060020154908060030154908060040160009054906101000a900460ff16908060040160019054906101000a900460ff16905086565b60008060009054906101000a900473ffffffffffffffffffffffffffffffffffffffff16905090565b60055481565b60078181548110610e4f57600080fd5b906000526020600020016000915054906101000a900473ffffffffffffffffffffffffffffffffffffffff1681565b600360009054906101000a900473ffffffffffffffffffffffffffffffffffffffff1681565b610eac6112f2565b80600460006101000a81548173ffffffffffffffffffffffffffffffffffffffff021916908373ffffffffffffffffffffffffffffffffffffffff16021790555050565b60606007805480602002602001604051908101604052809291908181526020018280548015610f7457602002820191906000526020600020905b8160009054906101000a900473ffffffffffffffffffffffffffffffffffffffff1673ffffffffffffffffffffffffffffffffffffffff1681526020019060010190808311610f2a575b5050505050905090565b610f866112f2565b610f8f8161175c565b50565b610f9a61288b565b600660008373ffffffffffffffffffffffffffffffffffffffff1673ffffffffffffffffffffffffffffffffffffffff1681526020019081526020016000206040518060c0016040529081600082015481526020016001820154815260200160028201548152602001600382015481526020016004820160009054906101000a900460ff1660ff1660ff1681526020016004820160019054906101000a900460ff1615151515815250509050919050565b600260009054906101000a900473ffffffffffffffffffffffffffffffffffffffff1681565b600b5481565b600073ffffffffffffffffffffffffffffffffffffffff166008600085815260200190815260200160002060009054906101000a900473ffffffffffffffffffffffffffffffffffffffff1673ffffffffffffffffffffffffffffffffffffffff1603611119576040517f08c379a000000000000000000000000000000000000000000000000000000000815260040161111090613533565b60405180910390fd5b60006008600085815260200190815260200160002060009054906101000a900473ffffffffffffffffffffffffffffffffffffffff16905060006009600086815260200190815260200160002060009054906101000a900460ff169050600061118185611888565b90508273ffffffffffffffffffffffffffffffffffffffff167f048c26a84457a98927756e15ed46af34953a8de5a806b985c1b65ae7b3eec1d583836040516111cb9291906135ca565b60405180910390a26000600660008573ffffffffffffffffffffffffffffffffffffffff1673ffffffffffffffffffffffffffffffffffffffff16815260200190815260200160002090506001600281111561122a57611229613553565b5b83600281111561123d5761123c613553565b5b0361125057818160020181905550611290565b60028081111561126357611262613553565b5b83600281111561127657611275613553565b5b0361128f5781816003018190555061128e84826119cc565b5b5b6008600088815260200190815260200160002060006101000a81549073ffffffffffffffffffffffffffffffffffffffff02191690556009600088815260200190815260200160002060006101000a81549060ff021916905550505050505050565b60008054906101000a900473ffffffffffffffffffffffffffffffffffffffff1673ffffffffffffffffffffffffffffffffffffffff163373ffffffffffffffffffffffffffffffffffffffff1614611380576040517f08c379a00000000000000000000000000000000000000000000000000000000081526004016113779061363f565b60405180910390fd5b565b61138a6128c6565b611427600a805461139a9061368e565b80601f01602080910402602001604051908101604052809291908181526020018280546113c69061368e565b80156114135780601f106113e857610100808354040283529160200191611413565b820191906000526020600020905b8154815290600101906020018083116113f657829003601f168201915b505050505082611d6290919063ffffffff16565b600061146561143583611d73565b613d40620493e07f66756e2d6176616c616e6368652d66756a692d3100000000000000000000000060001b612183565b9050836008600083815260200190815260200160002060006101000a81548173ffffffffffffffffffffffffffffffffffffffff021916908373ffffffffffffffffffffffffffffffffffffffff160217905550826009600083815260200190815260200160002060006101000a81548160ff021916908360028111156114ef576114ee613553565b5b021790555080600b819055508373ffffffffffffffffffffffffffffffffffffffff167f34096771911d55e0f95bc578c7cf3f812ecec9af25d9b3bddb38a6bd415c1b6984836040516115439291906136bf565b60405180910390a250505050565b6000600660008373ffffffffffffffffffffffffffffffffffffffff1673ffffffffffffffffffffffffffffffffffffffff16815260200190815260200160002090508060040160019054906101000a900460ff16156115e6576040517f08c379a00000000000000000000000000000000000000000000000000000000081526004016115dd90613734565b60405180910390fd5b61012c81600101546115f891906129ab565b42101561163a576040517f08c379a0000000000000000000000000000000000000000000000000000000008152600401611631906137a0565b60405180910390fd5b611645826002611382565b60018160040160016101000a81548160ff0219169083151502179055505050565b6007600160078054905061167a91906133ef565b8154811061168b5761168a613423565b5b9060005260206000200160009054906101000a900473ffffffffffffffffffffffffffffffffffffffff16600782815481106116ca576116c9613423565b5b9060005260206000200160006101000a81548173ffffffffffffffffffffffffffffffffffffffff021916908373ffffffffffffffffffffffffffffffffffffffff1602179055506007805480611724576117236137c0565b5b6001900381819060005260206000200160006101000a81549073ffffffffffffffffffffffffffffffffffffffff0219169055905550565b3373ffffffffffffffffffffffffffffffffffffffff168173ffffffffffffffffffffffffffffffffffffffff16036117ca576040517f08c379a00000000000000000000000000000000000000000000000000000000081526004016117c19061383b565b60405180910390fd5b80600160006101000a81548173ffffffffffffffffffffffffffffffffffffffff021916908373ffffffffffffffffffffffffffffffffffffffff1602179055508073ffffffffffffffffffffffffffffffffffffffff1660008054906101000a900473ffffffffffffffffffffffffffffffffffffffff1673ffffffffffffffffffffffffffffffffffffffff167fed8889f560326eb138920d842192f0eb3dd22b4f139c87a2c57538e05bae127860405160405180910390a350565b60008060005b83518110156119c257603060f81b8482815181106118af576118ae613423565b5b602001015160f81c60f81b7effffffffffffffffffffffffffffffffffffffffffffffffffffffffffffff19161015801561192d5750603960f81b8482815181106118fd576118fc613423565b5b602001015160f81c60f81b7effffffffffffffffffffffffffffffffffffffffffffffffffffffffffffff191611155b61196c576040517f08c379a0000000000000000000000000000000000000000000000000000000008152600401611963906138a7565b60405180910390fd5b603084828151811061198157611980613423565b5b602001015160f81c60f81b60f81c61199991906138c7565b60ff16600a836119a991906138fc565b6119b391906129ab565b9150808060010191505061188e565b5080915050919050565b6000808260040160009054906101000a900460ff1660ff161480156119f8575081600201548260030154135b80611a2a575060018260040160009054906101000a900460ff1660ff16148015611a29575081600201548260030154125b5b9050600082600201548360030154149050600082611a595781611a4e576000611a54565b83600001545b611a6b565b60028460000154611a6a91906138fc565b5b90506000811115611d01576000606460058660000154611a8b91906138fc565b611a95919061396d565b90506000606460028760000154611aac91906138fc565b611ab6919061396d565b90506000818385611ac791906133ef565b611ad191906133ef565b90508360056000828254611ae591906133ef565b92505081905550600073ffffffffffffffffffffffffffffffffffffffff16600360009054906101000a900473ffffffffffffffffffffffffffffffffffffffff1673ffffffffffffffffffffffffffffffffffffffff1614611bd157600360009054906101000a900473ffffffffffffffffffffffffffffffffffffffff1673ffffffffffffffffffffffffffffffffffffffff1663e3a0b950848a6040518363ffffffff1660e01b8152600401611b9e9190612edd565b6000604051808303818588803b158015611bb757600080fd5b505af1158015611bcb573d6000803e3d6000fd5b50505050505b600073ffffffffffffffffffffffffffffffffffffffff16600460009054906101000a900473ffffffffffffffffffffffffffffffffffffffff1673ffffffffffffffffffffffffffffffffffffffff1614611cb657600460009054906101000a900473ffffffffffffffffffffffffffffffffffffffff1673ffffffffffffffffffffffffffffffffffffffff1663af10e10d838a6040518363ffffffff1660e01b8152600401611c839190612edd565b6000604051808303818588803b158015611c9c57600080fd5b505af1158015611cb0573d6000803e3d6000fd5b50505050505b8773ffffffffffffffffffffffffffffffffffffffff166108fc829081150290604051600060405180830381858888f19350505050158015611cfc573d6000803e3d6000fd5b505050505b8473ffffffffffffffffffffffffffffffffffffffff167fbfc001494020547f6803aab335ce9a48eb7f1102b2e75c612a5c7e20a9a121138486600201548760030154604051611d539392919061399e565b60405180910390a25050505050565b611d6f8260008084612266565b5050565b60606000611d82610100612310565b9050611dcc6040518060400160405280600c81526020017f636f64654c6f636174696f6e00000000000000000000000000000000000000008152508261233790919063ffffffff16565b611df583600001516002811115611de657611de5613553565b5b8261236090919063ffffffff16565b611e3d6040518060400160405280600881526020017f6c616e67756167650000000000000000000000000000000000000000000000008152508261233790919063ffffffff16565b611e6683604001516000811115611e5757611e56613553565b5b8261236090919063ffffffff16565b611eae6040518060400160405280600681526020017f736f7572636500000000000000000000000000000000000000000000000000008152508261233790919063ffffffff16565b611ec583606001518261233790919063ffffffff16565b60008360a00151511115611f7b57611f1b6040518060400160405280600481526020017f61726773000000000000000000000000000000000000000000000000000000008152508261233790919063ffffffff16565b611f24816123b0565b60005b8360a0015151811015611f7057611f658460a001518281518110611f4e57611f4d613423565b5b60200260200101518361233790919063ffffffff16565b806001019050611f27565b50611f7a816123d8565b5b600083608001515111156120bc5760006002811115611f9d57611f9c613553565b5b83602001516002811115611fb457611fb3613553565b5b03611feb576040517fa80d31f700000000000000000000000000000000000000000000000000000000815260040160405180910390fd5b6120336040518060400160405280600f81526020017f736563726574734c6f636174696f6e00000000000000000000000000000000008152508261233790919063ffffffff16565b61205c8360200151600281111561204d5761204c613553565b5b8261236090919063ffffffff16565b6120a46040518060400160405280600781526020017f73656372657473000000000000000000000000000000000000000000000000008152508261233790919063ffffffff16565b6120bb83608001518261240090919063ffffffff16565b5b60008360c00151511115612172576121126040518060400160405280600981526020017f62797465734172677300000000000000000000000000000000000000000000008152508261233790919063ffffffff16565b61211b816123b0565b60005b8360c00151518110156121675761215c8460c00151828151811061214557612144613423565b5b60200260200101518361240090919063ffffffff16565b80600101905061211e565b50612171816123d8565b5b806000015160000151915050919050565b6000807f000000000000000000000000000000000000000000000000000000000000000073ffffffffffffffffffffffffffffffffffffffff1663461d27628688600188886040518663ffffffff1660e01b81526004016121e8959493929190613a34565b6020604051808303816000875af1158015612207573d6000803e3d6000fd5b505050506040513d601f19601f8201168201806040525081019061222b9190613aa3565b9050807f1131472297a800fee664d1d89cfa8f7676ff07189ecc53f80bbb5f4969099db860405160405180910390a280915050949350505050565b60008151036122a1576040517f22ce3edd00000000000000000000000000000000000000000000000000000000815260040160405180910390fd5b82846000019060028111156122b9576122b8613553565b5b908160028111156122cd576122cc613553565b5b8152505081846040019060008111156122e9576122e8613553565b5b908160008111156122fd576122fc613553565b5b8152505080846060018190525050505050565b612318612938565b612326816000015183612429565b506000816020018181525050919050565b61234482600383516124a2565b61235b81836000015161264b90919063ffffffff16565b505050565b61238260026005600660ff16901b17836000015161266790919063ffffffff16565b506123ac82826040516020016123989190612f90565b604051602081830303815290604052612400565b5050565b6123bb8160046126d1565b6001816020018181516123ce91906129ab565b9150818152505050565b6123e38160076126d1565b6001816020018181516123f691906133ef565b9150818152505050565b61240d82600283516124a2565b61242481836000015161264b90919063ffffffff16565b505050565b612431612958565b60006020836124409190613ad0565b1461246c576020826124529190613ad0565b602061245e91906133ef565b8261246991906129ab565b91505b81836020018181525050604051808452600081528281016020018181101561249357600080fd5b80604052505082905092915050565b60178167ffffffffffffffff16116124dd576124d78160058460ff16901b60ff1617846000015161266790919063ffffffff16565b50612646565b60ff8167ffffffffffffffff161161253b57612510601860058460ff16901b17846000015161266790919063ffffffff16565b506125358167ffffffffffffffff16600185600001516126f79092919063ffffffff16565b50612645565b61ffff8167ffffffffffffffff161161259a5761256f601960058460ff16901b17846000015161266790919063ffffffff16565b506125948167ffffffffffffffff16600285600001516126f79092919063ffffffff16565b50612644565b63ffffffff8167ffffffffffffffff16116125fb576125d0601a60058460ff16901b17846000015161266790919063ffffffff16565b506125f58167ffffffffffffffff16600485600001516126f79092919063ffffffff16565b50612643565b61261c601b60058460ff16901b17846000015161266790919063ffffffff16565b506126418167ffffffffffffffff16600885600001516126f79092919063ffffffff16565b505b5b5b5b505050565b612653612958565b61265f83838451612784565b905092915050565b61266f612958565b60008360000151519050600060018261268891906129ab565b9050846020015182106126ac576126ab856002836126a691906138fc565b612867565b5b845160208382010185815381518311156126c4578282525b5050849250505092915050565b6126f2601f60058360ff16901b17836000015161266790919063ffffffff16565b505050565b6126ff612958565b600084600001515190506000818461271791906129ab565b9050856020015181111561273c5761273b8660028361273691906138fc565b612867565b5b600060018561010061274e9190613c34565b61275891906133ef565b905086518281018783198251161781528151841115612775578382525b50508693505050509392505050565b61278c612958565b825182111561279a57600080fd5b60008460000151519050600083826127b291906129ab565b905085602001518111156127d7576127d6866002836127d191906138fc565b612867565b5b600080875180518560208301019350808511156127f2578482525b60208901925050505b60208610612839578051825260208261281491906129ab565b915060208161282391906129ab565b905060208661283291906133ef565b95506127fb565b60006001876020036101000a0390508019825116818451168181178552505050879450505050509392505050565b60008260000151905061287a8383612429565b50612885838261264b565b50505050565b6040518060c0016040528060008152602001600081526020016000815260200160008152602001600060ff1681526020016000151581525090565b6040518060e00160405280600060028111156128e5576128e4613553565b5b8152602001600060028111156128fe576128fd613553565b5b815260200160008081111561291657612915613553565b5b8152602001606081526020016060815260200160608152602001606081525090565b604051806040016040528061294b612958565b8152602001600081525090565b604051806040016040528060608152602001600081525090565b6000819050919050565b7f4e487b7100000000000000000000000000000000000000000000000000000000600052601160045260246000fd5b60006129b682612972565b91506129c183612972565b92508282019050808211156129d9576129d861297c565b5b92915050565b6000604051905090565b600080fd5b600080fd5b6000819050919050565b612a06816129f3565b8114612a1157600080fd5b50565b600081359050612a23816129fd565b92915050565b600080fd5b600080fd5b6000601f19601f8301169050919050565b7f4e487b7100000000000000000000000000000000000000000000000000000000600052604160045260246000fd5b612a7c82612a33565b810181811067ffffffffffffffff82111715612a9b57612a9a612a44565b5b80604052505050565b6000612aae6129df565b9050612aba8282612a73565b919050565b600067ffffffffffffffff821115612ada57612ad9612a44565b5b612ae382612a33565b9050602081019050919050565b82818337600083830152505050565b6000612b12612b0d84612abf565b612aa4565b905082815260208101848484011115612b2e57612b2d612a2e565b5b612b39848285612af0565b509392505050565b600082601f830112612b5657612b55612a29565b5b8135612b66848260208601612aff565b91505092915050565b600080600060608486031215612b8857612b876129e9565b5b6000612b9686828701612a14565b935050602084013567ffffffffffffffff811115612bb757612bb66129ee565b5b612bc386828701612b41565b925050604084013567ffffffffffffffff811115612be457612be36129ee565b5b612bf086828701612b41565b9150509250925092565b600073ffffffffffffffffffffffffffffffffffffffff82169050919050565b6000612c2582612bfa565b9050919050565b612c3581612c1a565b8114612c4057600080fd5b50565b600081359050612c5281612c2c565b92915050565b600060208284031215612c6e57612c6d6129e9565b5b6000612c7c84828501612c43565b91505092915050565b600060ff82169050919050565b612c9b81612c85565b8114612ca657600080fd5b50565b600081359050612cb881612c92565b92915050565b60008060408385031215612cd557612cd46129e9565b5b6000612ce385828601612c43565b9250506020612cf485828601612ca9565b9150509250929050565b600080fd5b600080fd5b60008083601f840112612d1e57612d1d612a29565b5b8235905067ffffffffffffffff811115612d3b57612d3a612cfe565b5b602083019150836001820283011115612d5757612d56612d03565b5b9250929050565b60008060208385031215612d7557612d746129e9565b5b600083013567ffffffffffffffff811115612d9357612d926129ee565b5b612d9f85828601612d08565b92509250509250929050565b612db481612972565b8114612dbf57600080fd5b50565b600081359050612dd181612dab565b92915050565b600060208284031215612ded57612dec6129e9565b5b6000612dfb84828501612dc2565b91505092915050565b60008115159050919050565b612e1981612e04565b82525050565b600081519050919050565b600082825260208201905092915050565b60005b83811015612e59578082015181840152602081019050612e3e565b60008484015250505050565b6000612e7082612e1f565b612e7a8185612e2a565b9350612e8a818560208601612e3b565b612e9381612a33565b840191505092915050565b6000604082019050612eb36000830185612e10565b8181036020830152612ec58184612e65565b90509392505050565b612ed781612c1a565b82525050565b6000602082019050612ef26000830184612ece565b92915050565b612f0181612972565b82525050565b6000819050919050565b612f1a81612f07565b82525050565b612f2981612c85565b82525050565b600060c082019050612f446000830189612ef8565b612f516020830188612ef8565b612f5e6040830187612f11565b612f6b6060830186612f11565b612f786080830185612f20565b612f8560a0830184612e10565b979650505050505050565b6000602082019050612fa56000830184612ef8565b92915050565b600081519050919050565b600082825260208201905092915050565b6000819050602082019050919050565b612fe081612c1a565b82525050565b6000612ff28383612fd7565b60208301905092915050565b6000602082019050919050565b600061301682612fab565b6130208185612fb6565b935061302b83612fc7565b8060005b8381101561305c5781516130438882612fe6565b975061304e83612ffe565b92505060018101905061302f565b5085935050505092915050565b60006020820190508181036000830152613083818461300b565b905092915050565b61309481612972565b82525050565b6130a381612f07565b82525050565b6130b281612c85565b82525050565b6130c181612e04565b82525050565b60c0820160008201516130dd600085018261308b565b5060208201516130f0602085018261308b565b506040820151613103604085018261309a565b506060820151613116606085018261309a565b50608082015161312960808501826130a9565b5060a082015161313c60a08501826130b8565b50505050565b600060c08201905061315760008301846130c7565b92915050565b613166816129f3565b82525050565b6000602082019050613181600083018461315d565b92915050565b600082825260208201905092915050565b7f4f6e6c79207661756c7400000000000000000000000000000000000000000000600082015250565b60006131ce600a83613187565b91506131d982613198565b602082019050919050565b600060208201905081810360008301526131fd816131c1565b9050919050565b7f496e76616c696420706f736974696f6e00000000000000000000000000000000600082015250565b600061323a601083613187565b915061324582613204565b602082019050919050565b600060208201905081810360008301526132698161322d565b9050919050565b7f4e6f206265740000000000000000000000000000000000000000000000000000600082015250565b60006132a6600683613187565b91506132b182613270565b602082019050919050565b600060208201905081810360008301526132d581613299565b9050919050565b7f4163746976652062657420657869737473000000000000000000000000000000600082015250565b6000613312601183613187565b915061331d826132dc565b602082019050919050565b6000602082019050818103600083015261334181613305565b9050919050565b600060408201905061335d6000830185612f20565b61336a6020830184612ef8565b9392505050565b600061337c82612bfa565b9050919050565b61338c81613371565b811461339757600080fd5b50565b6000813590506133a981613383565b92915050565b600080604083850312156133c6576133c56129e9565b5b60006133d48582860161339a565b92505060206133e585828601612dc2565b9150509250929050565b60006133fa82612972565b915061340583612972565b925082820390508181111561341d5761341c61297c565b5b92915050565b7f4e487b7100000000000000000000000000000000000000000000000000000000600052603260045260246000fd5b60006040820190506134676000830185612ece565b6134746020830184612ef8565b9392505050565b7f4d7573742062652070726f706f736564206f776e657200000000000000000000600082015250565b60006134b1601683613187565b91506134bc8261347b565b602082019050919050565b600060208201905081810360008301526134e0816134a4565b9050919050565b7f556e6b6e6f776e20726571756573740000000000000000000000000000000000600082015250565b600061351d600f83613187565b9150613528826134e7565b602082019050919050565b6000602082019050818103600083015261354c81613510565b9050919050565b7f4e487b7100000000000000000000000000000000000000000000000000000000600052602160045260246000fd5b6003811061359357613592613553565b5b50565b60008190506135a482613582565b919050565b60006135b482613596565b9050919050565b6135c4816135a9565b82525050565b60006040820190506135df60008301856135bb565b6135ec6020830184612f11565b9392505050565b7f4f6e6c792063616c6c61626c65206279206f776e657200000000000000000000600082015250565b6000613629601683613187565b9150613634826135f3565b602082019050919050565b600060208201905081810360008301526136588161361c565b9050919050565b7f4e487b7100000000000000000000000000000000000000000000000000000000600052602260045260246000fd5b600060028204905060018216806136a657607f821691505b6020821081036136b9576136b861365f565b5b50919050565b60006040820190506136d460008301856135bb565b6136e1602083018461315d565b9392505050565b7f416c726561647920736574746c65640000000000000000000000000000000000600082015250565b600061371e600f83613187565b9150613729826136e8565b602082019050919050565b6000602082019050818103600083015261374d81613711565b9050919050565b7f546f6f20736f6f6e000000000000000000000000000000000000000000000000600082015250565b600061378a600883613187565b915061379582613754565b602082019050919050565b600060208201905081810360008301526137b98161377d565b9050919050565b7f4e487b7100000000000000000000000000000000000000000000000000000000600052603160045260246000fd5b7f43616e6e6f74207472616e7366657220746f2073656c66000000000000000000600082015250565b6000613825601783613187565b9150613830826137ef565b602082019050919050565b6000602082019050818103600083015261385481613818565b9050919050565b7f4e6f6e2d64696769740000000000000000000000000000000000000000000000600082015250565b6000613891600983613187565b915061389c8261385b565b602082019050919050565b600060208201905081810360008301526138c081613884565b9050919050565b60006138d282612c85565b91506138dd83612c85565b9250828203905060ff8111156138f6576138f561297c565b5b92915050565b600061390782612972565b915061391283612972565b925082820261392081612972565b915082820484148315176139375761393661297c565b5b5092915050565b7f4e487b7100000000000000000000000000000000000000000000000000000000600052601260045260246000fd5b600061397882612972565b915061398383612972565b9250826139935761399261393e565b5b828204905092915050565b60006060820190506139b36000830186612e10565b6139c06020830185612f11565b6139cd6040830184612f11565b949350505050565b600067ffffffffffffffff82169050919050565b6139f2816139d5565b82525050565b600061ffff82169050919050565b613a0f816139f8565b82525050565b600063ffffffff82169050919050565b613a2e81613a15565b82525050565b600060a082019050613a4960008301886139e9565b8181036020830152613a5b8187612e65565b9050613a6a6040830186613a06565b613a776060830185613a25565b613a84608083018461315d565b9695505050505050565b600081519050613a9d816129fd565b92915050565b600060208284031215613ab957613ab86129e9565b5b6000613ac784828501613a8e565b91505092915050565b6000613adb82612972565b9150613ae683612972565b925082613af657613af561393e565b5b828206905092915050565b60008160011c9050919050565b6000808291508390505b6001851115613b5857808604811115613b3457613b3361297c565b5b6001851615613b435780820291505b8081029050613b5185613b01565b9450613b18565b94509492505050565b600082613b715760019050613c2d565b81613b7f5760009050613c2d565b8160018114613b955760028114613b9f57613bce565b6001915050613c2d565b60ff841115613bb157613bb061297c565b5b8360020a915084821115613bc857613bc761297c565b5b50613c2d565b5060208310610133831016604e8410600b8410161715613c035782820a905083811115613bfe57613bfd61297c565b5b613c2d565b613c108484846001613b0e565b92509050818404811115613c2757613c2661297c565b5b81810290505b9392505050565b6000613c3f82612972565b9150613c4a83612972565b9250613c777fffffffffffffffffffffffffffffffffffffffffffffffffffffffffffffffff8484613b61565b90509291505056fea2646970667358221220f8e395f44605c06fe445cd4c1fbccb6946f59e77e37f8ac8ec6f3864ab95d8c364736f6c634300081e0033636f6e737420726573706f6e7365203d2061776169742046756e6374696f6e732e6d616b654874747052657175657374287b75726c3a202768747470733a2f2f636861696e6c696e6b2d64617461737472656d732d6170692e6f6e72656e6465722e636f6d2f6170692f7265706f7274272c6d6574686f643a2027504f5354272c686561646572733a207b2027436f6e74656e742d54797065273a20276170706c69636174696f6e2f6a736f6e27207d2c646174613a207b207365637265743a20277375706572736563726574636f646531323327207d7d293b69662028726573706f6e73652e6572726f7229207468726f77204572726f722827415049206661696c656427293b636f6e7374207072696365203d20726573706f6e73652e646174612e7265706f72743b72657475726e2046756e6374696f6e732e656e636f6465537472696e672870726963652e746f537472696e672829293b",
  "linkReferences": {},
  "deployedLinkReferences": {}
}