{
  "_format": "hh-sol-artifact-1",
  "contractName": "BTCBetting",
  "sourceName": "contracts/BettingNew.sol",
  "abi": [
    {
      "inputs": [],
      "stateMutability": "nonpayable",
      "type": "constructor"
    },
    {
      "inputs": [],
      "name": "EmptySource",
      "type": "error"
    },
    {
      "inputs": [],
      "name": "NoInlineSecrets",
      "type": "error"
    },
    {
      "inputs": [],
      "name": "OnlyRouterCanFulfill",
      "type": "error"
    },
    {
      "anonymous": false,
      "inputs": [
        {
          "indexed": true,
          "internalType": "address",
          "name": "user",
          "type": "address"
        },
        {
          "indexed": false,
          "internalType": "uint8",
          "name": "position",
          "type": "uint8"
        },
        {
          "indexed": false,
          "internalType": "uint256",
          "name": "amount",
          "type": "uint256"
        }
      ],
      "name": "BetPlaced",
      "type": "event"
    },
    {
      "anonymous": false,
      "inputs": [
        {
          "indexed": true,
          "internalType": "address",
          "name": "user",
          "type": "address"
        },
        {
          "indexed": false,
          "internalType": "bool",
          "name": "won",
          "type": "bool"
        },
        {
          "indexed": false,
          "internalType": "int256",
          "name": "startPrice",
          "type": "int256"
        },
        {
          "indexed": false,
          "internalType": "int256",
          "name": "endPrice",
          "type": "int256"
        }
      ],
      "name": "BetSettled",
      "type": "event"
    },
    {
      "anonymous": false,
      "inputs": [
        {
          "indexed": true,
          "internalType": "address",
          "name": "from",
          "type": "address"
        },
        {
          "indexed": true,
          "internalType": "address",
          "name": "to",
          "type": "address"
        }
      ],
      "name": "OwnershipTransferRequested",
      "type": "event"
    },
    {
      "anonymous": false,
      "inputs": [
        {
          "indexed": true,
          "internalType": "address",
          "name": "from",
          "type": "address"
        },
        {
          "indexed": true,
          "internalType": "address",
          "name": "to",
          "type": "address"
        }
      ],
      "name": "OwnershipTransferred",
      "type": "event"
    },
    {
      "anonymous": false,
      "inputs": [
        {
          "indexed": true,
          "internalType": "address",
          "name": "user",
          "type": "address"
        },
        {
          "indexed": false,
          "internalType": "enum BTCBetting.PriceType",
          "name": "priceType",
          "type": "uint8"
        },
        {
          "indexed": false,
          "internalType": "int256",
          "name": "price",
          "type": "int256"
        }
      ],
      "name": "PriceFulfilled",
      "type": "event"
    },
    {
      "anonymous": false,
      "inputs": [
        {
          "indexed": true,
          "internalType": "address",
          "name": "user",
          "type": "address"
        },
        {
          "indexed": false,
          "internalType": "enum BTCBetting.PriceType",
          "name": "priceType",
          "type": "uint8"
        },
        {
          "indexed": false,
          "internalType": "bytes32",
          "name": "requestId",
          "type": "bytes32"
        }
      ],
      "name": "PriceRequested",
      "type": "event"
    },
    {
      "anonymous": false,
      "inputs": [
        {
          "indexed": true,
          "internalType": "bytes32",
          "name": "id",
          "type": "bytes32"
        }
      ],
      "name": "RequestFulfilled",
      "type": "event"
    },
    {
      "anonymous": false,
      "inputs": [
        {
          "indexed": true,
          "internalType": "bytes32",
          "name": "id",
          "type": "bytes32"
        }
      ],
      "name": "RequestSent",
      "type": "event"
    },
    {
      "inputs": [],
      "name": "acceptOwnership",
      "outputs": [],
      "stateMutability": "nonpayable",
      "type": "function"
    },
    {
      "inputs": [
        {
          "internalType": "uint256",
          "name": "",
          "type": "uint256"
        }
      ],
      "name": "activeBettors",
      "outputs": [
        {
          "internalType": "address",
          "name": "",
          "type": "address"
        }
      ],
      "stateMutability": "view",
      "type": "function"
    },
    {
      "inputs": [
        {
          "internalType": "address",
          "name": "",
          "type": "address"
        }
      ],
      "name": "bets",
      "outputs": [
        {
          "internalType": "uint256",
          "name": "amount",
          "type": "uint256"
        },
        {
          "internalType": "uint256",
          "name": "startTime",
          "type": "uint256"
        },
        {
          "internalType": "int256",
          "name": "startPrice",
          "type": "int256"
        },
        {
          "internalType": "int256",
          "name": "endPrice",
          "type": "int256"
        },
        {
          "internalType": "uint8",
          "name": "position",
          "type": "uint8"
        },
        {
          "internalType": "bool",
          "name": "settled",
          "type": "bool"
        }
      ],
      "stateMutability": "view",
      "type": "function"
    },
    {
      "inputs": [],
      "name": "carbonCreditContract",
      "outputs": [
        {
          "internalType": "address",
          "name": "",
          "type": "address"
        }
      ],
      "stateMutability": "view",
      "type": "function"
    },
    {
      "inputs": [
        {
          "internalType": "bytes",
          "name": "",
          "type": "bytes"
        }
      ],
      "name": "checkUpkeep",
      "outputs": [
        {
          "internalType": "bool",
          "name": "upkeepNeeded",
          "type": "bool"
        },
        {
          "internalType": "bytes",
          "name": "performData",
          "type": "bytes"
        }
      ],
      "stateMutability": "view",
      "type": "function"
    },
    {
      "inputs": [],
      "name": "fundPool",
      "outputs": [],
      "stateMutability": "payable",
      "type": "function"
    },
    {
      "inputs": [],
      "name": "getActiveBettors",
      "outputs": [
        {
          "internalType": "address[]",
          "name": "",
          "type": "address[]"
        }
      ],
      "stateMutability": "view",
      "type": "function"
    },
    {
      "inputs": [
        {
          "internalType": "address",
          "name": "user",
          "type": "address"
        }
      ],
      "name": "getBet",
      "outputs": [
        {
          "components": [
            {
              "internalType": "uint256",
              "name": "amount",
              "type": "uint256"
            },
            {
              "internalType": "uint256",
              "name": "startTime",
              "type": "uint256"
            },
            {
              "internalType": "int256",
              "name": "startPrice",
              "type": "int256"
            },
            {
              "internalType": "int256",
              "name": "endPrice",
              "type": "int256"
            },
            {
              "internalType": "uint8",
              "name": "position",
              "type": "uint8"
            },
            {
              "internalType": "bool",
              "name": "settled",
              "type": "bool"
            }
          ],
          "internalType": "struct BTCBetting.Bet",
          "name": "",
          "type": "tuple"
        }
      ],
      "stateMutability": "view",
      "type": "function"
    },
    {
      "inputs": [
        {
          "internalType": "bytes32",
          "name": "requestId",
          "type": "bytes32"
        },
        {
          "internalType": "bytes",
          "name": "response",
          "type": "bytes"
        },
        {
          "internalType": "bytes",
          "name": "err",
          "type": "bytes"
        }
      ],
      "name": "handleOracleFulfillment",
      "outputs": [],
      "stateMutability": "nonpayable",
      "type": "function"
    },
    {
      "inputs": [
        {
          "internalType": "address",
          "name": "_vault",
          "type": "address"
        },
        {
          "internalType": "address",
          "name": "_lottery",
          "type": "address"
        },
        {
          "internalType": "address",
          "name": "_carbon",
          "type": "address"
        }
      ],
      "name": "initializeContracts",
      "outputs": [],
      "stateMutability": "nonpayable",
      "type": "function"
    },
    {
      "inputs": [],
      "name": "lastRequestId",
      "outputs": [
        {
          "internalType": "bytes32",
          "name": "",
          "type": "bytes32"
        }
      ],
      "stateMutability": "view",
      "type": "function"
    },
    {
      "inputs": [],
      "name": "lotteryContract",
      "outputs": [
        {
          "internalType": "address",
          "name": "",
          "type": "address"
        }
      ],
      "stateMutability": "view",
      "type": "function"
    },
    {
      "inputs": [],
      "name": "owner",
      "outputs": [
        {
          "internalType": "address",
          "name": "",
          "type": "address"
        }
      ],
      "stateMutability": "view",
      "type": "function"
    },
    {
      "inputs": [
        {
          "internalType": "bytes",
          "name": "performData",
          "type": "bytes"
        }
      ],
      "name": "performUpkeep",
      "outputs": [],
      "stateMutability": "nonpayable",
      "type": "function"
    },
    {
      "inputs": [
        {
          "internalType": "address",
          "name": "user",
          "type": "address"
        },
        {
          "internalType": "uint8",
          "name": "position",
          "type": "uint8"
        },
        {
          "internalType": "uint256",
          "name": "amount",
          "type": "uint256"
        }
      ],
      "name": "placeBetFor",
      "outputs": [],
      "stateMutability": "nonpayable",
      "type": "function"
    },
    {
      "inputs": [],
      "name": "poolBalance",
      "outputs": [
        {
          "internalType": "uint256",
          "name": "",
          "type": "uint256"
        }
      ],
      "stateMutability": "view",
      "type": "function"
    },
    {
      "inputs": [
        {
          "internalType": "address",
          "name": "to",
          "type": "address"
        }
      ],
      "name": "transferOwnership",
      "outputs": [],
      "stateMutability": "nonpayable",
      "type": "function"
    },
    {
      "inputs": [],
      "name": "vault",
      "outputs": [
        {
          "internalType": "address",
          "name": "",
          "type": "address"
        }
      ],
      "stateMutability": "view",
      "type": "function"
    },
    {
      "inputs": [
        {
          "internalType": "uint256",
          "name": "amt",
          "type": "uint256"
        }
      ],
      "name": "withdrawPool",
      "outputs": [],
      "stateMutability": "nonpayable",
      "type": "function"
    },
    {
      "stateMutability": "payable",
      "type": "receive"
    }
  ],
  "bytecode": "0x60a060405260405180610180016040528061015b815260200161452b61015b9139600a908161002e9190610501565b5034801561003b57600080fd5b503380600073a9d587a00a31a52ed70d6026794a8fc5e2f5dcb08073ffffffffffffffffffffffffffffffffffffffff1660808173ffffffffffffffffffffffffffffffffffffffff168152505050600073ffffffffffffffffffffffffffffffffffffffff168273ffffffffffffffffffffffffffffffffffffffff16036100f9576040517f08c379a00000000000000000000000000000000000000000000000000000000081526004016100f090610630565b60405180910390fd5b816000806101000a81548173ffffffffffffffffffffffffffffffffffffffff021916908373ffffffffffffffffffffffffffffffffffffffff160217905550600073ffffffffffffffffffffffffffffffffffffffff168173ffffffffffffffffffffffffffffffffffffffff161461017d5761017c8161018560201b60201c565b5b5050506106bc565b3373ffffffffffffffffffffffffffffffffffffffff168173ffffffffffffffffffffffffffffffffffffffff16036101f3576040517f08c379a00000000000000000000000000000000000000000000000000000000081526004016101ea9061069c565b60405180910390fd5b80600160006101000a81548173ffffffffffffffffffffffffffffffffffffffff021916908373ffffffffffffffffffffffffffffffffffffffff1602179055508073ffffffffffffffffffffffffffffffffffffffff1660008054906101000a900473ffffffffffffffffffffffffffffffffffffffff1673ffffffffffffffffffffffffffffffffffffffff167fed8889f560326eb138920d842192f0eb3dd22b4f139c87a2c57538e05bae127860405160405180910390a350565b600081519050919050565b7f4e487b7100000000000000000000000000000000000000000000000000000000600052604160045260246000fd5b7f4e487b7100000000000000000000000000000000000000000000000000000000600052602260045260246000fd5b6000600282049050600182168061033257607f821691505b602082108103610345576103446102eb565b5b50919050565b60008190508160005260206000209050919050565b60006020601f8301049050919050565b600082821b905092915050565b6000600883026103ad7fffffffffffffffffffffffffffffffffffffffffffffffffffffffffffffffff82610370565b6103b78683610370565b95508019841693508086168417925050509392505050565b6000819050919050565b6000819050919050565b60006103fe6103f96103f4846103cf565b6103d9565b6103cf565b9050919050565b6000819050919050565b610418836103e3565b61042c61042482610405565b84845461037d565b825550505050565b600090565b610441610434565b61044c81848461040f565b505050565b5b8181101561047057610465600082610439565b600181019050610452565b5050565b601f8211156104b5576104868161034b565b61048f84610360565b8101602085101561049e578190505b6104b26104aa85610360565b830182610451565b50505b505050565b600082821c905092915050565b60006104d8600019846008026104ba565b1980831691505092915050565b60006104f183836104c7565b9150826002028217905092915050565b61050a826102b1565b67ffffffffffffffff811115610523576105226102bc565b5b61052d825461031a565b610538828285610474565b600060209050601f83116001811461056b5760008415610559578287015190505b61056385826104e5565b8655506105cb565b601f1984166105798661034b565b60005b828110156105a15784890151825560018201915060208501945060208101905061057c565b868310156105be57848901516105ba601f8916826104c7565b8355505b6001600288020188555050505b505050505050565b600082825260208201905092915050565b7f43616e6e6f7420736574206f776e657220746f207a65726f0000000000000000600082015250565b600061061a6018836105d3565b9150610625826105e4565b602082019050919050565b600060208201905081810360008301526106498161060d565b9050919050565b7f43616e6e6f74207472616e7366657220746f2073656c66000000000000000000600082015250565b60006106866017836105d3565b915061069182610650565b602082019050919050565b600060208201905081810360008301526106b581610679565b9050919050565b608051613e4d6106de6000396000818161047c01526121e20152613e4d6000f3fe6080604052600436106101185760003560e01c806389a78f1a116100a0578063d847ee8a11610064578063d847ee8a14610393578063f2fde38b146103be578063f7566b49146103e7578063fbfa77cf14610424578063fc2a88c31461044f57610137565b806389a78f1a146102935780638da5cb5b146102d557806396365d4414610300578063ab65faf41461032b578063b29c662a1461036857610137565b806362f94cac116100e757806362f94cac146101e05780636e04ff0d1461020957806370f37d271461024757806376e4fc2a1461025157806379ba50971461027c57610137565b80630ca761751461013c57806314f955dc146101655780634585e33b1461018e5780634c034ea9146101b757610137565b3661013757346005600082825461012f9190612a05565b925050819055005b600080fd5b34801561014857600080fd5b50610163600480360381019061015e9190612bc9565b61047a565b005b34801561017157600080fd5b5061018c60048036038101906101879190612d17565b61053c565b005b34801561019a57600080fd5b506101b560048036038101906101b09190612dca565b610965565b005b3480156101c357600080fd5b506101de60048036038101906101d99190612e17565b610993565b005b3480156101ec57600080fd5b5061020760048036038101906102029190612e44565b610a4a565b005b34801561021557600080fd5b50610230600480360381019061022b9190612dca565b610b1a565b60405161023e929190612f31565b60405180910390f35b61024f610c47565b005b34801561025d57600080fd5b50610266610c62565b6040516102739190612f70565b60405180910390f35b34801561028857600080fd5b50610291610c88565b005b34801561029f57600080fd5b506102ba60048036038101906102b59190612f8b565b610e1d565b6040516102cc96959493929190612fef565b60405180910390f35b3480156102e157600080fd5b506102ea610e73565b6040516102f79190612f70565b60405180910390f35b34801561030c57600080fd5b50610315610e9c565b6040516103229190613050565b60405180910390f35b34801561033757600080fd5b50610352600480360381019061034d9190612e17565b610ea2565b60405161035f9190612f70565b60405180910390f35b34801561037457600080fd5b5061037d610ee1565b60405161038a9190612f70565b60405180910390f35b34801561039f57600080fd5b506103a8610f07565b6040516103b59190613129565b60405180910390f35b3480156103ca57600080fd5b506103e560048036038101906103e09190612f8b565b610f95565b005b3480156103f357600080fd5b5061040e60048036038101906104099190612f8b565b610fa9565b60405161041b9190613202565b60405180910390f35b34801561043057600080fd5b50610439611062565b6040516104469190612f70565b60405180910390f35b34801561045b57600080fd5b50610464611088565b604051610471919061322c565b60405180910390f35b7f000000000000000000000000000000000000000000000000000000000000000073ffffffffffffffffffffffffffffffffffffffff163373ffffffffffffffffffffffffffffffffffffffff16146104ff576040517fc6829f8300000000000000000000000000000000000000000000000000000000815260040160405180910390fd5b61050a83838361108e565b827f85e1543bf2f84fe80c6badbce3648c8539ad1df4d2b3d822938ca0538be727e660405160405180910390a2505050565b60018260ff161115610583576040517f08c379a000000000000000000000000000000000000000000000000000000000815260040161057a906132a4565b60405180910390fd5b600081116105c6576040517f08c379a00000000000000000000000000000000000000000000000000000000081526004016105bd90613310565b60405180910390fd5b6000600660008573ffffffffffffffffffffffffffffffffffffffff1673ffffffffffffffffffffffffffffffffffffffff1681526020019081526020016000206000015414806106635750600660008473ffffffffffffffffffffffffffffffffffffffff1673ffffffffffffffffffffffffffffffffffffffff16815260200190815260200160002060040160019054906101000a900460ff165b6106a2576040517f08c379a00000000000000000000000000000000000000000000000000000000081526004016106999061337c565b60405180910390fd5b600073ffffffffffffffffffffffffffffffffffffffff16600260009054906101000a900473ffffffffffffffffffffffffffffffffffffffff1673ffffffffffffffffffffffffffffffffffffffff1603610733576040517f08c379a000000000000000000000000000000000000000000000000000000000815260040161072a906133e8565b60405180910390fd5b600260009054906101000a900473ffffffffffffffffffffffffffffffffffffffff1673ffffffffffffffffffffffffffffffffffffffff1663d1ce472084836040518363ffffffff1660e01b8152600401610790929190613408565b600060405180830381600087803b1580156107aa57600080fd5b505af11580156107be573d6000803e3d6000fd5b505050506040518060c0016040528082815260200142815260200160008152602001600081526020018360ff16815260200160001515815250600660008573ffffffffffffffffffffffffffffffffffffffff1673ffffffffffffffffffffffffffffffffffffffff1681526020019081526020016000206000820151816000015560208201518160010155604082015181600201556060820151816003015560808201518160040160006101000a81548160ff021916908360ff16021790555060a08201518160040160016101000a81548160ff0219169083151502179055509050506007839080600181540180825580915050600190039060005260206000200160009091909190916101000a81548173ffffffffffffffffffffffffffffffffffffffff021916908373ffffffffffffffffffffffffffffffffffffffff1602179055508273ffffffffffffffffffffffffffffffffffffffff167f9f6b4cced64244a64465098f682029975b1614400b96bc6bd12c668083719166838360405161094d929190613431565b60405180910390a2610960836001611309565b505050565b60008083838101906109779190613498565b91509150610984826114d8565b61098d816115ed565b50505050565b61099b6116e3565b6005548111156109e0576040517f08c379a00000000000000000000000000000000000000000000000000000000081526004016109d790613524565b60405180910390fd5b80600560008282546109f29190613544565b92505081905550610a01610e73565b73ffffffffffffffffffffffffffffffffffffffff166108fc829081150290604051600060405180830381858888f19350505050158015610a46573d6000803e3d6000fd5b5050565b610a526116e3565b82600260006101000a81548173ffffffffffffffffffffffffffffffffffffffff021916908373ffffffffffffffffffffffffffffffffffffffff16021790555081600360006101000a81548173ffffffffffffffffffffffffffffffffffffffff021916908373ffffffffffffffffffffffffffffffffffffffff16021790555080600460006101000a81548173ffffffffffffffffffffffffffffffffffffffff021916908373ffffffffffffffffffffffffffffffffffffffff160217905550505050565b6000606060005b600780549050811015610c2857600060078281548110610b4457610b43613578565b5b9060005260206000200160009054906101000a900473ffffffffffffffffffffffffffffffffffffffff1690506000600660008373ffffffffffffffffffffffffffffffffffffffff1673ffffffffffffffffffffffffffffffffffffffff16815260200190815260200160002090508060040160019054906101000a900460ff16158015610be4575061012c8160010154610be09190612a05565b4210155b15610c195760018284604051602001610bfe929190613408565b60405160208183030381529060405294509450505050610c40565b50508080600101915050610b21565b50600060405180602001604052806000815250915091505b9250929050565b3460056000828254610c599190612a05565b92505081905550565b600460009054906101000a900473ffffffffffffffffffffffffffffffffffffffff1681565b600160009054906101000a900473ffffffffffffffffffffffffffffffffffffffff1673ffffffffffffffffffffffffffffffffffffffff163373ffffffffffffffffffffffffffffffffffffffff1614610d18576040517f08c379a0000000000000000000000000000000000000000000000000000000008152600401610d0f906135f3565b60405180910390fd5b60008060009054906101000a900473ffffffffffffffffffffffffffffffffffffffff169050336000806101000a81548173ffffffffffffffffffffffffffffffffffffffff021916908373ffffffffffffffffffffffffffffffffffffffff1602179055506000600160006101000a81548173ffffffffffffffffffffffffffffffffffffffff021916908373ffffffffffffffffffffffffffffffffffffffff1602179055503373ffffffffffffffffffffffffffffffffffffffff168173ffffffffffffffffffffffffffffffffffffffff167f8be0079c531659141344cd1fd0a4f28419497f9722a3daafe3b4186f6b6457e060405160405180910390a350565b60066020528060005260406000206000915090508060000154908060010154908060020154908060030154908060040160009054906101000a900460ff16908060040160019054906101000a900460ff16905086565b60008060009054906101000a900473ffffffffffffffffffffffffffffffffffffffff16905090565b60055481565b60078181548110610eb257600080fd5b906000526020600020016000915054906101000a900473ffffffffffffffffffffffffffffffffffffffff1681565b600360009054906101000a900473ffffffffffffffffffffffffffffffffffffffff1681565b60606007805480602002602001604051908101604052809291908181526020018280548015610f8b57602002820191906000526020600020905b8160009054906101000a900473ffffffffffffffffffffffffffffffffffffffff1673ffffffffffffffffffffffffffffffffffffffff1681526020019060010190808311610f41575b5050505050905090565b610f9d6116e3565b610fa681611773565b50565b610fb16128e5565b600660008373ffffffffffffffffffffffffffffffffffffffff1673ffffffffffffffffffffffffffffffffffffffff1681526020019081526020016000206040518060c0016040529081600082015481526020016001820154815260200160028201548152602001600382015481526020016004820160009054906101000a900460ff1660ff1660ff1681526020016004820160019054906101000a900460ff1615151515815250509050919050565b600260009054906101000a900473ffffffffffffffffffffffffffffffffffffffff1681565b600b5481565b600073ffffffffffffffffffffffffffffffffffffffff166008600085815260200190815260200160002060009054906101000a900473ffffffffffffffffffffffffffffffffffffffff1673ffffffffffffffffffffffffffffffffffffffff1603611130576040517f08c379a00000000000000000000000000000000000000000000000000000000081526004016111279061365f565b60405180910390fd5b60006008600085815260200190815260200160002060009054906101000a900473ffffffffffffffffffffffffffffffffffffffff16905060006009600086815260200190815260200160002060009054906101000a900460ff16905060006111988561189f565b90508273ffffffffffffffffffffffffffffffffffffffff167f048c26a84457a98927756e15ed46af34953a8de5a806b985c1b65ae7b3eec1d583836040516111e29291906136f6565b60405180910390a26000600660008573ffffffffffffffffffffffffffffffffffffffff1673ffffffffffffffffffffffffffffffffffffffff1681526020019081526020016000209050600160028111156112415761124061367f565b5b8360028111156112545761125361367f565b5b03611267578181600201819055506112a7565b60028081111561127a5761127961367f565b5b83600281111561128d5761128c61367f565b5b036112a6578181600301819055506112a584826119e3565b5b5b6008600088815260200190815260200160002060006101000a81549073ffffffffffffffffffffffffffffffffffffffff02191690556009600088815260200190815260200160002060006101000a81549060ff021916905550505050505050565b611311612920565b6113ae600a80546113219061374e565b80601f016020809104026020016040519081016040528092919081815260200182805461134d9061374e565b801561139a5780601f1061136f5761010080835404028352916020019161139a565b820191906000526020600020905b81548152906001019060200180831161137d57829003601f168201915b505050505082611dbc90919063ffffffff16565b60006113ec6113bc83611dcd565b613d40620493e07f66756e2d6176616c616e6368652d66756a692d3100000000000000000000000060001b6121dd565b9050836008600083815260200190815260200160002060006101000a81548173ffffffffffffffffffffffffffffffffffffffff021916908373ffffffffffffffffffffffffffffffffffffffff160217905550826009600083815260200190815260200160002060006101000a81548160ff021916908360028111156114765761147561367f565b5b021790555080600b819055508373ffffffffffffffffffffffffffffffffffffffff167f34096771911d55e0f95bc578c7cf3f812ecec9af25d9b3bddb38a6bd415c1b6984836040516114ca92919061377f565b60405180910390a250505050565b6000600660008373ffffffffffffffffffffffffffffffffffffffff1673ffffffffffffffffffffffffffffffffffffffff16815260200190815260200160002090508060040160019054906101000a900460ff161561156d576040517f08c379a0000000000000000000000000000000000000000000000000000000008152600401611564906137f4565b60405180910390fd5b61012c816001015461157f9190612a05565b4210156115c1576040517f08c379a00000000000000000000000000000000000000000000000000000000081526004016115b890613860565b60405180910390fd5b6115cc826002611309565b60018160040160016101000a81548160ff0219169083151502179055505050565b600760016007805490506116019190613544565b8154811061161257611611613578565b5b9060005260206000200160009054906101000a900473ffffffffffffffffffffffffffffffffffffffff166007828154811061165157611650613578565b5b9060005260206000200160006101000a81548173ffffffffffffffffffffffffffffffffffffffff021916908373ffffffffffffffffffffffffffffffffffffffff16021790555060078054806116ab576116aa613880565b5b6001900381819060005260206000200160006101000a81549073ffffffffffffffffffffffffffffffffffffffff0219169055905550565b60008054906101000a900473ffffffffffffffffffffffffffffffffffffffff1673ffffffffffffffffffffffffffffffffffffffff163373ffffffffffffffffffffffffffffffffffffffff1614611771576040517f08c379a0000000000000000000000000000000000000000000000000000000008152600401611768906138fb565b60405180910390fd5b565b3373ffffffffffffffffffffffffffffffffffffffff168173ffffffffffffffffffffffffffffffffffffffff16036117e1576040517f08c379a00000000000000000000000000000000000000000000000000000000081526004016117d890613967565b60405180910390fd5b80600160006101000a81548173ffffffffffffffffffffffffffffffffffffffff021916908373ffffffffffffffffffffffffffffffffffffffff1602179055508073ffffffffffffffffffffffffffffffffffffffff1660008054906101000a900473ffffffffffffffffffffffffffffffffffffffff1673ffffffffffffffffffffffffffffffffffffffff167fed8889f560326eb138920d842192f0eb3dd22b4f139c87a2c57538e05bae127860405160405180910390a350565b60008060005b83518110156119d957603060f81b8482815181106118c6576118c5613578565b5b602001015160f81c60f81b7effffffffffffffffffffffffffffffffffffffffffffffffffffffffffffff1916101580156119445750603960f81b84828151811061191457611913613578565b5b602001015160f81c60f81b7effffffffffffffffffffffffffffffffffffffffffffffffffffffffffffff191611155b611983576040517f08c379a000000000000000000000000000000000000000000000000000000000815260040161197a906139d3565b60405180910390fd5b603084828151811061199857611997613578565b5b602001015160f81c60f81b60f81c6119b091906139f3565b60ff16600a836119c09190613a28565b6119ca9190612a05565b915080806001019150506118a5565b5080915050919050565b6000808260040160009054906101000a900460ff1660ff16148015611a0f575081600201548260030154135b80611a41575060018260040160009054906101000a900460ff1660ff16148015611a40575081600201548260030154125b5b9050600082600201548360030154149050600082611a705781611a65576000611a6b565b83600001545b611a82565b60028460000154611a819190613a28565b5b90506000811115611d5b576000606460058660000154611aa29190613a28565b611aac9190613a99565b90506000606460028760000154611ac39190613a28565b611acd9190613a99565b90506000818385611ade9190613544565b611ae89190613544565b905083471015611b2d576040517f08c379a0000000000000000000000000000000000000000000000000000000008152600401611b2490613b16565b60405180910390fd5b8360056000828254611b3f9190613544565b92505081905550600073ffffffffffffffffffffffffffffffffffffffff16600360009054906101000a900473ffffffffffffffffffffffffffffffffffffffff1673ffffffffffffffffffffffffffffffffffffffff1614611c2b57600360009054906101000a900473ffffffffffffffffffffffffffffffffffffffff1673ffffffffffffffffffffffffffffffffffffffff1663e3a0b950848a6040518363ffffffff1660e01b8152600401611bf89190612f70565b6000604051808303818588803b158015611c1157600080fd5b505af1158015611c25573d6000803e3d6000fd5b50505050505b600073ffffffffffffffffffffffffffffffffffffffff16600460009054906101000a900473ffffffffffffffffffffffffffffffffffffffff1673ffffffffffffffffffffffffffffffffffffffff1614611d1057600460009054906101000a900473ffffffffffffffffffffffffffffffffffffffff1673ffffffffffffffffffffffffffffffffffffffff1663af10e10d838a6040518363ffffffff1660e01b8152600401611cdd9190612f70565b6000604051808303818588803b158015611cf657600080fd5b505af1158015611d0a573d6000803e3d6000fd5b50505050505b8773ffffffffffffffffffffffffffffffffffffffff166108fc829081150290604051600060405180830381858888f19350505050158015611d56573d6000803e3d6000fd5b505050505b8473ffffffffffffffffffffffffffffffffffffffff167fbfc001494020547f6803aab335ce9a48eb7f1102b2e75c612a5c7e20a9a121138486600201548760030154604051611dad93929190613b36565b60405180910390a25050505050565b611dc982600080846122c0565b5050565b60606000611ddc61010061236a565b9050611e266040518060400160405280600c81526020017f636f64654c6f636174696f6e00000000000000000000000000000000000000008152508261239190919063ffffffff16565b611e4f83600001516002811115611e4057611e3f61367f565b5b826123ba90919063ffffffff16565b611e976040518060400160405280600881526020017f6c616e67756167650000000000000000000000000000000000000000000000008152508261239190919063ffffffff16565b611ec083604001516000811115611eb157611eb061367f565b5b826123ba90919063ffffffff16565b611f086040518060400160405280600681526020017f736f7572636500000000000000000000000000000000000000000000000000008152508261239190919063ffffffff16565b611f1f83606001518261239190919063ffffffff16565b60008360a00151511115611fd557611f756040518060400160405280600481526020017f61726773000000000000000000000000000000000000000000000000000000008152508261239190919063ffffffff16565b611f7e8161240a565b60005b8360a0015151811015611fca57611fbf8460a001518281518110611fa857611fa7613578565b5b60200260200101518361239190919063ffffffff16565b806001019050611f81565b50611fd481612432565b5b600083608001515111156121165760006002811115611ff757611ff661367f565b5b8360200151600281111561200e5761200d61367f565b5b03612045576040517fa80d31f700000000000000000000000000000000000000000000000000000000815260040160405180910390fd5b61208d6040518060400160405280600f81526020017f736563726574734c6f636174696f6e00000000000000000000000000000000008152508261239190919063ffffffff16565b6120b6836020015160028111156120a7576120a661367f565b5b826123ba90919063ffffffff16565b6120fe6040518060400160405280600781526020017f73656372657473000000000000000000000000000000000000000000000000008152508261239190919063ffffffff16565b61211583608001518261245a90919063ffffffff16565b5b60008360c001515111156121cc5761216c6040518060400160405280600981526020017f62797465734172677300000000000000000000000000000000000000000000008152508261239190919063ffffffff16565b6121758161240a565b60005b8360c00151518110156121c1576121b68460c00151828151811061219f5761219e613578565b5b60200260200101518361245a90919063ffffffff16565b806001019050612178565b506121cb81612432565b5b806000015160000151915050919050565b6000807f000000000000000000000000000000000000000000000000000000000000000073ffffffffffffffffffffffffffffffffffffffff1663461d27628688600188886040518663ffffffff1660e01b8152600401612242959493929190613bcc565b6020604051808303816000875af1158015612261573d6000803e3d6000fd5b505050506040513d601f19601f820116820180604052508101906122859190613c3b565b9050807f1131472297a800fee664d1d89cfa8f7676ff07189ecc53f80bbb5f4969099db860405160405180910390a280915050949350505050565b60008151036122fb576040517f22ce3edd00000000000000000000000000000000000000000000000000000000815260040160405180910390fd5b82846000019060028111156123135761231261367f565b5b908160028111156123275761232661367f565b5b8152505081846040019060008111156123435761234261367f565b5b908160008111156123575761235661367f565b5b8152505080846060018190525050505050565b612372612992565b612380816000015183612483565b506000816020018181525050919050565b61239e82600383516124fc565b6123b58183600001516126a590919063ffffffff16565b505050565b6123dc60026005600660ff16901b1783600001516126c190919063ffffffff16565b5061240682826040516020016123f29190613050565b60405160208183030381529060405261245a565b5050565b61241581600461272b565b6001816020018181516124289190612a05565b9150818152505050565b61243d81600761272b565b6001816020018181516124509190613544565b9150818152505050565b61246782600283516124fc565b61247e8183600001516126a590919063ffffffff16565b505050565b61248b6129b2565b600060208361249a9190613c68565b146124c6576020826124ac9190613c68565b60206124b89190613544565b826124c39190612a05565b91505b8183602001818152505060405180845260008152828101602001818110156124ed57600080fd5b80604052505082905092915050565b60178167ffffffffffffffff1611612537576125318160058460ff16901b60ff161784600001516126c190919063ffffffff16565b506126a0565b60ff8167ffffffffffffffff16116125955761256a601860058460ff16901b1784600001516126c190919063ffffffff16565b5061258f8167ffffffffffffffff16600185600001516127519092919063ffffffff16565b5061269f565b61ffff8167ffffffffffffffff16116125f4576125c9601960058460ff16901b1784600001516126c190919063ffffffff16565b506125ee8167ffffffffffffffff16600285600001516127519092919063ffffffff16565b5061269e565b63ffffffff8167ffffffffffffffff16116126555761262a601a60058460ff16901b1784600001516126c190919063ffffffff16565b5061264f8167ffffffffffffffff16600485600001516127519092919063ffffffff16565b5061269d565b612676601b60058460ff16901b1784600001516126c190919063ffffffff16565b5061269b8167ffffffffffffffff16600885600001516127519092919063ffffffff16565b505b5b5b5b505050565b6126ad6129b2565b6126b9838384516127de565b905092915050565b6126c96129b2565b6000836000015151905060006001826126e29190612a05565b90508460200151821061270657612705856002836127009190613a28565b6128c1565b5b8451602083820101858153815183111561271e578282525b5050849250505092915050565b61274c601f60058360ff16901b1783600001516126c190919063ffffffff16565b505050565b6127596129b2565b60008460000151519050600081846127719190612a05565b9050856020015181111561279657612795866002836127909190613a28565b6128c1565b5b60006001856101006127a89190613dcc565b6127b29190613544565b9050865182810187831982511617815281518411156127cf578382525b50508693505050509392505050565b6127e66129b2565b82518211156127f457600080fd5b600084600001515190506000838261280c9190612a05565b90508560200151811115612831576128308660028361282b9190613a28565b6128c1565b5b6000808751805185602083010193508085111561284c578482525b60208901925050505b60208610612893578051825260208261286e9190612a05565b915060208161287d9190612a05565b905060208661288c9190613544565b9550612855565b60006001876020036101000a0390508019825116818451168181178552505050879450505050509392505050565b6000826000015190506128d48383612483565b506128df83826126a5565b50505050565b6040518060c0016040528060008152602001600081526020016000815260200160008152602001600060ff1681526020016000151581525090565b6040518060e001604052806000600281111561293f5761293e61367f565b5b8152602001600060028111156129585761295761367f565b5b81526020016000808111156129705761296f61367f565b5b8152602001606081526020016060815260200160608152602001606081525090565b60405180604001604052806129a56129b2565b8152602001600081525090565b604051806040016040528060608152602001600081525090565b6000819050919050565b7f4e487b7100000000000000000000000000000000000000000000000000000000600052601160045260246000fd5b6000612a10826129cc565b9150612a1b836129cc565b9250828201905080821115612a3357612a326129d6565b5b92915050565b6000604051905090565b600080fd5b600080fd5b6000819050919050565b612a6081612a4d565b8114612a6b57600080fd5b50565b600081359050612a7d81612a57565b92915050565b600080fd5b600080fd5b6000601f19601f8301169050919050565b7f4e487b7100000000000000000000000000000000000000000000000000000000600052604160045260246000fd5b612ad682612a8d565b810181811067ffffffffffffffff82111715612af557612af4612a9e565b5b80604052505050565b6000612b08612a39565b9050612b148282612acd565b919050565b600067ffffffffffffffff821115612b3457612b33612a9e565b5b612b3d82612a8d565b9050602081019050919050565b82818337600083830152505050565b6000612b6c612b6784612b19565b612afe565b905082815260208101848484011115612b8857612b87612a88565b5b612b93848285612b4a565b509392505050565b600082601f830112612bb057612baf612a83565b5b8135612bc0848260208601612b59565b91505092915050565b600080600060608486031215612be257612be1612a43565b5b6000612bf086828701612a6e565b935050602084013567ffffffffffffffff811115612c1157612c10612a48565b5b612c1d86828701612b9b565b925050604084013567ffffffffffffffff811115612c3e57612c3d612a48565b5b612c4a86828701612b9b565b9150509250925092565b600073ffffffffffffffffffffffffffffffffffffffff82169050919050565b6000612c7f82612c54565b9050919050565b612c8f81612c74565b8114612c9a57600080fd5b50565b600081359050612cac81612c86565b92915050565b600060ff82169050919050565b612cc881612cb2565b8114612cd357600080fd5b50565b600081359050612ce581612cbf565b92915050565b612cf4816129cc565b8114612cff57600080fd5b50565b600081359050612d1181612ceb565b92915050565b600080600060608486031215612d3057612d2f612a43565b5b6000612d3e86828701612c9d565b9350506020612d4f86828701612cd6565b9250506040612d6086828701612d02565b9150509250925092565b600080fd5b600080fd5b60008083601f840112612d8a57612d89612a83565b5b8235905067ffffffffffffffff811115612da757612da6612d6a565b5b602083019150836001820283011115612dc357612dc2612d6f565b5b9250929050565b60008060208385031215612de157612de0612a43565b5b600083013567ffffffffffffffff811115612dff57612dfe612a48565b5b612e0b85828601612d74565b92509250509250929050565b600060208284031215612e2d57612e2c612a43565b5b6000612e3b84828501612d02565b91505092915050565b600080600060608486031215612e5d57612e5c612a43565b5b6000612e6b86828701612c9d565b9350506020612e7c86828701612c9d565b9250506040612e8d86828701612c9d565b9150509250925092565b60008115159050919050565b612eac81612e97565b82525050565b600081519050919050565b600082825260208201905092915050565b60005b83811015612eec578082015181840152602081019050612ed1565b60008484015250505050565b6000612f0382612eb2565b612f0d8185612ebd565b9350612f1d818560208601612ece565b612f2681612a8d565b840191505092915050565b6000604082019050612f466000830185612ea3565b8181036020830152612f588184612ef8565b90509392505050565b612f6a81612c74565b82525050565b6000602082019050612f856000830184612f61565b92915050565b600060208284031215612fa157612fa0612a43565b5b6000612faf84828501612c9d565b91505092915050565b612fc1816129cc565b82525050565b6000819050919050565b612fda81612fc7565b82525050565b612fe981612cb2565b82525050565b600060c0820190506130046000830189612fb8565b6130116020830188612fb8565b61301e6040830187612fd1565b61302b6060830186612fd1565b6130386080830185612fe0565b61304560a0830184612ea3565b979650505050505050565b60006020820190506130656000830184612fb8565b92915050565b600081519050919050565b600082825260208201905092915050565b6000819050602082019050919050565b6130a081612c74565b82525050565b60006130b28383613097565b60208301905092915050565b6000602082019050919050565b60006130d68261306b565b6130e08185613076565b93506130eb83613087565b8060005b8381101561311c57815161310388826130a6565b975061310e836130be565b9250506001810190506130ef565b5085935050505092915050565b6000602082019050818103600083015261314381846130cb565b905092915050565b613154816129cc565b82525050565b61316381612fc7565b82525050565b61317281612cb2565b82525050565b61318181612e97565b82525050565b60c08201600082015161319d600085018261314b565b5060208201516131b0602085018261314b565b5060408201516131c3604085018261315a565b5060608201516131d6606085018261315a565b5060808201516131e96080850182613169565b5060a08201516131fc60a0850182613178565b50505050565b600060c0820190506132176000830184613187565b92915050565b61322681612a4d565b82525050565b6000602082019050613241600083018461321d565b92915050565b600082825260208201905092915050565b7f496e76616c696420706f736974696f6e00000000000000000000000000000000600082015250565b600061328e601083613247565b915061329982613258565b602082019050919050565b600060208201905081810360008301526132bd81613281565b9050919050565b7f416d6f756e74207a65726f000000000000000000000000000000000000000000600082015250565b60006132fa600b83613247565b9150613305826132c4565b602082019050919050565b60006020820190508181036000830152613329816132ed565b9050919050565b7f4163746976652062657420657869737473000000000000000000000000000000600082015250565b6000613366601183613247565b915061337182613330565b602082019050919050565b6000602082019050818103600083015261339581613359565b9050919050565b7f5661756c74206e6f742073657400000000000000000000000000000000000000600082015250565b60006133d2600d83613247565b91506133dd8261339c565b602082019050919050565b60006020820190508181036000830152613401816133c5565b9050919050565b600060408201905061341d6000830185612f61565b61342a6020830184612fb8565b9392505050565b60006040820190506134466000830185612fe0565b6134536020830184612fb8565b9392505050565b600061346582612c54565b9050919050565b6134758161345a565b811461348057600080fd5b50565b6000813590506134928161346c565b92915050565b600080604083850312156134af576134ae612a43565b5b60006134bd85828601613483565b92505060206134ce85828601612d02565b9150509250929050565b7f496e73756666696369656e7420706f6f6c000000000000000000000000000000600082015250565b600061350e601183613247565b9150613519826134d8565b602082019050919050565b6000602082019050818103600083015261353d81613501565b9050919050565b600061354f826129cc565b915061355a836129cc565b9250828203905081811115613572576135716129d6565b5b92915050565b7f4e487b7100000000000000000000000000000000000000000000000000000000600052603260045260246000fd5b7f4d7573742062652070726f706f736564206f776e657200000000000000000000600082015250565b60006135dd601683613247565b91506135e8826135a7565b602082019050919050565b6000602082019050818103600083015261360c816135d0565b9050919050565b7f556e6b6e6f776e20726571756573740000000000000000000000000000000000600082015250565b6000613649600f83613247565b915061365482613613565b602082019050919050565b600060208201905081810360008301526136788161363c565b9050919050565b7f4e487b7100000000000000000000000000000000000000000000000000000000600052602160045260246000fd5b600381106136bf576136be61367f565b5b50565b60008190506136d0826136ae565b919050565b60006136e0826136c2565b9050919050565b6136f0816136d5565b82525050565b600060408201905061370b60008301856136e7565b6137186020830184612fd1565b9392505050565b7f4e487b7100000000000000000000000000000000000000000000000000000000600052602260045260246000fd5b6000600282049050600182168061376657607f821691505b6020821081036137795761377861371f565b5b50919050565b600060408201905061379460008301856136e7565b6137a1602083018461321d565b9392505050565b7f416c726561647920736574746c65640000000000000000000000000000000000600082015250565b60006137de600f83613247565b91506137e9826137a8565b602082019050919050565b6000602082019050818103600083015261380d816137d1565b9050919050565b7f546f6f20736f6f6e000000000000000000000000000000000000000000000000600082015250565b600061384a600883613247565b915061385582613814565b602082019050919050565b600060208201905081810360008301526138798161383d565b9050919050565b7f4e487b7100000000000000000000000000000000000000000000000000000000600052603160045260246000fd5b7f4f6e6c792063616c6c61626c65206279206f776e657200000000000000000000600082015250565b60006138e5601683613247565b91506138f0826138af565b602082019050919050565b60006020820190508181036000830152613914816138d8565b9050919050565b7f43616e6e6f74207472616e7366657220746f2073656c66000000000000000000600082015250565b6000613951601783613247565b915061395c8261391b565b602082019050919050565b6000602082019050818103600083015261398081613944565b9050919050565b7f4e6f6e2d64696769740000000000000000000000000000000000000000000000600082015250565b60006139bd600983613247565b91506139c882613987565b602082019050919050565b600060208201905081810360008301526139ec816139b0565b9050919050565b60006139fe82612cb2565b9150613a0983612cb2565b9250828203905060ff811115613a2257613a216129d6565b5b92915050565b6000613a33826129cc565b9150613a3e836129cc565b9250828202613a4c816129cc565b91508282048414831517613a6357613a626129d6565b5b5092915050565b7f4e487b7100000000000000000000000000000000000000000000000000000000600052601260045260246000fd5b6000613aa4826129cc565b9150613aaf836129cc565b925082613abf57613abe613a6a565b5b828204905092915050565b7f496e73756666696369656e7420706f6f6c2066756e6473000000000000000000600082015250565b6000613b00601783613247565b9150613b0b82613aca565b602082019050919050565b60006020820190508181036000830152613b2f81613af3565b9050919050565b6000606082019050613b4b6000830186612ea3565b613b586020830185612fd1565b613b656040830184612fd1565b949350505050565b600067ffffffffffffffff82169050919050565b613b8a81613b6d565b82525050565b600061ffff82169050919050565b613ba781613b90565b82525050565b600063ffffffff82169050919050565b613bc681613bad565b82525050565b600060a082019050613be16000830188613b81565b8181036020830152613bf38187612ef8565b9050613c026040830186613b9e565b613c0f6060830185613bbd565b613c1c608083018461321d565b9695505050505050565b600081519050613c3581612a57565b92915050565b600060208284031215613c5157613c50612a43565b5b6000613c5f84828501613c26565b91505092915050565b6000613c73826129cc565b9150613c7e836129cc565b925082613c8e57613c8d613a6a565b5b828206905092915050565b60008160011c9050919050565b6000808291508390505b6001851115613cf057808604811115613ccc57613ccb6129d6565b5b6001851615613cdb5780820291505b8081029050613ce985613c99565b9450613cb0565b94509492505050565b600082613d095760019050613dc5565b81613d175760009050613dc5565b8160018114613d2d5760028114613d3757613d66565b6001915050613dc5565b60ff841115613d4957613d486129d6565b5b8360020a915084821115613d6057613d5f6129d6565b5b50613dc5565b5060208310610133831016604e8410600b8410161715613d9b5782820a905083811115613d9657613d956129d6565b5b613dc5565b613da88484846001613ca6565b92509050818404811115613dbf57613dbe6129d6565b5b81810290505b9392505050565b6000613dd7826129cc565b9150613de2836129cc565b9250613e0f7fffffffffffffffffffffffffffffffffffffffffffffffffffffffffffffffff8484613cf9565b90509291505056fea2646970667358221220d2720855e63d568021244644dd4d888f5c510c0f73107978db9c019a695ee8a864736f6c634300081e0033636f6e737420726573706f6e7365203d2061776169742046756e6374696f6e732e6d616b654874747052657175657374287b75726c3a202768747470733a2f2f636861696e6c696e6b2d64617461737472656d732d6170692e6f6e72656e6465722e636f6d2f6170692f7265706f7274272c6d6574686f643a2027504f5354272c686561646572733a207b2027436f6e74656e742d54797065273a20276170706c69636174696f6e2f6a736f6e27207d2c646174613a207b207365637265743a20277375706572736563726574636f646531323327207d7d293b69662028726573706f6e73652e6572726f7229207468726f77204572726f722827415049206661696c656427293b636f6e7374207072696365203d20726573706f6e73652e646174612e7265706f72743b72657475726e2046756e6374696f6e732e656e636f6465537472696e672870726963652e746f537472696e672829293b",
  "linkReferences": {},
  "deployedLinkReferences": {}
}