{
  "_format": "hh-sol-artifact-1",
  "contractName": "CarbonCredit",
  "sourceName": "contracts/CarbonCredit.sol",
  "abi": [
    {
      "inputs": [
        {
          "internalType": "address",
          "name": "_avaxUsdFeed",
          "type": "address"
        },
        {
          "internalType": "address",
          "name": "_emchFeed",
          "type": "address"
        }
      ],
      "stateMutability": "nonpayable",
      "type": "constructor"
    },
    {
      "anonymous": false,
      "inputs": [
        {
          "indexed": true,
          "internalType": "address",
          "name": "owner",
          "type": "address"
        },
        {
          "indexed": true,
          "internalType": "address",
          "name": "spender",
          "type": "address"
        },
        {
          "indexed": false,
          "internalType": "uint256",
          "name": "amount",
          "type": "uint256"
        }
      ],
      "name": "Approval",
      "type": "event"
    },
    {
      "anonymous": false,
      "inputs": [
        {
          "indexed": true,
          "internalType": "address",
          "name": "user",
          "type": "address"
        },
        {
          "indexed": false,
          "internalType": "uint256",
          "name": "amount",
          "type": "uint256"
        }
      ],
      "name": "Burned",
      "type": "event"
    },
    {
      "anonymous": false,
      "inputs": [
        {
          "indexed": true,
          "internalType": "address",
          "name": "user",
          "type": "address"
        },
        {
          "indexed": false,
          "internalType": "uint256",
          "name": "amount",
          "type": "uint256"
        },
        {
          "indexed": false,
          "internalType": "uint256",
          "name": "usdValue",
          "type": "uint256"
        },
        {
          "indexed": false,
          "internalType": "uint256",
          "name": "emchRate",
          "type": "uint256"
        }
      ],
      "name": "Minted",
      "type": "event"
    },
    {
      "anonymous": false,
      "inputs": [
        {
          "indexed": true,
          "internalType": "address",
          "name": "newOwner",
          "type": "address"
        }
      ],
      "name": "OwnershipTransferred",
      "type": "event"
    },
    {
      "anonymous": false,
      "inputs": [
        {
          "indexed": true,
          "internalType": "address",
          "name": "from",
          "type": "address"
        },
        {
          "indexed": true,
          "internalType": "address",
          "name": "to",
          "type": "address"
        },
        {
          "indexed": false,
          "internalType": "uint256",
          "name": "amount",
          "type": "uint256"
        }
      ],
      "name": "Transfer",
      "type": "event"
    },
    {
      "anonymous": false,
      "inputs": [
        {
          "indexed": false,
          "internalType": "uint256",
          "name": "fallbackRate",
          "type": "uint256"
        }
      ],
      "name": "UsingFallbackEmchRate",
      "type": "event"
    },
    {
      "anonymous": false,
      "inputs": [
        {
          "indexed": true,
          "internalType": "address",
          "name": "to",
          "type": "address"
        },
        {
          "indexed": false,
          "internalType": "uint256",
          "name": "amount",
          "type": "uint256"
        }
      ],
      "name": "Withdrawn",
      "type": "event"
    },
    {
      "inputs": [
        {
          "internalType": "address",
          "name": "",
          "type": "address"
        },
        {
          "internalType": "address",
          "name": "",
          "type": "address"
        }
      ],
      "name": "allowance",
      "outputs": [
        {
          "internalType": "uint256",
          "name": "",
          "type": "uint256"
        }
      ],
      "stateMutability": "view",
      "type": "function"
    },
    {
      "inputs": [
        {
          "internalType": "address",
          "name": "spender",
          "type": "address"
        },
        {
          "internalType": "uint256",
          "name": "amount",
          "type": "uint256"
        }
      ],
      "name": "approve",
      "outputs": [
        {
          "internalType": "bool",
          "name": "",
          "type": "bool"
        }
      ],
      "stateMutability": "nonpayable",
      "type": "function"
    },
    {
      "inputs": [],
      "name": "avaxUsdFeed",
      "outputs": [
        {
          "internalType": "contract AggregatorV3Interface",
          "name": "",
          "type": "address"
        }
      ],
      "stateMutability": "view",
      "type": "function"
    },
    {
      "inputs": [
        {
          "internalType": "address",
          "name": "",
          "type": "address"
        }
      ],
      "name": "balanceOf",
      "outputs": [
        {
          "internalType": "uint256",
          "name": "",
          "type": "uint256"
        }
      ],
      "stateMutability": "view",
      "type": "function"
    },
    {
      "inputs": [],
      "name": "bettingContract",
      "outputs": [
        {
          "internalType": "address",
          "name": "",
          "type": "address"
        }
      ],
      "stateMutability": "view",
      "type": "function"
    },
    {
      "inputs": [
        {
          "internalType": "uint256",
          "name": "amount",
          "type": "uint256"
        }
      ],
      "name": "burn",
      "outputs": [],
      "stateMutability": "nonpayable",
      "type": "function"
    },
    {
      "inputs": [
        {
          "internalType": "address",
          "name": "user",
          "type": "address"
        }
      ],
      "name": "convertAndMint",
      "outputs": [],
      "stateMutability": "payable",
      "type": "function"
    },
    {
      "inputs": [],
      "name": "decimals",
      "outputs": [
        {
          "internalType": "uint8",
          "name": "",
          "type": "uint8"
        }
      ],
      "stateMutability": "view",
      "type": "function"
    },
    {
      "inputs": [],
      "name": "emchFeed",
      "outputs": [
        {
          "internalType": "contract AggregatorV3Interface",
          "name": "",
          "type": "address"
        }
      ],
      "stateMutability": "view",
      "type": "function"
    },
    {
      "inputs": [],
      "name": "getAvaxUsd",
      "outputs": [
        {
          "internalType": "uint256",
          "name": "",
          "type": "uint256"
        }
      ],
      "stateMutability": "view",
      "type": "function"
    },
    {
      "inputs": [],
      "name": "getEmchRate",
      "outputs": [
        {
          "internalType": "uint256",
          "name": "",
          "type": "uint256"
        }
      ],
      "stateMutability": "view",
      "type": "function"
    },
    {
      "inputs": [],
      "name": "getLeaderboard",
      "outputs": [
        {
          "internalType": "address[]",
          "name": "",
          "type": "address[]"
        },
        {
          "internalType": "uint256[]",
          "name": "",
          "type": "uint256[]"
        }
      ],
      "stateMutability": "view",
      "type": "function"
    },
    {
      "inputs": [
        {
          "internalType": "address",
          "name": "user",
          "type": "address"
        }
      ],
      "name": "getUserHolding",
      "outputs": [
        {
          "internalType": "uint256",
          "name": "",
          "type": "uint256"
        }
      ],
      "stateMutability": "view",
      "type": "function"
    },
    {
      "inputs": [
        {
          "internalType": "uint256",
          "name": "",
          "type": "uint256"
        }
      ],
      "name": "holders",
      "outputs": [
        {
          "internalType": "address",
          "name": "",
          "type": "address"
        }
      ],
      "stateMutability": "view",
      "type": "function"
    },
    {
      "inputs": [
        {
          "internalType": "address",
          "name": "",
          "type": "address"
        }
      ],
      "name": "isHolder",
      "outputs": [
        {
          "internalType": "bool",
          "name": "",
          "type": "bool"
        }
      ],
      "stateMutability": "view",
      "type": "function"
    },
    {
      "inputs": [],
      "name": "name",
      "outputs": [
        {
          "internalType": "string",
          "name": "",
          "type": "string"
        }
      ],
      "stateMutability": "view",
      "type": "function"
    },
    {
      "inputs": [],
      "name": "owner",
      "outputs": [
        {
          "internalType": "address",
          "name": "",
          "type": "address"
        }
      ],
      "stateMutability": "view",
      "type": "function"
    },
    {
      "inputs": [
        {
          "internalType": "uint256",
          "name": "avaxAmountInWei",
          "type": "uint256"
        }
      ],
      "name": "previewMintAmount",
      "outputs": [
        {
          "internalType": "uint256",
          "name": "",
          "type": "uint256"
        }
      ],
      "stateMutability": "view",
      "type": "function"
    },
    {
      "inputs": [
        {
          "internalType": "address",
          "name": "_bettingContract",
          "type": "address"
        }
      ],
      "name": "setBettingContract",
      "outputs": [],
      "stateMutability": "nonpayable",
      "type": "function"
    },
    {
      "inputs": [],
      "name": "symbol",
      "outputs": [
        {
          "internalType": "string",
          "name": "",
          "type": "string"
        }
      ],
      "stateMutability": "view",
      "type": "function"
    },
    {
      "inputs": [
        {
          "internalType": "address",
          "name": "to",
          "type": "address"
        },
        {
          "internalType": "uint256",
          "name": "gbcAmount",
          "type": "uint256"
        }
      ],
      "name": "testMint",
      "outputs": [],
      "stateMutability": "nonpayable",
      "type": "function"
    },
    {
      "inputs": [],
      "name": "totalSupply",
      "outputs": [
        {
          "internalType": "uint256",
          "name": "",
          "type": "uint256"
        }
      ],
      "stateMutability": "view",
      "type": "function"
    },
    {
      "inputs": [
        {
          "internalType": "address",
          "name": "to",
          "type": "address"
        },
        {
          "internalType": "uint256",
          "name": "amount",
          "type": "uint256"
        }
      ],
      "name": "transfer",
      "outputs": [
        {
          "internalType": "bool",
          "name": "",
          "type": "bool"
        }
      ],
      "stateMutability": "nonpayable",
      "type": "function"
    },
    {
      "inputs": [
        {
          "internalType": "address",
          "name": "from",
          "type": "address"
        },
        {
          "internalType": "address",
          "name": "to",
          "type": "address"
        },
        {
          "internalType": "uint256",
          "name": "amount",
          "type": "uint256"
        }
      ],
      "name": "transferFrom",
      "outputs": [
        {
          "internalType": "bool",
          "name": "",
          "type": "bool"
        }
      ],
      "stateMutability": "nonpayable",
      "type": "function"
    },
    {
      "inputs": [
        {
          "internalType": "address",
          "name": "newOwner",
          "type": "address"
        }
      ],
      "name": "transferOwnership",
      "outputs": [],
      "stateMutability": "nonpayable",
      "type": "function"
    },
    {
      "inputs": [
        {
          "internalType": "address payable",
          "name": "to",
          "type": "address"
        },
        {
          "internalType": "uint256",
          "name": "amount",
          "type": "uint256"
        }
      ],
      "name": "withdraw",
      "outputs": [],
      "stateMutability": "nonpayable",
      "type": "function"
    },
    {
      "stateMutability": "payable",
      "type": "receive"
    }
  ],
  "bytecode": "0x60c06040526040518060400160405280600e81526020017f477265656e426574436172626f6e000000000000000000000000000000000000815250600090816100489190610481565b506040518060400160405280600381526020017f47424300000000000000000000000000000000000000000000000000000000008152506001908161008d9190610481565b506012600260006101000a81548160ff021916908360ff1602179055503480156100b657600080fd5b506040516134c63803806134c683398181016040528101906100d891906105b6565b600073ffffffffffffffffffffffffffffffffffffffff168273ffffffffffffffffffffffffffffffffffffffff16141580156101425750600073ffffffffffffffffffffffffffffffffffffffff168173ffffffffffffffffffffffffffffffffffffffff1614155b610181576040517f08c379a000000000000000000000000000000000000000000000000000000000815260040161017890610653565b60405180910390fd5b8173ffffffffffffffffffffffffffffffffffffffff1660808173ffffffffffffffffffffffffffffffffffffffff16815250508073ffffffffffffffffffffffffffffffffffffffff1660a08173ffffffffffffffffffffffffffffffffffffffff168152505033600360006101000a81548173ffffffffffffffffffffffffffffffffffffffff021916908373ffffffffffffffffffffffffffffffffffffffff1602179055505050610673565b600081519050919050565b7f4e487b7100000000000000000000000000000000000000000000000000000000600052604160045260246000fd5b7f4e487b7100000000000000000000000000000000000000000000000000000000600052602260045260246000fd5b600060028204905060018216806102b257607f821691505b6020821081036102c5576102c461026b565b5b50919050565b60008190508160005260206000209050919050565b60006020601f8301049050919050565b600082821b905092915050565b60006008830261032d7fffffffffffffffffffffffffffffffffffffffffffffffffffffffffffffffff826102f0565b61033786836102f0565b95508019841693508086168417925050509392505050565b6000819050919050565b6000819050919050565b600061037e6103796103748461034f565b610359565b61034f565b9050919050565b6000819050919050565b61039883610363565b6103ac6103a482610385565b8484546102fd565b825550505050565b600090565b6103c16103b4565b6103cc81848461038f565b505050565b5b818110156103f0576103e56000826103b9565b6001810190506103d2565b5050565b601f82111561043557610406816102cb565b61040f846102e0565b8101602085101561041e578190505b61043261042a856102e0565b8301826103d1565b50505b505050565b600082821c905092915050565b60006104586000198460080261043a565b1980831691505092915050565b60006104718383610447565b9150826002028217905092915050565b61048a82610231565b67ffffffffffffffff8111156104a3576104a261023c565b5b6104ad825461029a565b6104b88282856103f4565b600060209050601f8311600181146104eb57600084156104d9578287015190505b6104e38582610465565b86555061054b565b601f1984166104f9866102cb565b60005b82811015610521578489015182556001820191506020850194506020810190506104fc565b8683101561053e578489015161053a601f891682610447565b8355505b6001600288020188555050505b505050505050565b600080fd5b600073ffffffffffffffffffffffffffffffffffffffff82169050919050565b600061058382610558565b9050919050565b61059381610578565b811461059e57600080fd5b50565b6000815190506105b08161058a565b92915050565b600080604083850312156105cd576105cc610553565b5b60006105db858286016105a1565b92505060206105ec858286016105a1565b9150509250929050565b600082825260208201905092915050565b7f496e76616c696420666565640000000000000000000000000000000000000000600082015250565b600061063d600c836105f6565b915061064882610607565b602082019050919050565b6000602082019050818103600083015261066c81610630565b9050919050565b60805160a051612e206106a6600039600081816109d00152610d3d01526000818161108701526115de0152612e206000f3fe6080604052600436106101855760003560e01c80636d763a6e116100d1578063af10e10d1161008a578063e82cd25f11610064578063e82cd25f146105d3578063f28e093d146105fe578063f2fde38b14610627578063f3fef3a3146106505761018c565b8063af10e10d1461053d578063d4d7b19a14610559578063dd62ed3e146105965761018c565b80636d763a6e1461041657806370a0823114610442578063765051381461047f5780638da5cb5b146104aa57806395d89b41146104d5578063a9059cbb146105005761018c565b80632ca6a1c01161013e5780633f28deca116101185780633f28deca1461034857806342966c681461038557806359b271c1146103ae5780635d06df82146103d95761018c565b80632ca6a1c0146102c957806330fce48b146102f4578063313ce5671461031d5761018c565b806306fdde0314610191578063095ea7b3146101bc57806318160ddd146101f957806321cb48311461022457806323b872dd1461024f5780632a11ced01461028c5761018c565b3661018c57005b600080fd5b34801561019d57600080fd5b506101a6610679565b6040516101b391906120b0565b60405180910390f35b3480156101c857600080fd5b506101e360048036038101906101de919061216b565b610707565b6040516101f091906121c6565b60405180910390f35b34801561020557600080fd5b5061020e6107f9565b60405161021b91906121f0565b60405180910390f35b34801561023057600080fd5b506102396107ff565b604051610246919061221a565b60405180910390f35b34801561025b57600080fd5b5061027660048036038101906102719190612235565b610825565b60405161028391906121c6565b60405180910390f35b34801561029857600080fd5b506102b360048036038101906102ae9190612288565b61098f565b6040516102c0919061221a565b60405180910390f35b3480156102d557600080fd5b506102de6109ce565b6040516102eb9190612314565b60405180910390f35b34801561030057600080fd5b5061031b6004803603810190610316919061232f565b6109f2565b005b34801561032957600080fd5b50610332610b35565b60405161033f9190612378565b60405180910390f35b34801561035457600080fd5b5061036f600480360381019061036a919061232f565b610b48565b60405161037c91906121f0565b60405180910390f35b34801561039157600080fd5b506103ac60048036038101906103a79190612288565b610b91565b005b3480156103ba57600080fd5b506103c3610d39565b6040516103d091906121f0565b60405180910390f35b3480156103e557600080fd5b5061040060048036038101906103fb9190612288565b610e13565b60405161040d91906121f0565b60405180910390f35b34801561042257600080fd5b5061042b610e74565b60405161043992919061250f565b60405180910390f35b34801561044e57600080fd5b506104696004803603810190610464919061232f565b61106a565b60405161047691906121f0565b60405180910390f35b34801561048b57600080fd5b50610494611082565b6040516104a191906121f0565b60405180910390f35b3480156104b657600080fd5b506104bf611164565b6040516104cc919061221a565b60405180910390f35b3480156104e157600080fd5b506104ea61118a565b6040516104f791906120b0565b60405180910390f35b34801561050c57600080fd5b506105276004803603810190610522919061216b565b611218565b60405161053491906121c6565b60405180910390f35b6105576004803603810190610552919061232f565b61122f565b005b34801561056557600080fd5b50610580600480360381019061057b919061232f565b611597565b60405161058d91906121c6565b60405180910390f35b3480156105a257600080fd5b506105bd60048036038101906105b89190612546565b6115b7565b6040516105ca91906121f0565b60405180910390f35b3480156105df57600080fd5b506105e86115dc565b6040516105f59190612314565b60405180910390f35b34801561060a57600080fd5b506106256004803603810190610620919061216b565b611600565b005b34801561063357600080fd5b5061064e6004803603810190610649919061232f565b6119ab565b005b34801561065c57600080fd5b50610677600480360381019061067291906125c4565b611b31565b005b6000805461068690612633565b80601f01602080910402602001604051908101604052809291908181526020018280546106b290612633565b80156106ff5780601f106106d4576101008083540402835291602001916106ff565b820191906000526020600020905b8154815290600101906020018083116106e257829003601f168201915b505050505081565b600081600660003373ffffffffffffffffffffffffffffffffffffffff1673ffffffffffffffffffffffffffffffffffffffff16815260200190815260200160002060008573ffffffffffffffffffffffffffffffffffffffff1673ffffffffffffffffffffffffffffffffffffffff168152602001908152602001600020819055508273ffffffffffffffffffffffffffffffffffffffff163373ffffffffffffffffffffffffffffffffffffffff167f8c5be1e5ebec7d5bd14f71427d1e84f3dd0314c0f7b2291e5b200ac8c7c3b925846040516107e791906121f0565b60405180910390a36001905092915050565b60045481565b600260019054906101000a900473ffffffffffffffffffffffffffffffffffffffff1681565b600081600660008673ffffffffffffffffffffffffffffffffffffffff1673ffffffffffffffffffffffffffffffffffffffff16815260200190815260200160002060003373ffffffffffffffffffffffffffffffffffffffff1673ffffffffffffffffffffffffffffffffffffffff1681526020019081526020016000205410156108e6576040517f08c379a00000000000000000000000000000000000000000000000000000000081526004016108dd906126b0565b60405180910390fd5b81600660008673ffffffffffffffffffffffffffffffffffffffff1673ffffffffffffffffffffffffffffffffffffffff16815260200190815260200160002060003373ffffffffffffffffffffffffffffffffffffffff1673ffffffffffffffffffffffffffffffffffffffff168152602001908152602001600020600082825461097291906126ff565b92505081905550610984848484611d0c565b600190509392505050565b6008818154811061099f57600080fd5b906000526020600020016000915054906101000a900473ffffffffffffffffffffffffffffffffffffffff1681565b7f000000000000000000000000000000000000000000000000000000000000000081565b600360009054906101000a900473ffffffffffffffffffffffffffffffffffffffff1673ffffffffffffffffffffffffffffffffffffffff163373ffffffffffffffffffffffffffffffffffffffff1614610a82576040517f08c379a0000000000000000000000000000000000000000000000000000000008152600401610a799061277f565b60405180910390fd5b600073ffffffffffffffffffffffffffffffffffffffff168173ffffffffffffffffffffffffffffffffffffffff1603610af1576040517f08c379a0000000000000000000000000000000000000000000000000000000008152600401610ae8906127eb565b60405180910390fd5b80600260016101000a81548173ffffffffffffffffffffffffffffffffffffffff021916908373ffffffffffffffffffffffffffffffffffffffff16021790555050565b600260009054906101000a900460ff1681565b6000600560008373ffffffffffffffffffffffffffffffffffffffff1673ffffffffffffffffffffffffffffffffffffffff168152602001908152602001600020549050919050565b80600560003373ffffffffffffffffffffffffffffffffffffffff1673ffffffffffffffffffffffffffffffffffffffff168152602001908152602001600020541015610c13576040517f08c379a0000000000000000000000000000000000000000000000000000000008152600401610c0a90612857565b60405180910390fd5b80600560003373ffffffffffffffffffffffffffffffffffffffff1673ffffffffffffffffffffffffffffffffffffffff1681526020019081526020016000206000828254610c6291906126ff565b925050819055508060046000828254610c7b91906126ff565b925050819055503373ffffffffffffffffffffffffffffffffffffffff167f696de425f79f4a40bc6d2122ca50507f0efbeabbff86a84871b7196ab8ea8df782604051610cc891906121f0565b60405180910390a2600073ffffffffffffffffffffffffffffffffffffffff163373ffffffffffffffffffffffffffffffffffffffff167fddf252ad1be2c89b69c2b068fc378daa952ba7f163c4a11628f55a4df523b3ef83604051610d2e91906121f0565b60405180910390a350565b60007f000000000000000000000000000000000000000000000000000000000000000073ffffffffffffffffffffffffffffffffffffffff1663feaf968c6040518163ffffffff1660e01b815260040160a060405180830381865afa925050508015610dc357506040513d601f19601f82011682018060405250810190610dc09190612904565b60015b610dd85768022b1c8c1227a000009050610e10565b6000841315610dfe576402540be40084610df2919061297f565b95505050505050610e10565b505050505068022b1c8c1227a0000090505b90565b600080610e1e611082565b90506000610e2a610d39565b905060006305f5e1008386610e3f91906129f7565b610e499190612a68565b9050670de0b6b3a76400008282610e6091906129f7565b610e6a9190612a68565b9350505050919050565b6060806000600880549050905060008167ffffffffffffffff811115610e9d57610e9c612a99565b5b604051908082528060200260200182016040528015610ecb5781602001602082028036833780820191505090505b50905060008267ffffffffffffffff811115610eea57610ee9612a99565b5b604051908082528060200260200182016040528015610f185781602001602082028036833780820191505090505b50905060005b8381101561105c5760088181548110610f3a57610f39612ac8565b5b9060005260206000200160009054906101000a900473ffffffffffffffffffffffffffffffffffffffff16838281518110610f7857610f77612ac8565b5b602002602001019073ffffffffffffffffffffffffffffffffffffffff16908173ffffffffffffffffffffffffffffffffffffffff16815250506005600060088381548110610fca57610fc9612ac8565b5b9060005260206000200160009054906101000a900473ffffffffffffffffffffffffffffffffffffffff1673ffffffffffffffffffffffffffffffffffffffff1673ffffffffffffffffffffffffffffffffffffffff1681526020019081526020016000205482828151811061104357611042612ac8565b5b6020026020010181815250508080600101915050610f1e565b508181945094505050509091565b60056020528060005260406000206000915090505481565b6000807f000000000000000000000000000000000000000000000000000000000000000073ffffffffffffffffffffffffffffffffffffffff1663feaf968c6040518163ffffffff1660e01b815260040160a060405180830381865afa1580156110f0573d6000803e3d6000fd5b505050506040513d601f19601f820116820180604052508101906111149190612904565b5050509150506000811361115d576040517f08c379a000000000000000000000000000000000000000000000000000000000815260040161115490612b43565b60405180910390fd5b8091505090565b600360009054906101000a900473ffffffffffffffffffffffffffffffffffffffff1681565b6001805461119790612633565b80601f01602080910402602001604051908101604052809291908181526020018280546111c390612633565b80156112105780601f106111e557610100808354040283529160200191611210565b820191906000526020600020905b8154815290600101906020018083116111f357829003601f168201915b505050505081565b6000611225338484611d0c565b6001905092915050565b600260019054906101000a900473ffffffffffffffffffffffffffffffffffffffff1673ffffffffffffffffffffffffffffffffffffffff163373ffffffffffffffffffffffffffffffffffffffff16146112bf576040517f08c379a00000000000000000000000000000000000000000000000000000000081526004016112b690612baf565b60405180910390fd5b60003411611302576040517f08c379a00000000000000000000000000000000000000000000000000000000081526004016112f990612c1b565b60405180910390fd5b600061130c611082565b90506000611318610d39565b905060006305f5e100833461132d91906129f7565b6113379190612a68565b90506000670de0b6b3a7640000838361135091906129f7565b61135a9190612a68565b905080600560008773ffffffffffffffffffffffffffffffffffffffff1673ffffffffffffffffffffffffffffffffffffffff16815260200190815260200160002060008282546113ab9190612c3b565b9250508190555080600460008282546113c49190612c3b565b92505081905550600760008673ffffffffffffffffffffffffffffffffffffffff1673ffffffffffffffffffffffffffffffffffffffff16815260200190815260200160002060009054906101000a900460ff166114d8576008859080600181540180825580915050600190039060005260206000200160009091909190916101000a81548173ffffffffffffffffffffffffffffffffffffffff021916908373ffffffffffffffffffffffffffffffffffffffff1602179055506001600760008773ffffffffffffffffffffffffffffffffffffffff1673ffffffffffffffffffffffffffffffffffffffff16815260200190815260200160002060006101000a81548160ff0219169083151502179055505b8473ffffffffffffffffffffffffffffffffffffffff167f5a3358a3d27a5373c0df2604662088d37894d56b7cfd27f315770440f4e0d91982848660405161152293929190612c6f565b60405180910390a28473ffffffffffffffffffffffffffffffffffffffff16600073ffffffffffffffffffffffffffffffffffffffff167fddf252ad1be2c89b69c2b068fc378daa952ba7f163c4a11628f55a4df523b3ef8360405161158891906121f0565b60405180910390a35050505050565b60076020528060005260406000206000915054906101000a900460ff1681565b6006602052816000526040600020602052806000526040600020600091509150505481565b7f000000000000000000000000000000000000000000000000000000000000000081565b600360009054906101000a900473ffffffffffffffffffffffffffffffffffffffff1673ffffffffffffffffffffffffffffffffffffffff163373ffffffffffffffffffffffffffffffffffffffff1614611690576040517f08c379a00000000000000000000000000000000000000000000000000000000081526004016116879061277f565b60405180910390fd5b600073ffffffffffffffffffffffffffffffffffffffff168273ffffffffffffffffffffffffffffffffffffffff16036116ff576040517f08c379a00000000000000000000000000000000000000000000000000000000081526004016116f6906127eb565b60405180910390fd5b60008111611742576040517f08c379a000000000000000000000000000000000000000000000000000000000815260040161173990612cf2565b60405180910390fd5b600061174c610d39565b9050600081670de0b6b3a76400008461176591906129f7565b61176f9190612a68565b905082600560008673ffffffffffffffffffffffffffffffffffffffff1673ffffffffffffffffffffffffffffffffffffffff16815260200190815260200160002060008282546117c09190612c3b565b9250508190555082600460008282546117d99190612c3b565b92505081905550600760008573ffffffffffffffffffffffffffffffffffffffff1673ffffffffffffffffffffffffffffffffffffffff16815260200190815260200160002060009054906101000a900460ff166118ed576008849080600181540180825580915050600190039060005260206000200160009091909190916101000a81548173ffffffffffffffffffffffffffffffffffffffff021916908373ffffffffffffffffffffffffffffffffffffffff1602179055506001600760008673ffffffffffffffffffffffffffffffffffffffff1673ffffffffffffffffffffffffffffffffffffffff16815260200190815260200160002060006101000a81548160ff0219169083151502179055505b8373ffffffffffffffffffffffffffffffffffffffff167f5a3358a3d27a5373c0df2604662088d37894d56b7cfd27f315770440f4e0d91984838560405161193793929190612c6f565b60405180910390a28373ffffffffffffffffffffffffffffffffffffffff16600073ffffffffffffffffffffffffffffffffffffffff167fddf252ad1be2c89b69c2b068fc378daa952ba7f163c4a11628f55a4df523b3ef8560405161199d91906121f0565b60405180910390a350505050565b600360009054906101000a900473ffffffffffffffffffffffffffffffffffffffff1673ffffffffffffffffffffffffffffffffffffffff163373ffffffffffffffffffffffffffffffffffffffff1614611a3b576040517f08c379a0000000000000000000000000000000000000000000000000000000008152600401611a329061277f565b60405180910390fd5b600073ffffffffffffffffffffffffffffffffffffffff168173ffffffffffffffffffffffffffffffffffffffff1603611aaa576040517f08c379a0000000000000000000000000000000000000000000000000000000008152600401611aa190612d5e565b60405180910390fd5b80600360006101000a81548173ffffffffffffffffffffffffffffffffffffffff021916908373ffffffffffffffffffffffffffffffffffffffff1602179055508073ffffffffffffffffffffffffffffffffffffffff167f04dba622d284ed0014ee4b9a6a68386be1a4c08a4913ae272de89199cc68616360405160405180910390a250565b600360009054906101000a900473ffffffffffffffffffffffffffffffffffffffff1673ffffffffffffffffffffffffffffffffffffffff163373ffffffffffffffffffffffffffffffffffffffff1614611bc1576040517f08c379a0000000000000000000000000000000000000000000000000000000008152600401611bb89061277f565b60405180910390fd5b600073ffffffffffffffffffffffffffffffffffffffff168273ffffffffffffffffffffffffffffffffffffffff1603611c30576040517f08c379a0000000000000000000000000000000000000000000000000000000008152600401611c27906127eb565b60405180910390fd5b47811115611c73576040517f08c379a0000000000000000000000000000000000000000000000000000000008152600401611c6a90612857565b60405180910390fd5b8173ffffffffffffffffffffffffffffffffffffffff166108fc829081150290604051600060405180830381858888f19350505050158015611cb9573d6000803e3d6000fd5b508173ffffffffffffffffffffffffffffffffffffffff167f7084f5476618d8e60b11ef0d7d3f06914655adb8793e28ff7f018d4c76d505d582604051611d0091906121f0565b60405180910390a25050565b80600560008573ffffffffffffffffffffffffffffffffffffffff1673ffffffffffffffffffffffffffffffffffffffff168152602001908152602001600020541015611d8e576040517f08c379a0000000000000000000000000000000000000000000000000000000008152600401611d8590612857565b60405180910390fd5b600073ffffffffffffffffffffffffffffffffffffffff168273ffffffffffffffffffffffffffffffffffffffff1603611dfd576040517f08c379a0000000000000000000000000000000000000000000000000000000008152600401611df490612dca565b60405180910390fd5b80600560008573ffffffffffffffffffffffffffffffffffffffff1673ffffffffffffffffffffffffffffffffffffffff1681526020019081526020016000206000828254611e4c91906126ff565b9250508190555080600560008473ffffffffffffffffffffffffffffffffffffffff1673ffffffffffffffffffffffffffffffffffffffff1681526020019081526020016000206000828254611ea29190612c3b565b92505081905550600760008373ffffffffffffffffffffffffffffffffffffffff1673ffffffffffffffffffffffffffffffffffffffff16815260200190815260200160002060009054906101000a900460ff16611fb6576008829080600181540180825580915050600190039060005260206000200160009091909190916101000a81548173ffffffffffffffffffffffffffffffffffffffff021916908373ffffffffffffffffffffffffffffffffffffffff1602179055506001600760008473ffffffffffffffffffffffffffffffffffffffff1673ffffffffffffffffffffffffffffffffffffffff16815260200190815260200160002060006101000a81548160ff0219169083151502179055505b8173ffffffffffffffffffffffffffffffffffffffff168373ffffffffffffffffffffffffffffffffffffffff167fddf252ad1be2c89b69c2b068fc378daa952ba7f163c4a11628f55a4df523b3ef8360405161201391906121f0565b60405180910390a3505050565b600081519050919050565b600082825260208201905092915050565b60005b8381101561205a57808201518184015260208101905061203f565b60008484015250505050565b6000601f19601f8301169050919050565b600061208282612020565b61208c818561202b565b935061209c81856020860161203c565b6120a581612066565b840191505092915050565b600060208201905081810360008301526120ca8184612077565b905092915050565b600080fd5b600073ffffffffffffffffffffffffffffffffffffffff82169050919050565b6000612102826120d7565b9050919050565b612112816120f7565b811461211d57600080fd5b50565b60008135905061212f81612109565b92915050565b6000819050919050565b61214881612135565b811461215357600080fd5b50565b6000813590506121658161213f565b92915050565b60008060408385031215612182576121816120d2565b5b600061219085828601612120565b92505060206121a185828601612156565b9150509250929050565b60008115159050919050565b6121c0816121ab565b82525050565b60006020820190506121db60008301846121b7565b92915050565b6121ea81612135565b82525050565b600060208201905061220560008301846121e1565b92915050565b612214816120f7565b82525050565b600060208201905061222f600083018461220b565b92915050565b60008060006060848603121561224e5761224d6120d2565b5b600061225c86828701612120565b935050602061226d86828701612120565b925050604061227e86828701612156565b9150509250925092565b60006020828403121561229e5761229d6120d2565b5b60006122ac84828501612156565b91505092915050565b6000819050919050565b60006122da6122d56122d0846120d7565b6122b5565b6120d7565b9050919050565b60006122ec826122bf565b9050919050565b60006122fe826122e1565b9050919050565b61230e816122f3565b82525050565b60006020820190506123296000830184612305565b92915050565b600060208284031215612345576123446120d2565b5b600061235384828501612120565b91505092915050565b600060ff82169050919050565b6123728161235c565b82525050565b600060208201905061238d6000830184612369565b92915050565b600081519050919050565b600082825260208201905092915050565b6000819050602082019050919050565b6123c8816120f7565b82525050565b60006123da83836123bf565b60208301905092915050565b6000602082019050919050565b60006123fe82612393565b612408818561239e565b9350612413836123af565b8060005b8381101561244457815161242b88826123ce565b9750612436836123e6565b925050600181019050612417565b5085935050505092915050565b600081519050919050565b600082825260208201905092915050565b6000819050602082019050919050565b61248681612135565b82525050565b6000612498838361247d565b60208301905092915050565b6000602082019050919050565b60006124bc82612451565b6124c6818561245c565b93506124d18361246d565b8060005b838110156125025781516124e9888261248c565b97506124f4836124a4565b9250506001810190506124d5565b5085935050505092915050565b6000604082019050818103600083015261252981856123f3565b9050818103602083015261253d81846124b1565b90509392505050565b6000806040838503121561255d5761255c6120d2565b5b600061256b85828601612120565b925050602061257c85828601612120565b9150509250929050565b6000612591826120d7565b9050919050565b6125a181612586565b81146125ac57600080fd5b50565b6000813590506125be81612598565b92915050565b600080604083850312156125db576125da6120d2565b5b60006125e9858286016125af565b92505060206125fa85828601612156565b9150509250929050565b7f4e487b7100000000000000000000000000000000000000000000000000000000600052602260045260246000fd5b6000600282049050600182168061264b57607f821691505b60208210810361265e5761265d612604565b5b50919050565b7f4e6f7420617070726f7665640000000000000000000000000000000000000000600082015250565b600061269a600c8361202b565b91506126a582612664565b602082019050919050565b600060208201905081810360008301526126c98161268d565b9050919050565b7f4e487b7100000000000000000000000000000000000000000000000000000000600052601160045260246000fd5b600061270a82612135565b915061271583612135565b925082820390508181111561272d5761272c6126d0565b5b92915050565b7f4e6f74206f776e65720000000000000000000000000000000000000000000000600082015250565b600061276960098361202b565b915061277482612733565b602082019050919050565b600060208201905081810360008301526127988161275c565b9050919050565b7f496e76616c696420616464726573730000000000000000000000000000000000600082015250565b60006127d5600f8361202b565b91506127e08261279f565b602082019050919050565b60006020820190508181036000830152612804816127c8565b9050919050565b7f496e73756666696369656e742062616c616e6365000000000000000000000000600082015250565b600061284160148361202b565b915061284c8261280b565b602082019050919050565b6000602082019050818103600083015261287081612834565b9050919050565b600069ffffffffffffffffffff82169050919050565b61289681612877565b81146128a157600080fd5b50565b6000815190506128b38161288d565b92915050565b6000819050919050565b6128cc816128b9565b81146128d757600080fd5b50565b6000815190506128e9816128c3565b92915050565b6000815190506128fe8161213f565b92915050565b600080600080600060a086880312156129205761291f6120d2565b5b600061292e888289016128a4565b955050602061293f888289016128da565b9450506040612950888289016128ef565b9350506060612961888289016128ef565b9250506080612972888289016128a4565b9150509295509295909350565b600061298a826128b9565b9150612995836128b9565b92508282026129a3816128b9565b91507f800000000000000000000000000000000000000000000000000000000000000084146000841216156129db576129da6126d0565b5b82820584148315176129f0576129ef6126d0565b5b5092915050565b6000612a0282612135565b9150612a0d83612135565b9250828202612a1b81612135565b91508282048414831517612a3257612a316126d0565b5b5092915050565b7f4e487b7100000000000000000000000000000000000000000000000000000000600052601260045260246000fd5b6000612a7382612135565b9150612a7e83612135565b925082612a8e57612a8d612a39565b5b828204905092915050565b7f4e487b7100000000000000000000000000000000000000000000000000000000600052604160045260246000fd5b7f4e487b7100000000000000000000000000000000000000000000000000000000600052603260045260246000fd5b7f496e76616c696420415641582f55534420707269636500000000000000000000600082015250565b6000612b2d60168361202b565b9150612b3882612af7565b602082019050919050565b60006020820190508181036000830152612b5c81612b20565b9050919050565b7f4e6f742042657474696e67436f6e747261637400000000000000000000000000600082015250565b6000612b9960138361202b565b9150612ba482612b63565b602082019050919050565b60006020820190508181036000830152612bc881612b8c565b9050919050565b7f4e6f20415641582073656e740000000000000000000000000000000000000000600082015250565b6000612c05600c8361202b565b9150612c1082612bcf565b602082019050919050565b60006020820190508181036000830152612c3481612bf8565b9050919050565b6000612c4682612135565b9150612c5183612135565b9250828201905080821115612c6957612c686126d0565b5b92915050565b6000606082019050612c8460008301866121e1565b612c9160208301856121e1565b612c9e60408301846121e1565b949350505050565b7f416d6f756e74206d7573742062652067726561746572207468616e207a65726f600082015250565b6000612cdc60208361202b565b9150612ce782612ca6565b602082019050919050565b60006020820190508181036000830152612d0b81612ccf565b9050919050565b7f5a65726f20616464726573730000000000000000000000000000000000000000600082015250565b6000612d48600c8361202b565b9150612d5382612d12565b602082019050919050565b60006020820190508181036000830152612d7781612d3b565b9050919050565b7f496e76616c696420746f20616464726573730000000000000000000000000000600082015250565b6000612db460128361202b565b9150612dbf82612d7e565b602082019050919050565b60006020820190508181036000830152612de381612da7565b905091905056fea26469706673582212208241e490e0f901c69c3ae8f68f9fb02c78e8e0619018e18c5c7ecb93b0a94d7264736f6c634300081e0033",
  "linkReferences": {},
  "deployedLinkReferences": {}
}