{
  "_format": "hh-sol-artifact-1",
  "contractName": "CarbonCredit",
  "sourceName": "contracts/CarbonCredit.sol",
  "abi": [
    {
      "inputs": [
        {
          "internalType": "address",
          "name": "_avaxUsdFeed",
          "type": "address"
        },
        {
          "internalType": "address",
          "name": "_emchFeed",
          "type": "address"
        },
        {
          "internalType": "bool",
          "name": "_useMockEmchRate",
          "type": "bool"
        }
      ],
      "stateMutability": "nonpayable",
      "type": "constructor"
    },
    {
      "anonymous": false,
      "inputs": [
        {
          "indexed": true,
          "internalType": "address",
          "name": "owner",
          "type": "address"
        },
        {
          "indexed": true,
          "internalType": "address",
          "name": "spender",
          "type": "address"
        },
        {
          "indexed": false,
          "internalType": "uint256",
          "name": "amount",
          "type": "uint256"
        }
      ],
      "name": "Approval",
      "type": "event"
    },
    {
      "anonymous": false,
      "inputs": [
        {
          "indexed": true,
          "internalType": "address",
          "name": "user",
          "type": "address"
        },
        {
          "indexed": false,
          "internalType": "uint256",
          "name": "amount",
          "type": "uint256"
        }
      ],
      "name": "Burned",
      "type": "event"
    },
    {
      "anonymous": false,
      "inputs": [
        {
          "indexed": true,
          "internalType": "address",
          "name": "user",
          "type": "address"
        },
        {
          "indexed": false,
          "internalType": "uint256",
          "name": "amount",
          "type": "uint256"
        },
        {
          "indexed": false,
          "internalType": "uint256",
          "name": "usdValue",
          "type": "uint256"
        },
        {
          "indexed": false,
          "internalType": "uint256",
          "name": "emchRate",
          "type": "uint256"
        }
      ],
      "name": "Minted",
      "type": "event"
    },
    {
      "anonymous": false,
      "inputs": [
        {
          "indexed": true,
          "internalType": "address",
          "name": "newOwner",
          "type": "address"
        }
      ],
      "name": "OwnershipTransferred",
      "type": "event"
    },
    {
      "anonymous": false,
      "inputs": [
        {
          "indexed": true,
          "internalType": "address",
          "name": "from",
          "type": "address"
        },
        {
          "indexed": true,
          "internalType": "address",
          "name": "to",
          "type": "address"
        },
        {
          "indexed": false,
          "internalType": "uint256",
          "name": "amount",
          "type": "uint256"
        }
      ],
      "name": "Transfer",
      "type": "event"
    },
    {
      "anonymous": false,
      "inputs": [
        {
          "indexed": false,
          "internalType": "uint256",
          "name": "fallbackRate",
          "type": "uint256"
        }
      ],
      "name": "UsingFallbackEmchRate",
      "type": "event"
    },
    {
      "anonymous": false,
      "inputs": [
        {
          "indexed": true,
          "internalType": "address",
          "name": "to",
          "type": "address"
        },
        {
          "indexed": false,
          "internalType": "uint256",
          "name": "amount",
          "type": "uint256"
        }
      ],
      "name": "Withdrawn",
      "type": "event"
    },
    {
      "inputs": [
        {
          "internalType": "address",
          "name": "",
          "type": "address"
        },
        {
          "internalType": "address",
          "name": "",
          "type": "address"
        }
      ],
      "name": "allowance",
      "outputs": [
        {
          "internalType": "uint256",
          "name": "",
          "type": "uint256"
        }
      ],
      "stateMutability": "view",
      "type": "function"
    },
    {
      "inputs": [
        {
          "internalType": "address",
          "name": "spender",
          "type": "address"
        },
        {
          "internalType": "uint256",
          "name": "amount",
          "type": "uint256"
        }
      ],
      "name": "approve",
      "outputs": [
        {
          "internalType": "bool",
          "name": "",
          "type": "bool"
        }
      ],
      "stateMutability": "nonpayable",
      "type": "function"
    },
    {
      "inputs": [],
      "name": "avaxUsdFeed",
      "outputs": [
        {
          "internalType": "contract AggregatorV3Interface",
          "name": "",
          "type": "address"
        }
      ],
      "stateMutability": "view",
      "type": "function"
    },
    {
      "inputs": [
        {
          "internalType": "address",
          "name": "",
          "type": "address"
        }
      ],
      "name": "balanceOf",
      "outputs": [
        {
          "internalType": "uint256",
          "name": "",
          "type": "uint256"
        }
      ],
      "stateMutability": "view",
      "type": "function"
    },
    {
      "inputs": [],
      "name": "bettingContract",
      "outputs": [
        {
          "internalType": "address",
          "name": "",
          "type": "address"
        }
      ],
      "stateMutability": "view",
      "type": "function"
    },
    {
      "inputs": [
        {
          "internalType": "uint256",
          "name": "amount",
          "type": "uint256"
        }
      ],
      "name": "burn",
      "outputs": [],
      "stateMutability": "nonpayable",
      "type": "function"
    },
    {
      "inputs": [
        {
          "internalType": "address",
          "name": "user",
          "type": "address"
        }
      ],
      "name": "convertAndMint",
      "outputs": [],
      "stateMutability": "payable",
      "type": "function"
    },
    {
      "inputs": [],
      "name": "decimals",
      "outputs": [
        {
          "internalType": "uint8",
          "name": "",
          "type": "uint8"
        }
      ],
      "stateMutability": "view",
      "type": "function"
    },
    {
      "inputs": [],
      "name": "emchFeed",
      "outputs": [
        {
          "internalType": "contract AggregatorV3Interface",
          "name": "",
          "type": "address"
        }
      ],
      "stateMutability": "view",
      "type": "function"
    },
    {
      "inputs": [],
      "name": "getAvaxUsd",
      "outputs": [
        {
          "internalType": "uint256",
          "name": "",
          "type": "uint256"
        }
      ],
      "stateMutability": "view",
      "type": "function"
    },
    {
      "inputs": [],
      "name": "getEmchRate",
      "outputs": [
        {
          "internalType": "uint256",
          "name": "",
          "type": "uint256"
        }
      ],
      "stateMutability": "view",
      "type": "function"
    },
    {
      "inputs": [],
      "name": "getLeaderboard",
      "outputs": [
        {
          "internalType": "address[]",
          "name": "",
          "type": "address[]"
        },
        {
          "internalType": "uint256[]",
          "name": "",
          "type": "uint256[]"
        }
      ],
      "stateMutability": "view",
      "type": "function"
    },
    {
      "inputs": [
        {
          "internalType": "address",
          "name": "user",
          "type": "address"
        }
      ],
      "name": "getUserHolding",
      "outputs": [
        {
          "internalType": "uint256",
          "name": "",
          "type": "uint256"
        }
      ],
      "stateMutability": "view",
      "type": "function"
    },
    {
      "inputs": [
        {
          "internalType": "uint256",
          "name": "",
          "type": "uint256"
        }
      ],
      "name": "holders",
      "outputs": [
        {
          "internalType": "address",
          "name": "",
          "type": "address"
        }
      ],
      "stateMutability": "view",
      "type": "function"
    },
    {
      "inputs": [
        {
          "internalType": "address",
          "name": "",
          "type": "address"
        }
      ],
      "name": "isHolder",
      "outputs": [
        {
          "internalType": "bool",
          "name": "",
          "type": "bool"
        }
      ],
      "stateMutability": "view",
      "type": "function"
    },
    {
      "inputs": [],
      "name": "name",
      "outputs": [
        {
          "internalType": "string",
          "name": "",
          "type": "string"
        }
      ],
      "stateMutability": "view",
      "type": "function"
    },
    {
      "inputs": [],
      "name": "owner",
      "outputs": [
        {
          "internalType": "address",
          "name": "",
          "type": "address"
        }
      ],
      "stateMutability": "view",
      "type": "function"
    },
    {
      "inputs": [
        {
          "internalType": "uint256",
          "name": "avaxAmountInWei",
          "type": "uint256"
        }
      ],
      "name": "previewMintAmount",
      "outputs": [
        {
          "internalType": "uint256",
          "name": "",
          "type": "uint256"
        }
      ],
      "stateMutability": "view",
      "type": "function"
    },
    {
      "inputs": [
        {
          "internalType": "address",
          "name": "_bettingContract",
          "type": "address"
        }
      ],
      "name": "setBettingContract",
      "outputs": [],
      "stateMutability": "nonpayable",
      "type": "function"
    },
    {
      "inputs": [],
      "name": "symbol",
      "outputs": [
        {
          "internalType": "string",
          "name": "",
          "type": "string"
        }
      ],
      "stateMutability": "view",
      "type": "function"
    },
    {
      "inputs": [
        {
          "internalType": "address",
          "name": "to",
          "type": "address"
        },
        {
          "internalType": "uint256",
          "name": "gbcAmount",
          "type": "uint256"
        }
      ],
      "name": "testMint",
      "outputs": [],
      "stateMutability": "nonpayable",
      "type": "function"
    },
    {
      "inputs": [],
      "name": "totalSupply",
      "outputs": [
        {
          "internalType": "uint256",
          "name": "",
          "type": "uint256"
        }
      ],
      "stateMutability": "view",
      "type": "function"
    },
    {
      "inputs": [
        {
          "internalType": "address",
          "name": "to",
          "type": "address"
        },
        {
          "internalType": "uint256",
          "name": "amount",
          "type": "uint256"
        }
      ],
      "name": "transfer",
      "outputs": [
        {
          "internalType": "bool",
          "name": "",
          "type": "bool"
        }
      ],
      "stateMutability": "nonpayable",
      "type": "function"
    },
    {
      "inputs": [
        {
          "internalType": "address",
          "name": "from",
          "type": "address"
        },
        {
          "internalType": "address",
          "name": "to",
          "type": "address"
        },
        {
          "internalType": "uint256",
          "name": "amount",
          "type": "uint256"
        }
      ],
      "name": "transferFrom",
      "outputs": [
        {
          "internalType": "bool",
          "name": "",
          "type": "bool"
        }
      ],
      "stateMutability": "nonpayable",
      "type": "function"
    },
    {
      "inputs": [
        {
          "internalType": "address",
          "name": "newOwner",
          "type": "address"
        }
      ],
      "name": "transferOwnership",
      "outputs": [],
      "stateMutability": "nonpayable",
      "type": "function"
    },
    {
      "inputs": [],
      "name": "useMockEmchRate",
      "outputs": [
        {
          "internalType": "bool",
          "name": "",
          "type": "bool"
        }
      ],
      "stateMutability": "view",
      "type": "function"
    },
    {
      "inputs": [
        {
          "internalType": "address payable",
          "name": "to",
          "type": "address"
        },
        {
          "internalType": "uint256",
          "name": "amount",
          "type": "uint256"
        }
      ],
      "name": "withdraw",
      "outputs": [],
      "stateMutability": "nonpayable",
      "type": "function"
    },
    {
      "stateMutability": "payable",
      "type": "receive"
    }
  ],
  "bytecode": "0x60e06040526040518060400160405280600e81526020017f477265656e426574436172626f6e0000000000000000000000000000000000008152506000908161004891906104c3565b506040518060400160405280600381526020017f47424300000000000000000000000000000000000000000000000000000000008152506001908161008d91906104c3565b506012600260006101000a81548160ff021916908360ff1602179055503480156100b657600080fd5b5060405161371138038061371183398181016040528101906100d89190610630565b600073ffffffffffffffffffffffffffffffffffffffff168373ffffffffffffffffffffffffffffffffffffffff1603610147576040517f08c379a000000000000000000000000000000000000000000000000000000000815260040161013e906106e0565b60405180910390fd5b600073ffffffffffffffffffffffffffffffffffffffff168273ffffffffffffffffffffffffffffffffffffffff16036101b6576040517f08c379a00000000000000000000000000000000000000000000000000000000081526004016101ad9061074c565b60405180910390fd5b8273ffffffffffffffffffffffffffffffffffffffff1660808173ffffffffffffffffffffffffffffffffffffffff16815250508173ffffffffffffffffffffffffffffffffffffffff1660a08173ffffffffffffffffffffffffffffffffffffffff168152505080151560c08115158152505033600360006101000a81548173ffffffffffffffffffffffffffffffffffffffff021916908373ffffffffffffffffffffffffffffffffffffffff16021790555050505061076c565b600081519050919050565b7f4e487b7100000000000000000000000000000000000000000000000000000000600052604160045260246000fd5b7f4e487b7100000000000000000000000000000000000000000000000000000000600052602260045260246000fd5b600060028204905060018216806102f457607f821691505b602082108103610307576103066102ad565b5b50919050565b60008190508160005260206000209050919050565b60006020601f8301049050919050565b600082821b905092915050565b60006008830261036f7fffffffffffffffffffffffffffffffffffffffffffffffffffffffffffffffff82610332565b6103798683610332565b95508019841693508086168417925050509392505050565b6000819050919050565b6000819050919050565b60006103c06103bb6103b684610391565b61039b565b610391565b9050919050565b6000819050919050565b6103da836103a5565b6103ee6103e6826103c7565b84845461033f565b825550505050565b600090565b6104036103f6565b61040e8184846103d1565b505050565b5b81811015610432576104276000826103fb565b600181019050610414565b5050565b601f821115610477576104488161030d565b61045184610322565b81016020851015610460578190505b61047461046c85610322565b830182610413565b50505b505050565b600082821c905092915050565b600061049a6000198460080261047c565b1980831691505092915050565b60006104b38383610489565b9150826002028217905092915050565b6104cc82610273565b67ffffffffffffffff8111156104e5576104e461027e565b5b6104ef82546102dc565b6104fa828285610436565b600060209050601f83116001811461052d576000841561051b578287015190505b61052585826104a7565b86555061058d565b601f19841661053b8661030d565b60005b828110156105635784890151825560018201915060208501945060208101905061053e565b86831015610580578489015161057c601f891682610489565b8355505b6001600288020188555050505b505050505050565b600080fd5b600073ffffffffffffffffffffffffffffffffffffffff82169050919050565b60006105c58261059a565b9050919050565b6105d5816105ba565b81146105e057600080fd5b50565b6000815190506105f2816105cc565b92915050565b60008115159050919050565b61060d816105f8565b811461061857600080fd5b50565b60008151905061062a81610604565b92915050565b60008060006060848603121561064957610648610595565b5b6000610657868287016105e3565b9350506020610668868287016105e3565b92505060406106798682870161061b565b9150509250925092565b600082825260208201905092915050565b7f496e76616c696420415641582066656564000000000000000000000000000000600082015250565b60006106ca601183610683565b91506106d582610694565b602082019050919050565b600060208201905081810360008301526106f9816106bd565b9050919050565b7f496e76616c696420456d43482066656564000000000000000000000000000000600082015250565b6000610736601183610683565b915061074182610700565b602082019050919050565b6000602082019050818103600083015261076581610729565b9050919050565b60805160a05160c051612f616107b060003960008181610d83015261166e015260008181610a160152610dba01526000818161115c01526116d70152612f616000f3fe6080604052600436106101a05760003560e01c80636d763a6e116100ec578063ba01499c1161008a578063e82cd25f11610064578063e82cd25f14610619578063f28e093d14610644578063f2fde38b1461066d578063f3fef3a314610696576101a7565b8063ba01499c14610574578063d4d7b19a1461059f578063dd62ed3e146105dc576101a7565b80638da5cb5b116100c65780638da5cb5b146104c557806395d89b41146104f0578063a9059cbb1461051b578063af10e10d14610558576101a7565b80636d763a6e1461043157806370a082311461045d578063765051381461049a576101a7565b80632ca6a1c0116101595780633f28deca116101335780633f28deca1461036357806342966c68146103a057806359b271c1146103c95780635d06df82146103f4576101a7565b80632ca6a1c0146102e457806330fce48b1461030f578063313ce56714610338576101a7565b806306fdde03146101ac578063095ea7b3146101d757806318160ddd1461021457806321cb48311461023f57806323b872dd1461026a5780632a11ced0146102a7576101a7565b366101a757005b600080fd5b3480156101b857600080fd5b506101c16106bf565b6040516101ce9190612119565b60405180910390f35b3480156101e357600080fd5b506101fe60048036038101906101f991906121d4565b61074d565b60405161020b919061222f565b60405180910390f35b34801561022057600080fd5b5061022961083f565b6040516102369190612259565b60405180910390f35b34801561024b57600080fd5b50610254610845565b6040516102619190612283565b60405180910390f35b34801561027657600080fd5b50610291600480360381019061028c919061229e565b61086b565b60405161029e919061222f565b60405180910390f35b3480156102b357600080fd5b506102ce60048036038101906102c991906122f1565b6109d5565b6040516102db9190612283565b60405180910390f35b3480156102f057600080fd5b506102f9610a14565b604051610306919061237d565b60405180910390f35b34801561031b57600080fd5b5061033660048036038101906103319190612398565b610a38565b005b34801561034457600080fd5b5061034d610b7b565b60405161035a91906123e1565b60405180910390f35b34801561036f57600080fd5b5061038a60048036038101906103859190612398565b610b8e565b6040516103979190612259565b60405180910390f35b3480156103ac57600080fd5b506103c760048036038101906103c291906122f1565b610bd7565b005b3480156103d557600080fd5b506103de610d7f565b6040516103eb9190612259565b60405180910390f35b34801561040057600080fd5b5061041b600480360381019061041691906122f1565b610ee8565b6040516104289190612259565b60405180910390f35b34801561043d57600080fd5b50610446610f49565b604051610454929190612578565b60405180910390f35b34801561046957600080fd5b50610484600480360381019061047f9190612398565b61113f565b6040516104919190612259565b60405180910390f35b3480156104a657600080fd5b506104af611157565b6040516104bc9190612259565b60405180910390f35b3480156104d157600080fd5b506104da611239565b6040516104e79190612283565b60405180910390f35b3480156104fc57600080fd5b5061050561125f565b6040516105129190612119565b60405180910390f35b34801561052757600080fd5b50610542600480360381019061053d91906121d4565b6112ed565b60405161054f919061222f565b60405180910390f35b610572600480360381019061056d9190612398565b611304565b005b34801561058057600080fd5b5061058961166c565b604051610596919061222f565b60405180910390f35b3480156105ab57600080fd5b506105c660048036038101906105c19190612398565b611690565b6040516105d3919061222f565b60405180910390f35b3480156105e857600080fd5b5061060360048036038101906105fe91906125af565b6116b0565b6040516106109190612259565b60405180910390f35b34801561062557600080fd5b5061062e6116d5565b60405161063b919061237d565b60405180910390f35b34801561065057600080fd5b5061066b600480360381019061066691906121d4565b6116f9565b005b34801561067957600080fd5b50610694600480360381019061068f9190612398565b611a14565b005b3480156106a257600080fd5b506106bd60048036038101906106b8919061262d565b611b9a565b005b600080546106cc9061269c565b80601f01602080910402602001604051908101604052809291908181526020018280546106f89061269c565b80156107455780601f1061071a57610100808354040283529160200191610745565b820191906000526020600020905b81548152906001019060200180831161072857829003601f168201915b505050505081565b600081600660003373ffffffffffffffffffffffffffffffffffffffff1673ffffffffffffffffffffffffffffffffffffffff16815260200190815260200160002060008573ffffffffffffffffffffffffffffffffffffffff1673ffffffffffffffffffffffffffffffffffffffff168152602001908152602001600020819055508273ffffffffffffffffffffffffffffffffffffffff163373ffffffffffffffffffffffffffffffffffffffff167f8c5be1e5ebec7d5bd14f71427d1e84f3dd0314c0f7b2291e5b200ac8c7c3b9258460405161082d9190612259565b60405180910390a36001905092915050565b60045481565b600260019054906101000a900473ffffffffffffffffffffffffffffffffffffffff1681565b600081600660008673ffffffffffffffffffffffffffffffffffffffff1673ffffffffffffffffffffffffffffffffffffffff16815260200190815260200160002060003373ffffffffffffffffffffffffffffffffffffffff1673ffffffffffffffffffffffffffffffffffffffff16815260200190815260200160002054101561092c576040517f08c379a000000000000000000000000000000000000000000000000000000000815260040161092390612719565b60405180910390fd5b81600660008673ffffffffffffffffffffffffffffffffffffffff1673ffffffffffffffffffffffffffffffffffffffff16815260200190815260200160002060003373ffffffffffffffffffffffffffffffffffffffff1673ffffffffffffffffffffffffffffffffffffffff16815260200190815260200160002060008282546109b89190612768565b925050819055506109ca848484611d75565b600190509392505050565b600881815481106109e557600080fd5b906000526020600020016000915054906101000a900473ffffffffffffffffffffffffffffffffffffffff1681565b7f000000000000000000000000000000000000000000000000000000000000000081565b600360009054906101000a900473ffffffffffffffffffffffffffffffffffffffff1673ffffffffffffffffffffffffffffffffffffffff163373ffffffffffffffffffffffffffffffffffffffff1614610ac8576040517f08c379a0000000000000000000000000000000000000000000000000000000008152600401610abf906127e8565b60405180910390fd5b600073ffffffffffffffffffffffffffffffffffffffff168173ffffffffffffffffffffffffffffffffffffffff1603610b37576040517f08c379a0000000000000000000000000000000000000000000000000000000008152600401610b2e90612854565b60405180910390fd5b80600260016101000a81548173ffffffffffffffffffffffffffffffffffffffff021916908373ffffffffffffffffffffffffffffffffffffffff16021790555050565b600260009054906101000a900460ff1681565b6000600560008373ffffffffffffffffffffffffffffffffffffffff1673ffffffffffffffffffffffffffffffffffffffff168152602001908152602001600020549050919050565b80600560003373ffffffffffffffffffffffffffffffffffffffff1673ffffffffffffffffffffffffffffffffffffffff168152602001908152602001600020541015610c59576040517f08c379a0000000000000000000000000000000000000000000000000000000008152600401610c50906128c0565b60405180910390fd5b80600560003373ffffffffffffffffffffffffffffffffffffffff1673ffffffffffffffffffffffffffffffffffffffff1681526020019081526020016000206000828254610ca89190612768565b925050819055508060046000828254610cc19190612768565b925050819055503373ffffffffffffffffffffffffffffffffffffffff167f696de425f79f4a40bc6d2122ca50507f0efbeabbff86a84871b7196ab8ea8df782604051610d0e9190612259565b60405180910390a2600073ffffffffffffffffffffffffffffffffffffffff163373ffffffffffffffffffffffffffffffffffffffff167fddf252ad1be2c89b69c2b068fc378daa952ba7f163c4a11628f55a4df523b3ef83604051610d749190612259565b60405180910390a350565b60007f000000000000000000000000000000000000000000000000000000000000000015610db85768022b1c8c1227a000009050610ee5565b7f000000000000000000000000000000000000000000000000000000000000000073ffffffffffffffffffffffffffffffffffffffff1663feaf968c6040518163ffffffff1660e01b815260040160a060405180830381865afa925050508015610e4057506040513d601f19601f82011682018060405250810190610e3d919061296d565b60015b610e7f576040517f08c379a0000000000000000000000000000000000000000000000000000000008152600401610e7690612a34565b60405180910390fd5b6000841315610ea5576402540be40084610e999190612a54565b95505050505050610ee5565b50505050506040517f08c379a0000000000000000000000000000000000000000000000000000000008152600401610edc90612b18565b60405180910390fd5b90565b600080610ef3611157565b90506000610eff610d7f565b905060006305f5e1008386610f149190612b38565b610f1e9190612ba9565b9050670de0b6b3a76400008282610f359190612b38565b610f3f9190612ba9565b9350505050919050565b6060806000600880549050905060008167ffffffffffffffff811115610f7257610f71612bda565b5b604051908082528060200260200182016040528015610fa05781602001602082028036833780820191505090505b50905060008267ffffffffffffffff811115610fbf57610fbe612bda565b5b604051908082528060200260200182016040528015610fed5781602001602082028036833780820191505090505b50905060005b83811015611131576008818154811061100f5761100e612c09565b5b9060005260206000200160009054906101000a900473ffffffffffffffffffffffffffffffffffffffff1683828151811061104d5761104c612c09565b5b602002602001019073ffffffffffffffffffffffffffffffffffffffff16908173ffffffffffffffffffffffffffffffffffffffff1681525050600560006008838154811061109f5761109e612c09565b5b9060005260206000200160009054906101000a900473ffffffffffffffffffffffffffffffffffffffff1673ffffffffffffffffffffffffffffffffffffffff1673ffffffffffffffffffffffffffffffffffffffff1681526020019081526020016000205482828151811061111857611117612c09565b5b6020026020010181815250508080600101915050610ff3565b508181945094505050509091565b60056020528060005260406000206000915090505481565b6000807f000000000000000000000000000000000000000000000000000000000000000073ffffffffffffffffffffffffffffffffffffffff1663feaf968c6040518163ffffffff1660e01b815260040160a060405180830381865afa1580156111c5573d6000803e3d6000fd5b505050506040513d601f19601f820116820180604052508101906111e9919061296d565b50505091505060008113611232576040517f08c379a000000000000000000000000000000000000000000000000000000000815260040161122990612c84565b60405180910390fd5b8091505090565b600360009054906101000a900473ffffffffffffffffffffffffffffffffffffffff1681565b6001805461126c9061269c565b80601f01602080910402602001604051908101604052809291908181526020018280546112989061269c565b80156112e55780601f106112ba576101008083540402835291602001916112e5565b820191906000526020600020905b8154815290600101906020018083116112c857829003601f168201915b505050505081565b60006112fa338484611d75565b6001905092915050565b600260019054906101000a900473ffffffffffffffffffffffffffffffffffffffff1673ffffffffffffffffffffffffffffffffffffffff163373ffffffffffffffffffffffffffffffffffffffff1614611394576040517f08c379a000000000000000000000000000000000000000000000000000000000815260040161138b90612cf0565b60405180910390fd5b600034116113d7576040517f08c379a00000000000000000000000000000000000000000000000000000000081526004016113ce90612d5c565b60405180910390fd5b60006113e1611157565b905060006113ed610d7f565b905060006305f5e10083346114029190612b38565b61140c9190612ba9565b90506000670de0b6b3a764000083836114259190612b38565b61142f9190612ba9565b905080600560008773ffffffffffffffffffffffffffffffffffffffff1673ffffffffffffffffffffffffffffffffffffffff16815260200190815260200160002060008282546114809190612d7c565b9250508190555080600460008282546114999190612d7c565b92505081905550600760008673ffffffffffffffffffffffffffffffffffffffff1673ffffffffffffffffffffffffffffffffffffffff16815260200190815260200160002060009054906101000a900460ff166115ad576008859080600181540180825580915050600190039060005260206000200160009091909190916101000a81548173ffffffffffffffffffffffffffffffffffffffff021916908373ffffffffffffffffffffffffffffffffffffffff1602179055506001600760008773ffffffffffffffffffffffffffffffffffffffff1673ffffffffffffffffffffffffffffffffffffffff16815260200190815260200160002060006101000a81548160ff0219169083151502179055505b8473ffffffffffffffffffffffffffffffffffffffff167f5a3358a3d27a5373c0df2604662088d37894d56b7cfd27f315770440f4e0d9198284866040516115f793929190612db0565b60405180910390a28473ffffffffffffffffffffffffffffffffffffffff16600073ffffffffffffffffffffffffffffffffffffffff167fddf252ad1be2c89b69c2b068fc378daa952ba7f163c4a11628f55a4df523b3ef8360405161165d9190612259565b60405180910390a35050505050565b7f000000000000000000000000000000000000000000000000000000000000000081565b60076020528060005260406000206000915054906101000a900460ff1681565b6006602052816000526040600020602052806000526040600020600091509150505481565b7f000000000000000000000000000000000000000000000000000000000000000081565b600073ffffffffffffffffffffffffffffffffffffffff168273ffffffffffffffffffffffffffffffffffffffff1603611768576040517f08c379a000000000000000000000000000000000000000000000000000000000815260040161175f90612854565b60405180910390fd5b600081116117ab576040517f08c379a00000000000000000000000000000000000000000000000000000000081526004016117a290612e33565b60405180910390fd5b60006117b5610d7f565b9050600081670de0b6b3a7640000846117ce9190612b38565b6117d89190612ba9565b905082600560008673ffffffffffffffffffffffffffffffffffffffff1673ffffffffffffffffffffffffffffffffffffffff16815260200190815260200160002060008282546118299190612d7c565b9250508190555082600460008282546118429190612d7c565b92505081905550600760008573ffffffffffffffffffffffffffffffffffffffff1673ffffffffffffffffffffffffffffffffffffffff16815260200190815260200160002060009054906101000a900460ff16611956576008849080600181540180825580915050600190039060005260206000200160009091909190916101000a81548173ffffffffffffffffffffffffffffffffffffffff021916908373ffffffffffffffffffffffffffffffffffffffff1602179055506001600760008673ffffffffffffffffffffffffffffffffffffffff1673ffffffffffffffffffffffffffffffffffffffff16815260200190815260200160002060006101000a81548160ff0219169083151502179055505b8373ffffffffffffffffffffffffffffffffffffffff167f5a3358a3d27a5373c0df2604662088d37894d56b7cfd27f315770440f4e0d9198483856040516119a093929190612db0565b60405180910390a28373ffffffffffffffffffffffffffffffffffffffff16600073ffffffffffffffffffffffffffffffffffffffff167fddf252ad1be2c89b69c2b068fc378daa952ba7f163c4a11628f55a4df523b3ef85604051611a069190612259565b60405180910390a350505050565b600360009054906101000a900473ffffffffffffffffffffffffffffffffffffffff1673ffffffffffffffffffffffffffffffffffffffff163373ffffffffffffffffffffffffffffffffffffffff1614611aa4576040517f08c379a0000000000000000000000000000000000000000000000000000000008152600401611a9b906127e8565b60405180910390fd5b600073ffffffffffffffffffffffffffffffffffffffff168173ffffffffffffffffffffffffffffffffffffffff1603611b13576040517f08c379a0000000000000000000000000000000000000000000000000000000008152600401611b0a90612e9f565b60405180910390fd5b80600360006101000a81548173ffffffffffffffffffffffffffffffffffffffff021916908373ffffffffffffffffffffffffffffffffffffffff1602179055508073ffffffffffffffffffffffffffffffffffffffff167f04dba622d284ed0014ee4b9a6a68386be1a4c08a4913ae272de89199cc68616360405160405180910390a250565b600360009054906101000a900473ffffffffffffffffffffffffffffffffffffffff1673ffffffffffffffffffffffffffffffffffffffff163373ffffffffffffffffffffffffffffffffffffffff1614611c2a576040517f08c379a0000000000000000000000000000000000000000000000000000000008152600401611c21906127e8565b60405180910390fd5b600073ffffffffffffffffffffffffffffffffffffffff168273ffffffffffffffffffffffffffffffffffffffff1603611c99576040517f08c379a0000000000000000000000000000000000000000000000000000000008152600401611c9090612854565b60405180910390fd5b47811115611cdc576040517f08c379a0000000000000000000000000000000000000000000000000000000008152600401611cd3906128c0565b60405180910390fd5b8173ffffffffffffffffffffffffffffffffffffffff166108fc829081150290604051600060405180830381858888f19350505050158015611d22573d6000803e3d6000fd5b508173ffffffffffffffffffffffffffffffffffffffff167f7084f5476618d8e60b11ef0d7d3f06914655adb8793e28ff7f018d4c76d505d582604051611d699190612259565b60405180910390a25050565b80600560008573ffffffffffffffffffffffffffffffffffffffff1673ffffffffffffffffffffffffffffffffffffffff168152602001908152602001600020541015611df7576040517f08c379a0000000000000000000000000000000000000000000000000000000008152600401611dee906128c0565b60405180910390fd5b600073ffffffffffffffffffffffffffffffffffffffff168273ffffffffffffffffffffffffffffffffffffffff1603611e66576040517f08c379a0000000000000000000000000000000000000000000000000000000008152600401611e5d90612f0b565b60405180910390fd5b80600560008573ffffffffffffffffffffffffffffffffffffffff1673ffffffffffffffffffffffffffffffffffffffff1681526020019081526020016000206000828254611eb59190612768565b9250508190555080600560008473ffffffffffffffffffffffffffffffffffffffff1673ffffffffffffffffffffffffffffffffffffffff1681526020019081526020016000206000828254611f0b9190612d7c565b92505081905550600760008373ffffffffffffffffffffffffffffffffffffffff1673ffffffffffffffffffffffffffffffffffffffff16815260200190815260200160002060009054906101000a900460ff1661201f576008829080600181540180825580915050600190039060005260206000200160009091909190916101000a81548173ffffffffffffffffffffffffffffffffffffffff021916908373ffffffffffffffffffffffffffffffffffffffff1602179055506001600760008473ffffffffffffffffffffffffffffffffffffffff1673ffffffffffffffffffffffffffffffffffffffff16815260200190815260200160002060006101000a81548160ff0219169083151502179055505b8173ffffffffffffffffffffffffffffffffffffffff168373ffffffffffffffffffffffffffffffffffffffff167fddf252ad1be2c89b69c2b068fc378daa952ba7f163c4a11628f55a4df523b3ef8360405161207c9190612259565b60405180910390a3505050565b600081519050919050565b600082825260208201905092915050565b60005b838110156120c35780820151818401526020810190506120a8565b60008484015250505050565b6000601f19601f8301169050919050565b60006120eb82612089565b6120f58185612094565b93506121058185602086016120a5565b61210e816120cf565b840191505092915050565b6000602082019050818103600083015261213381846120e0565b905092915050565b600080fd5b600073ffffffffffffffffffffffffffffffffffffffff82169050919050565b600061216b82612140565b9050919050565b61217b81612160565b811461218657600080fd5b50565b60008135905061219881612172565b92915050565b6000819050919050565b6121b18161219e565b81146121bc57600080fd5b50565b6000813590506121ce816121a8565b92915050565b600080604083850312156121eb576121ea61213b565b5b60006121f985828601612189565b925050602061220a858286016121bf565b9150509250929050565b60008115159050919050565b61222981612214565b82525050565b60006020820190506122446000830184612220565b92915050565b6122538161219e565b82525050565b600060208201905061226e600083018461224a565b92915050565b61227d81612160565b82525050565b60006020820190506122986000830184612274565b92915050565b6000806000606084860312156122b7576122b661213b565b5b60006122c586828701612189565b93505060206122d686828701612189565b92505060406122e7868287016121bf565b9150509250925092565b6000602082840312156123075761230661213b565b5b6000612315848285016121bf565b91505092915050565b6000819050919050565b600061234361233e61233984612140565b61231e565b612140565b9050919050565b600061235582612328565b9050919050565b60006123678261234a565b9050919050565b6123778161235c565b82525050565b6000602082019050612392600083018461236e565b92915050565b6000602082840312156123ae576123ad61213b565b5b60006123bc84828501612189565b91505092915050565b600060ff82169050919050565b6123db816123c5565b82525050565b60006020820190506123f660008301846123d2565b92915050565b600081519050919050565b600082825260208201905092915050565b6000819050602082019050919050565b61243181612160565b82525050565b60006124438383612428565b60208301905092915050565b6000602082019050919050565b6000612467826123fc565b6124718185612407565b935061247c83612418565b8060005b838110156124ad5781516124948882612437565b975061249f8361244f565b925050600181019050612480565b5085935050505092915050565b600081519050919050565b600082825260208201905092915050565b6000819050602082019050919050565b6124ef8161219e565b82525050565b600061250183836124e6565b60208301905092915050565b6000602082019050919050565b6000612525826124ba565b61252f81856124c5565b935061253a836124d6565b8060005b8381101561256b57815161255288826124f5565b975061255d8361250d565b92505060018101905061253e565b5085935050505092915050565b60006040820190508181036000830152612592818561245c565b905081810360208301526125a6818461251a565b90509392505050565b600080604083850312156125c6576125c561213b565b5b60006125d485828601612189565b92505060206125e585828601612189565b9150509250929050565b60006125fa82612140565b9050919050565b61260a816125ef565b811461261557600080fd5b50565b60008135905061262781612601565b92915050565b600080604083850312156126445761264361213b565b5b600061265285828601612618565b9250506020612663858286016121bf565b9150509250929050565b7f4e487b7100000000000000000000000000000000000000000000000000000000600052602260045260246000fd5b600060028204905060018216806126b457607f821691505b6020821081036126c7576126c661266d565b5b50919050565b7f4e6f7420617070726f7665640000000000000000000000000000000000000000600082015250565b6000612703600c83612094565b915061270e826126cd565b602082019050919050565b60006020820190508181036000830152612732816126f6565b9050919050565b7f4e487b7100000000000000000000000000000000000000000000000000000000600052601160045260246000fd5b60006127738261219e565b915061277e8361219e565b925082820390508181111561279657612795612739565b5b92915050565b7f4e6f74206f776e65720000000000000000000000000000000000000000000000600082015250565b60006127d2600983612094565b91506127dd8261279c565b602082019050919050565b60006020820190508181036000830152612801816127c5565b9050919050565b7f496e76616c696420616464726573730000000000000000000000000000000000600082015250565b600061283e600f83612094565b915061284982612808565b602082019050919050565b6000602082019050818103600083015261286d81612831565b9050919050565b7f496e73756666696369656e742062616c616e6365000000000000000000000000600082015250565b60006128aa601483612094565b91506128b582612874565b602082019050919050565b600060208201905081810360008301526128d98161289d565b9050919050565b600069ffffffffffffffffffff82169050919050565b6128ff816128e0565b811461290a57600080fd5b50565b60008151905061291c816128f6565b92915050565b6000819050919050565b61293581612922565b811461294057600080fd5b50565b6000815190506129528161292c565b92915050565b600081519050612967816121a8565b92915050565b600080600080600060a086880312156129895761298861213b565b5b60006129978882890161290d565b95505060206129a888828901612943565b94505060406129b988828901612958565b93505060606129ca88828901612958565b92505060806129db8882890161290d565b9150509295509295909350565b7f454d43482066656564206661696c656400000000000000000000000000000000600082015250565b6000612a1e601083612094565b9150612a29826129e8565b602082019050919050565b60006020820190508181036000830152612a4d81612a11565b9050919050565b6000612a5f82612922565b9150612a6a83612922565b9250828202612a7881612922565b91507f80000000000000000000000000000000000000000000000000000000000000008414600084121615612ab057612aaf612739565b5b8282058414831517612ac557612ac4612739565b5b5092915050565b7f496e76616c696420454d43482072617465000000000000000000000000000000600082015250565b6000612b02601183612094565b9150612b0d82612acc565b602082019050919050565b60006020820190508181036000830152612b3181612af5565b9050919050565b6000612b438261219e565b9150612b4e8361219e565b9250828202612b5c8161219e565b91508282048414831517612b7357612b72612739565b5b5092915050565b7f4e487b7100000000000000000000000000000000000000000000000000000000600052601260045260246000fd5b6000612bb48261219e565b9150612bbf8361219e565b925082612bcf57612bce612b7a565b5b828204905092915050565b7f4e487b7100000000000000000000000000000000000000000000000000000000600052604160045260246000fd5b7f4e487b7100000000000000000000000000000000000000000000000000000000600052603260045260246000fd5b7f496e76616c696420415641582f55534420707269636500000000000000000000600082015250565b6000612c6e601683612094565b9150612c7982612c38565b602082019050919050565b60006020820190508181036000830152612c9d81612c61565b9050919050565b7f4e6f742042657474696e67436f6e747261637400000000000000000000000000600082015250565b6000612cda601383612094565b9150612ce582612ca4565b602082019050919050565b60006020820190508181036000830152612d0981612ccd565b9050919050565b7f4e6f20415641582073656e740000000000000000000000000000000000000000600082015250565b6000612d46600c83612094565b9150612d5182612d10565b602082019050919050565b60006020820190508181036000830152612d7581612d39565b9050919050565b6000612d878261219e565b9150612d928361219e565b9250828201905080821115612daa57612da9612739565b5b92915050565b6000606082019050612dc5600083018661224a565b612dd2602083018561224a565b612ddf604083018461224a565b949350505050565b7f416d6f756e74206d7573742062652067726561746572207468616e207a65726f600082015250565b6000612e1d602083612094565b9150612e2882612de7565b602082019050919050565b60006020820190508181036000830152612e4c81612e10565b9050919050565b7f5a65726f20616464726573730000000000000000000000000000000000000000600082015250565b6000612e89600c83612094565b9150612e9482612e53565b602082019050919050565b60006020820190508181036000830152612eb881612e7c565b9050919050565b7f496e76616c696420746f20616464726573730000000000000000000000000000600082015250565b6000612ef5601283612094565b9150612f0082612ebf565b602082019050919050565b60006020820190508181036000830152612f2481612ee8565b905091905056fea26469706673582212204e589fbb0f0b8c160cab8ca2b60e1e02e7673e94b6d738e1638701db4787db4d64736f6c634300081e0033",
  "linkReferences": {},
  "deployedLinkReferences": {}
}