{
  "_format": "hh-sol-artifact-1",
  "contractName": "Lottery",
  "sourceName": "contracts/LotteryContract.sol",
  "abi": [
    {
      "inputs": [
        {
          "internalType": "uint256",
          "name": "subscriptionId",
          "type": "uint256"
        },
        {
          "internalType": "uint256",
          "name": "updateInterval",
          "type": "uint256"
        },
        {
          "internalType": "address",
          "name": "_vrfCoordinator",
          "type": "address"
        },
        {
          "internalType": "bytes32",
          "name": "_keyHash",
          "type": "bytes32"
        }
      ],
      "stateMutability": "nonpayable",
      "type": "constructor"
    },
    {
      "inputs": [
        {
          "internalType": "address",
          "name": "have",
          "type": "address"
        },
        {
          "internalType": "address",
          "name": "want",
          "type": "address"
        }
      ],
      "name": "OnlyCoordinatorCanFulfill",
      "type": "error"
    },
    {
      "inputs": [
        {
          "internalType": "address",
          "name": "have",
          "type": "address"
        },
        {
          "internalType": "address",
          "name": "owner",
          "type": "address"
        },
        {
          "internalType": "address",
          "name": "coordinator",
          "type": "address"
        }
      ],
      "name": "OnlyOwnerOrCoordinator",
      "type": "error"
    },
    {
      "inputs": [],
      "name": "ZeroAddress",
      "type": "error"
    },
    {
      "anonymous": false,
      "inputs": [
        {
          "indexed": false,
          "internalType": "address",
          "name": "vrfCoordinator",
          "type": "address"
        }
      ],
      "name": "CoordinatorSet",
      "type": "event"
    },
    {
      "anonymous": false,
      "inputs": [
        {
          "indexed": true,
          "internalType": "address",
          "name": "user",
          "type": "address"
        },
        {
          "indexed": false,
          "internalType": "uint256",
          "name": "amount",
          "type": "uint256"
        }
      ],
      "name": "LotteryEntered",
      "type": "event"
    },
    {
      "anonymous": false,
      "inputs": [
        {
          "indexed": true,
          "internalType": "address",
          "name": "from",
          "type": "address"
        },
        {
          "indexed": true,
          "internalType": "address",
          "name": "to",
          "type": "address"
        }
      ],
      "name": "OwnershipTransferRequested",
      "type": "event"
    },
    {
      "anonymous": false,
      "inputs": [
        {
          "indexed": true,
          "internalType": "address",
          "name": "from",
          "type": "address"
        },
        {
          "indexed": true,
          "internalType": "address",
          "name": "to",
          "type": "address"
        }
      ],
      "name": "OwnershipTransferred",
      "type": "event"
    },
    {
      "anonymous": false,
      "inputs": [
        {
          "indexed": true,
          "internalType": "address",
          "name": "newOwner",
          "type": "address"
        }
      ],
      "name": "OwnershipTransferred",
      "type": "event"
    },
    {
      "anonymous": false,
      "inputs": [
        {
          "indexed": true,
          "internalType": "address",
          "name": "sender",
          "type": "address"
        },
        {
          "indexed": false,
          "internalType": "uint256",
          "name": "amount",
          "type": "uint256"
        }
      ],
      "name": "Received",
      "type": "event"
    },
    {
      "anonymous": false,
      "inputs": [
        {
          "indexed": false,
          "internalType": "address[]",
          "name": "winners",
          "type": "address[]"
        },
        {
          "indexed": false,
          "internalType": "uint256[]",
          "name": "prizes",
          "type": "uint256[]"
        }
      ],
      "name": "WinnersPicked",
      "type": "event"
    },
    {
      "inputs": [],
      "name": "acceptOwnership",
      "outputs": [],
      "stateMutability": "nonpayable",
      "type": "function"
    },
    {
      "inputs": [],
      "name": "admin",
      "outputs": [
        {
          "internalType": "address",
          "name": "",
          "type": "address"
        }
      ],
      "stateMutability": "view",
      "type": "function"
    },
    {
      "inputs": [],
      "name": "bettingContract",
      "outputs": [
        {
          "internalType": "address",
          "name": "",
          "type": "address"
        }
      ],
      "stateMutability": "view",
      "type": "function"
    },
    {
      "inputs": [],
      "name": "callbackGasLimit",
      "outputs": [
        {
          "internalType": "uint32",
          "name": "",
          "type": "uint32"
        }
      ],
      "stateMutability": "view",
      "type": "function"
    },
    {
      "inputs": [
        {
          "internalType": "address",
          "name": "newAdmin",
          "type": "address"
        }
      ],
      "name": "changeAdmin",
      "outputs": [],
      "stateMutability": "nonpayable",
      "type": "function"
    },
    {
      "inputs": [
        {
          "internalType": "bytes",
          "name": "",
          "type": "bytes"
        }
      ],
      "name": "checkUpkeep",
      "outputs": [
        {
          "internalType": "bool",
          "name": "upkeepNeeded",
          "type": "bool"
        },
        {
          "internalType": "bytes",
          "name": "",
          "type": "bytes"
        }
      ],
      "stateMutability": "view",
      "type": "function"
    },
    {
      "inputs": [
        {
          "internalType": "address",
          "name": "user",
          "type": "address"
        }
      ],
      "name": "enterLottery",
      "outputs": [],
      "stateMutability": "payable",
      "type": "function"
    },
    {
      "inputs": [],
      "name": "getParticipants",
      "outputs": [
        {
          "internalType": "address[]",
          "name": "",
          "type": "address[]"
        }
      ],
      "stateMutability": "view",
      "type": "function"
    },
    {
      "inputs": [
        {
          "internalType": "address",
          "name": "user",
          "type": "address"
        }
      ],
      "name": "getPoints",
      "outputs": [
        {
          "internalType": "uint256",
          "name": "",
          "type": "uint256"
        }
      ],
      "stateMutability": "view",
      "type": "function"
    },
    {
      "inputs": [],
      "name": "getTimeRemaining",
      "outputs": [
        {
          "internalType": "uint256",
          "name": "",
          "type": "uint256"
        }
      ],
      "stateMutability": "view",
      "type": "function"
    },
    {
      "inputs": [
        {
          "internalType": "address",
          "name": "",
          "type": "address"
        }
      ],
      "name": "hasParticipated",
      "outputs": [
        {
          "internalType": "bool",
          "name": "",
          "type": "bool"
        }
      ],
      "stateMutability": "view",
      "type": "function"
    },
    {
      "inputs": [],
      "name": "interval",
      "outputs": [
        {
          "internalType": "uint256",
          "name": "",
          "type": "uint256"
        }
      ],
      "stateMutability": "view",
      "type": "function"
    },
    {
      "inputs": [],
      "name": "lastTimeStamp",
      "outputs": [
        {
          "internalType": "uint256",
          "name": "",
          "type": "uint256"
        }
      ],
      "stateMutability": "view",
      "type": "function"
    },
    {
      "inputs": [],
      "name": "numWords",
      "outputs": [
        {
          "internalType": "uint32",
          "name": "",
          "type": "uint32"
        }
      ],
      "stateMutability": "view",
      "type": "function"
    },
    {
      "inputs": [],
      "name": "owner",
      "outputs": [
        {
          "internalType": "address",
          "name": "",
          "type": "address"
        }
      ],
      "stateMutability": "view",
      "type": "function"
    },
    {
      "inputs": [
        {
          "internalType": "uint256",
          "name": "",
          "type": "uint256"
        }
      ],
      "name": "participants",
      "outputs": [
        {
          "internalType": "address",
          "name": "",
          "type": "address"
        }
      ],
      "stateMutability": "view",
      "type": "function"
    },
    {
      "inputs": [
        {
          "internalType": "bytes",
          "name": "",
          "type": "bytes"
        }
      ],
      "name": "performUpkeep",
      "outputs": [],
      "stateMutability": "nonpayable",
      "type": "function"
    },
    {
      "inputs": [
        {
          "internalType": "address",
          "name": "",
          "type": "address"
        }
      ],
      "name": "points",
      "outputs": [
        {
          "internalType": "uint256",
          "name": "",
          "type": "uint256"
        }
      ],
      "stateMutability": "view",
      "type": "function"
    },
    {
      "inputs": [
        {
          "internalType": "uint256",
          "name": "requestId",
          "type": "uint256"
        },
        {
          "internalType": "uint256[]",
          "name": "randomWords",
          "type": "uint256[]"
        }
      ],
      "name": "rawFulfillRandomWords",
      "outputs": [],
      "stateMutability": "nonpayable",
      "type": "function"
    },
    {
      "inputs": [],
      "name": "requestConfirmations",
      "outputs": [
        {
          "internalType": "uint16",
          "name": "",
          "type": "uint16"
        }
      ],
      "stateMutability": "view",
      "type": "function"
    },
    {
      "inputs": [],
      "name": "requestPending",
      "outputs": [
        {
          "internalType": "bool",
          "name": "",
          "type": "bool"
        }
      ],
      "stateMutability": "view",
      "type": "function"
    },
    {
      "inputs": [],
      "name": "s_keyHash",
      "outputs": [
        {
          "internalType": "bytes32",
          "name": "",
          "type": "bytes32"
        }
      ],
      "stateMutability": "view",
      "type": "function"
    },
    {
      "inputs": [],
      "name": "s_subscriptionId",
      "outputs": [
        {
          "internalType": "uint256",
          "name": "",
          "type": "uint256"
        }
      ],
      "stateMutability": "view",
      "type": "function"
    },
    {
      "inputs": [],
      "name": "s_vrfCoordinator",
      "outputs": [
        {
          "internalType": "contract IVRFCoordinatorV2Plus",
          "name": "",
          "type": "address"
        }
      ],
      "stateMutability": "view",
      "type": "function"
    },
    {
      "inputs": [
        {
          "internalType": "address",
          "name": "_bettingContract",
          "type": "address"
        }
      ],
      "name": "setBettingContract",
      "outputs": [],
      "stateMutability": "nonpayable",
      "type": "function"
    },
    {
      "inputs": [
        {
          "internalType": "address",
          "name": "_vrfCoordinator",
          "type": "address"
        }
      ],
      "name": "setCoordinator",
      "outputs": [],
      "stateMutability": "nonpayable",
      "type": "function"
    },
    {
      "inputs": [],
      "name": "totalPool",
      "outputs": [
        {
          "internalType": "uint256",
          "name": "",
          "type": "uint256"
        }
      ],
      "stateMutability": "view",
      "type": "function"
    },
    {
      "inputs": [
        {
          "internalType": "address",
          "name": "to",
          "type": "address"
        }
      ],
      "name": "transferOwnership",
      "outputs": [],
      "stateMutability": "nonpayable",
      "type": "function"
    },
    {
      "inputs": [],
      "name": "vrfCoordinator",
      "outputs": [
        {
          "internalType": "address",
          "name": "",
          "type": "address"
        }
      ],
      "stateMutability": "view",
      "type": "function"
    },
    {
      "stateMutability": "payable",
      "type": "receive"
    }
  ],
  "bytecode": "0x60c06040526207a120600460146101000a81548163ffffffff021916908363ffffffff1602179055506003600460186101000a81548161ffff021916908361ffff16021790555060036004601a6101000a81548163ffffffff021916908363ffffffff16021790555034801561007457600080fd5b5060405161371c38038061371c833981810160405281019061009691906104ce565b81338060008073ffffffffffffffffffffffffffffffffffffffff168273ffffffffffffffffffffffffffffffffffffffff1603610109576040517f08c379a000000000000000000000000000000000000000000000000000000000815260040161010090610592565b60405180910390fd5b816000806101000a81548173ffffffffffffffffffffffffffffffffffffffff021916908373ffffffffffffffffffffffffffffffffffffffff160217905550600073ffffffffffffffffffffffffffffffffffffffff168173ffffffffffffffffffffffffffffffffffffffff161461018d5761018c816102d360201b60201c565b5b505050600073ffffffffffffffffffffffffffffffffffffffff168173ffffffffffffffffffffffffffffffffffffffff16036101f6576040517fd92e233d00000000000000000000000000000000000000000000000000000000815260040160405180910390fd5b80600260006101000a81548173ffffffffffffffffffffffffffffffffffffffff021916908373ffffffffffffffffffffffffffffffffffffffff16021790555050836003819055508260098190555042600a8190555033600b60016101000a81548173ffffffffffffffffffffffffffffffffffffffff021916908373ffffffffffffffffffffffffffffffffffffffff1602179055508173ffffffffffffffffffffffffffffffffffffffff1660808173ffffffffffffffffffffffffffffffffffffffff16815250508060a081815250505050505061061e565b3373ffffffffffffffffffffffffffffffffffffffff168173ffffffffffffffffffffffffffffffffffffffff1603610341576040517f08c379a0000000000000000000000000000000000000000000000000000000008152600401610338906105fe565b60405180910390fd5b80600160006101000a81548173ffffffffffffffffffffffffffffffffffffffff021916908373ffffffffffffffffffffffffffffffffffffffff1602179055508073ffffffffffffffffffffffffffffffffffffffff1660008054906101000a900473ffffffffffffffffffffffffffffffffffffffff1673ffffffffffffffffffffffffffffffffffffffff167fed8889f560326eb138920d842192f0eb3dd22b4f139c87a2c57538e05bae127860405160405180910390a350565b600080fd5b6000819050919050565b61041781610404565b811461042257600080fd5b50565b6000815190506104348161040e565b92915050565b600073ffffffffffffffffffffffffffffffffffffffff82169050919050565b60006104658261043a565b9050919050565b6104758161045a565b811461048057600080fd5b50565b6000815190506104928161046c565b92915050565b6000819050919050565b6104ab81610498565b81146104b657600080fd5b50565b6000815190506104c8816104a2565b92915050565b600080600080608085870312156104e8576104e76103ff565b5b60006104f687828801610425565b945050602061050787828801610425565b935050604061051887828801610483565b9250506060610529878288016104b9565b91505092959194509250565b600082825260208201905092915050565b7f43616e6e6f7420736574206f776e657220746f207a65726f0000000000000000600082015250565b600061057c601883610535565b915061058782610546565b602082019050919050565b600060208201905081810360008301526105ab8161056f565b9050919050565b7f43616e6e6f74207472616e7366657220746f2073656c66000000000000000000600082015250565b60006105e8601783610535565b91506105f3826105b2565b602082019050919050565b60006020820190508181036000830152610617816105db565b9050919050565b60805160a0516130d261064a60003960008181610ae90152610c30015260006112ad01526130d26000f3fe6080604052600436106101c65760003560e01c80638da5cb5b116100f7578063b0fb162f11610095578063ecfb49a311610064578063ecfb49a31461066f578063ee204abb1461069a578063f2fde38b146106d7578063f851a440146107005761021b565b8063b0fb162f146105c0578063b4fb3ee3146105eb578063dac6270d14610628578063e3a0b950146106535761021b565b8063947a36fb116100d1578063947a36fb146105145780639d5849e71461053f5780639eccacf61461056a578063a3e56fa8146105955761021b565b80638da5cb5b146104975780638ea98117146104c25780638f283970146104eb5761021b565b80634585e33b116101645780636e04ff0d1161013e5780636e04ff0d146103ec57806379ba50971461042a5780637ccfd7fc146104415780638ac000211461046c5761021b565b80634585e33b1461036d57806345bb327b146103965780635aa68ac0146103c15761021b565b806330fce48b116101a057806330fce48b1461029f578063358b8166146102c857806335c1d349146103055780633f3b3b27146103425761021b565b80631fe543e31461022057806321cb48311461024957806324f74697146102745761021b565b3661021b573373ffffffffffffffffffffffffffffffffffffffff167f88a5966d370b9919b20f3e2c13ff65706f196a4e32cc2c12bf57088f885258743460405161021191906120db565b60405180910390a2005b600080fd5b34801561022c57600080fd5b5061024760048036038101906102429190612191565b61072b565b005b34801561025557600080fd5b5061025e6107f1565b60405161026b9190612232565b60405180910390f35b34801561028057600080fd5b50610289610817565b604051610296919061226c565b60405180910390f35b3480156102ab57600080fd5b506102c660048036038101906102c191906122b3565b61082d565b005b3480156102d457600080fd5b506102ef60048036038101906102ea91906122b3565b610970565b6040516102fc91906120db565b60405180910390f35b34801561031157600080fd5b5061032c600480360381019061032791906122e0565b610988565b6040516103399190612232565b60405180910390f35b34801561034e57600080fd5b506103576109c7565b60405161036491906120db565b60405180910390f35b34801561037957600080fd5b50610394600480360381019061038f9190612363565b6109cd565b005b3480156103a257600080fd5b506103ab610c2e565b6040516103b891906123c9565b60405180910390f35b3480156103cd57600080fd5b506103d6610c52565b6040516103e391906124a2565b60405180910390f35b3480156103f857600080fd5b50610413600480360381019061040e9190612363565b610ce0565b60405161042192919061256f565b60405180910390f35b34801561043657600080fd5b5061043f610d2b565b005b34801561044d57600080fd5b50610456610ec0565b604051610463919061226c565b60405180910390f35b34801561047857600080fd5b50610481610ed6565b60405161048e91906120db565b60405180910390f35b3480156104a357600080fd5b506104ac610edc565b6040516104b99190612232565b60405180910390f35b3480156104ce57600080fd5b506104e960048036038101906104e491906122b3565b610f05565b005b3480156104f757600080fd5b50610512600480360381019061050d91906122b3565b6110e6565b005b34801561052057600080fd5b5061052961126c565b60405161053691906120db565b60405180910390f35b34801561054b57600080fd5b50610554611272565b604051610561919061259f565b60405180910390f35b34801561057657600080fd5b5061057f611285565b60405161058c9190612619565b60405180910390f35b3480156105a157600080fd5b506105aa6112ab565b6040516105b79190612232565b60405180910390f35b3480156105cc57600080fd5b506105d56112cf565b6040516105e29190612651565b60405180910390f35b3480156105f757600080fd5b50610612600480360381019061060d91906122b3565b6112e3565b60405161061f919061259f565b60405180910390f35b34801561063457600080fd5b5061063d611303565b60405161064a91906120db565b60405180910390f35b61066d600480360381019061066891906122b3565b611345565b005b34801561067b57600080fd5b506106846115e6565b60405161069191906120db565b60405180910390f35b3480156106a657600080fd5b506106c160048036038101906106bc91906122b3565b6115ec565b6040516106ce91906120db565b60405180910390f35b3480156106e357600080fd5b506106fe60048036038101906106f991906122b3565b611635565b005b34801561070c57600080fd5b50610715611649565b6040516107229190612232565b60405180910390f35b600260009054906101000a900473ffffffffffffffffffffffffffffffffffffffff1673ffffffffffffffffffffffffffffffffffffffff163373ffffffffffffffffffffffffffffffffffffffff16146107e15733600260009054906101000a900473ffffffffffffffffffffffffffffffffffffffff166040517f1cf993f40000000000000000000000000000000000000000000000000000000081526004016107d892919061266c565b60405180910390fd5b6107ec83838361166f565b505050565b600460009054906101000a900473ffffffffffffffffffffffffffffffffffffffff1681565b600460149054906101000a900463ffffffff1681565b600b60019054906101000a900473ffffffffffffffffffffffffffffffffffffffff1673ffffffffffffffffffffffffffffffffffffffff163373ffffffffffffffffffffffffffffffffffffffff16146108bd576040517f08c379a00000000000000000000000000000000000000000000000000000000081526004016108b4906126f2565b60405180910390fd5b600073ffffffffffffffffffffffffffffffffffffffff168173ffffffffffffffffffffffffffffffffffffffff160361092c576040517f08c379a00000000000000000000000000000000000000000000000000000000081526004016109239061275e565b60405180910390fd5b80600460006101000a81548173ffffffffffffffffffffffffffffffffffffffff021916908373ffffffffffffffffffffffffffffffffffffffff16021790555050565b60056020528060005260406000206000915090505481565b6006818154811061099857600080fd5b906000526020600020016000915054906101000a900473ffffffffffffffffffffffffffffffffffffffff1681565b600a5481565b600954600a54426109de91906127ad565b1015610a1f576040517f08c379a0000000000000000000000000000000000000000000000000000000008152600401610a169061282d565b60405180910390fd5b60036006805490501015610a68576040517f08c379a0000000000000000000000000000000000000000000000000000000008152600401610a5f90612899565b60405180910390fd5b600b60009054906101000a900460ff1615610ab8576040517f08c379a0000000000000000000000000000000000000000000000000000000008152600401610aaf90612905565b60405180910390fd5b42600a819055506001600b60006101000a81548160ff02191690831515021790555060006040518060c001604052807f000000000000000000000000000000000000000000000000000000000000000081526020016003548152602001600460189054906101000a900461ffff1661ffff168152602001600460149054906101000a900463ffffffff1663ffffffff1681526020016004601a9054906101000a900463ffffffff1663ffffffff168152602001610b85604051806020016040528060001515815250611e30565b8152509050600260009054906101000a900473ffffffffffffffffffffffffffffffffffffffff1673ffffffffffffffffffffffffffffffffffffffff16639b1c385e826040518263ffffffff1660e01b8152600401610be59190612a34565b6020604051808303816000875af1158015610c04573d6000803e3d6000fd5b505050506040513d601f19601f82011682018060405250810190610c289190612a6b565b50505050565b7f000000000000000000000000000000000000000000000000000000000000000081565b60606006805480602002602001604051908101604052809291908181526020018280548015610cd657602002820191906000526020600020905b8160009054906101000a900473ffffffffffffffffffffffffffffffffffffffff1673ffffffffffffffffffffffffffffffffffffffff1681526020019060010190808311610c8c575b5050505050905090565b60006060600954600a5442610cf591906127ad565b10158015610d095750600360068054905010155b8015610d225750600b60009054906101000a900460ff16155b91509250929050565b600160009054906101000a900473ffffffffffffffffffffffffffffffffffffffff1673ffffffffffffffffffffffffffffffffffffffff163373ffffffffffffffffffffffffffffffffffffffff1614610dbb576040517f08c379a0000000000000000000000000000000000000000000000000000000008152600401610db290612ae4565b60405180910390fd5b60008060009054906101000a900473ffffffffffffffffffffffffffffffffffffffff169050336000806101000a81548173ffffffffffffffffffffffffffffffffffffffff021916908373ffffffffffffffffffffffffffffffffffffffff1602179055506000600160006101000a81548173ffffffffffffffffffffffffffffffffffffffff021916908373ffffffffffffffffffffffffffffffffffffffff1602179055503373ffffffffffffffffffffffffffffffffffffffff168173ffffffffffffffffffffffffffffffffffffffff167f8be0079c531659141344cd1fd0a4f28419497f9722a3daafe3b4186f6b6457e060405160405180910390a350565b6004601a9054906101000a900463ffffffff1681565b60035481565b60008060009054906101000a900473ffffffffffffffffffffffffffffffffffffffff16905090565b610f0d610edc565b73ffffffffffffffffffffffffffffffffffffffff163373ffffffffffffffffffffffffffffffffffffffff1614158015610f965750600260009054906101000a900473ffffffffffffffffffffffffffffffffffffffff1673ffffffffffffffffffffffffffffffffffffffff163373ffffffffffffffffffffffffffffffffffffffff1614155b156110055733610fa4610edc565b600260009054906101000a900473ffffffffffffffffffffffffffffffffffffffff166040517f061db9c1000000000000000000000000000000000000000000000000000000008152600401610ffc93929190612b04565b60405180910390fd5b600073ffffffffffffffffffffffffffffffffffffffff168173ffffffffffffffffffffffffffffffffffffffff160361106b576040517fd92e233d00000000000000000000000000000000000000000000000000000000815260040160405180910390fd5b80600260006101000a81548173ffffffffffffffffffffffffffffffffffffffff021916908373ffffffffffffffffffffffffffffffffffffffff1602179055507fd1a6a14209a385a964d036e404cb5cfb71f4000cdb03c9366292430787261be6816040516110db9190612232565b60405180910390a150565b600b60019054906101000a900473ffffffffffffffffffffffffffffffffffffffff1673ffffffffffffffffffffffffffffffffffffffff163373ffffffffffffffffffffffffffffffffffffffff1614611176576040517f08c379a000000000000000000000000000000000000000000000000000000000815260040161116d906126f2565b60405180910390fd5b600073ffffffffffffffffffffffffffffffffffffffff168173ffffffffffffffffffffffffffffffffffffffff16036111e5576040517f08c379a00000000000000000000000000000000000000000000000000000000081526004016111dc90612b87565b60405180910390fd5b80600b60016101000a81548173ffffffffffffffffffffffffffffffffffffffff021916908373ffffffffffffffffffffffffffffffffffffffff1602179055508073ffffffffffffffffffffffffffffffffffffffff167f04dba622d284ed0014ee4b9a6a68386be1a4c08a4913ae272de89199cc68616360405160405180910390a250565b60095481565b600b60009054906101000a900460ff1681565b600260009054906101000a900473ffffffffffffffffffffffffffffffffffffffff1681565b7f000000000000000000000000000000000000000000000000000000000000000081565b600460189054906101000a900461ffff1681565b60076020528060005260406000206000915054906101000a900460ff1681565b6000600954600a544261131691906127ad565b106113245760009050611342565b600a544261133291906127ad565b60095461133f91906127ad565b90505b90565b600460009054906101000a900473ffffffffffffffffffffffffffffffffffffffff1673ffffffffffffffffffffffffffffffffffffffff163373ffffffffffffffffffffffffffffffffffffffff16146113d5576040517f08c379a00000000000000000000000000000000000000000000000000000000081526004016113cc90612bf3565b60405180910390fd5b60003411611418576040517f08c379a000000000000000000000000000000000000000000000000000000000815260040161140f90612c5f565b60405180910390fd5b600760008273ffffffffffffffffffffffffffffffffffffffff1673ffffffffffffffffffffffffffffffffffffffff16815260200190815260200160002060009054906101000a900460ff16611525576006819080600181540180825580915050600190039060005260206000200160009091909190916101000a81548173ffffffffffffffffffffffffffffffffffffffff021916908373ffffffffffffffffffffffffffffffffffffffff1602179055506001600760008373ffffffffffffffffffffffffffffffffffffffff1673ffffffffffffffffffffffffffffffffffffffff16815260200190815260200160002060006101000a81548160ff0219169083151502179055505b6001600560008373ffffffffffffffffffffffffffffffffffffffff1673ffffffffffffffffffffffffffffffffffffffff16815260200190815260200160002060008282546115759190612c7f565b92505081905550346008600082825461158e9190612c7f565b925050819055508073ffffffffffffffffffffffffffffffffffffffff167fc28711c8dcc0cb3d25732e13809d1d8c2640669a0a3fb4f7729810a9caaffdff346040516115db91906120db565b60405180910390a250565b60085481565b6000600560008373ffffffffffffffffffffffffffffffffffffffff1673ffffffffffffffffffffffffffffffffffffffff168152602001908152602001600020549050919050565b61163d611ec8565b61164681611f58565b50565b600b60019054906101000a900473ffffffffffffffffffffffffffffffffffffffff1681565b60038282905010156116b6576040517f08c379a00000000000000000000000000000000000000000000000000000000081526004016116ad90612cff565b60405180910390fd5b6000600367ffffffffffffffff8111156116d3576116d2612d1f565b5b6040519080825280602002602001820160405280156117015781602001602082028036833780820191505090505b509050600060068054905067ffffffffffffffff81111561172557611724612d1f565b5b6040519080825280602002602001820160405280156117535781602001602082028036833780820191505090505b5090506000805b6006805490508110156117ff57600560006006838154811061177f5761177e612d4e565b5b9060005260206000200160009054906101000a900473ffffffffffffffffffffffffffffffffffffffff1673ffffffffffffffffffffffffffffffffffffffff1673ffffffffffffffffffffffffffffffffffffffff16815260200190815260200160002054826117f09190612c7f565b9150808060010191505061175a565b506000805b6003821080156118145750606481105b15611a015760008388888a8a90508661182d9190612dac565b81811061183d5761183c612d4e565b5b9050602002013561184e9190612dac565b90506000805b6006805490508110156119eb57600560006006838154811061187957611878612d4e565b5b9060005260206000200160009054906101000a900473ffffffffffffffffffffffffffffffffffffffff1673ffffffffffffffffffffffffffffffffffffffff1673ffffffffffffffffffffffffffffffffffffffff16815260200190815260200160002054826118ea9190612c7f565b91508183108015611913575086818151811061190957611908612d4e565b5b6020026020010151155b156119de576006818154811061192c5761192b612d4e565b5b9060005260206000200160009054906101000a900473ffffffffffffffffffffffffffffffffffffffff1688868151811061196a57611969612d4e565b5b602002602001019073ffffffffffffffffffffffffffffffffffffffff16908173ffffffffffffffffffffffffffffffffffffffff168152505060018782815181106119b9576119b8612d4e565b5b60200260200101901515908115158152505084806119d690612ddd565b9550506119eb565b8080600101915050611854565b5082806119f790612ddd565b9350505050611804565b600060646005600854611a149190612e25565b611a1e9190612e67565b9050600081600854611a3091906127ad565b90506000600367ffffffffffffffff811115611a4f57611a4e612d1f565b5b604051908082528060200260200182016040528015611a7d5781602001602082028036833780820191505090505b5090506064602883611a8f9190612e25565b611a999190612e67565b81600081518110611aad57611aac612d4e565b5b6020026020010181815250506064601e83611ac89190612e25565b611ad29190612e67565b81600181518110611ae657611ae5612d4e565b5b6020026020010181815250506064601483611b019190612e25565b611b0b9190612e67565b81600281518110611b1f57611b1e612d4e565b5b60200260200101818152505060005b85811015611bbe57888181518110611b4957611b48612d4e565b5b602002602001015173ffffffffffffffffffffffffffffffffffffffff166108fc838381518110611b7d57611b7c612d4e565b5b60200260200101519081150290604051600060405180830381858888f19350505050158015611bb0573d6000803e3d6000fd5b508080600101915050611b2e565b50600083118015611c1e5750600073ffffffffffffffffffffffffffffffffffffffff16600460009054906101000a900473ffffffffffffffffffffffffffffffffffffffff1673ffffffffffffffffffffffffffffffffffffffff1614155b15611c8d57600460009054906101000a900473ffffffffffffffffffffffffffffffffffffffff1673ffffffffffffffffffffffffffffffffffffffff166108fc849081150290604051600060405180830381858888f19350505050158015611c8b573d6000803e3d6000fd5b505b7ffc49ebbec72d32bd8b287a8ec3c43bf2c1d47fb9b36867819560bcf3c32090138882604051611cbe929190612f47565b60405180910390a160005b600680549050811015611df1576005600060068381548110611cee57611ced612d4e565b5b9060005260206000200160009054906101000a900473ffffffffffffffffffffffffffffffffffffffff1673ffffffffffffffffffffffffffffffffffffffff1673ffffffffffffffffffffffffffffffffffffffff168152602001908152602001600020600090556007600060068381548110611d6f57611d6e612d4e565b5b9060005260206000200160009054906101000a900473ffffffffffffffffffffffffffffffffffffffff1673ffffffffffffffffffffffffffffffffffffffff1673ffffffffffffffffffffffffffffffffffffffff16815260200190815260200160002060006101000a81549060ff02191690558080600101915050611cc9565b5060066000611e009190612084565b60006008819055506000600b60006101000a81548160ff0219169083151502179055505050505050505050505050565b60607f92fd13387c7fe7befbc38d303d6468778fb9731bc4583f17d92989c6fcfdeaaa82604051602401611e649190612fa9565b604051602081830303815290604052907bffffffffffffffffffffffffffffffffffffffffffffffffffffffff19166020820180517bffffffffffffffffffffffffffffffffffffffffffffffffffffffff83818316178352505050509050919050565b60008054906101000a900473ffffffffffffffffffffffffffffffffffffffff1673ffffffffffffffffffffffffffffffffffffffff163373ffffffffffffffffffffffffffffffffffffffff1614611f56576040517f08c379a0000000000000000000000000000000000000000000000000000000008152600401611f4d90613010565b60405180910390fd5b565b3373ffffffffffffffffffffffffffffffffffffffff168173ffffffffffffffffffffffffffffffffffffffff1603611fc6576040517f08c379a0000000000000000000000000000000000000000000000000000000008152600401611fbd9061307c565b60405180910390fd5b80600160006101000a81548173ffffffffffffffffffffffffffffffffffffffff021916908373ffffffffffffffffffffffffffffffffffffffff1602179055508073ffffffffffffffffffffffffffffffffffffffff1660008054906101000a900473ffffffffffffffffffffffffffffffffffffffff1673ffffffffffffffffffffffffffffffffffffffff167fed8889f560326eb138920d842192f0eb3dd22b4f139c87a2c57538e05bae127860405160405180910390a350565b50805460008255906000526020600020908101906120a291906120a5565b50565b5b808211156120be5760008160009055506001016120a6565b5090565b6000819050919050565b6120d5816120c2565b82525050565b60006020820190506120f060008301846120cc565b92915050565b600080fd5b600080fd5b612109816120c2565b811461211457600080fd5b50565b60008135905061212681612100565b92915050565b600080fd5b600080fd5b600080fd5b60008083601f8401126121515761215061212c565b5b8235905067ffffffffffffffff81111561216e5761216d612131565b5b60208301915083602082028301111561218a57612189612136565b5b9250929050565b6000806000604084860312156121aa576121a96120f6565b5b60006121b886828701612117565b935050602084013567ffffffffffffffff8111156121d9576121d86120fb565b5b6121e58682870161213b565b92509250509250925092565b600073ffffffffffffffffffffffffffffffffffffffff82169050919050565b600061221c826121f1565b9050919050565b61222c81612211565b82525050565b60006020820190506122476000830184612223565b92915050565b600063ffffffff82169050919050565b6122668161224d565b82525050565b6000602082019050612281600083018461225d565b92915050565b61229081612211565b811461229b57600080fd5b50565b6000813590506122ad81612287565b92915050565b6000602082840312156122c9576122c86120f6565b5b60006122d78482850161229e565b91505092915050565b6000602082840312156122f6576122f56120f6565b5b600061230484828501612117565b91505092915050565b60008083601f8401126123235761232261212c565b5b8235905067ffffffffffffffff8111156123405761233f612131565b5b60208301915083600182028301111561235c5761235b612136565b5b9250929050565b6000806020838503121561237a576123796120f6565b5b600083013567ffffffffffffffff811115612398576123976120fb565b5b6123a48582860161230d565b92509250509250929050565b6000819050919050565b6123c3816123b0565b82525050565b60006020820190506123de60008301846123ba565b92915050565b600081519050919050565b600082825260208201905092915050565b6000819050602082019050919050565b61241981612211565b82525050565b600061242b8383612410565b60208301905092915050565b6000602082019050919050565b600061244f826123e4565b61245981856123ef565b935061246483612400565b8060005b8381101561249557815161247c888261241f565b975061248783612437565b925050600181019050612468565b5085935050505092915050565b600060208201905081810360008301526124bc8184612444565b905092915050565b60008115159050919050565b6124d9816124c4565b82525050565b600081519050919050565b600082825260208201905092915050565b60005b838110156125195780820151818401526020810190506124fe565b60008484015250505050565b6000601f19601f8301169050919050565b6000612541826124df565b61254b81856124ea565b935061255b8185602086016124fb565b61256481612525565b840191505092915050565b600060408201905061258460008301856124d0565b81810360208301526125968184612536565b90509392505050565b60006020820190506125b460008301846124d0565b92915050565b6000819050919050565b60006125df6125da6125d5846121f1565b6125ba565b6121f1565b9050919050565b60006125f1826125c4565b9050919050565b6000612603826125e6565b9050919050565b612613816125f8565b82525050565b600060208201905061262e600083018461260a565b92915050565b600061ffff82169050919050565b61264b81612634565b82525050565b60006020820190506126666000830184612642565b92915050565b60006040820190506126816000830185612223565b61268e6020830184612223565b9392505050565b600082825260208201905092915050565b7f4e6f74206f776e65720000000000000000000000000000000000000000000000600082015250565b60006126dc600983612695565b91506126e7826126a6565b602082019050919050565b6000602082019050818103600083015261270b816126cf565b9050919050565b7f496e76616c696420616464726573730000000000000000000000000000000000600082015250565b6000612748600f83612695565b915061275382612712565b602082019050919050565b600060208201905081810360008301526127778161273b565b9050919050565b7f4e487b7100000000000000000000000000000000000000000000000000000000600052601160045260246000fd5b60006127b8826120c2565b91506127c3836120c2565b92508282039050818111156127db576127da61277e565b5b92915050565b7f546f6f206561726c790000000000000000000000000000000000000000000000600082015250565b6000612817600983612695565b9150612822826127e1565b602082019050919050565b600060208201905081810360008301526128468161280a565b9050919050565b7f4e6f7420656e6f75676820706c61796572730000000000000000000000000000600082015250565b6000612883601283612695565b915061288e8261284d565b602082019050919050565b600060208201905081810360008301526128b281612876565b9050919050565b7f5265717565737420616c72656164792070656e64696e67000000000000000000600082015250565b60006128ef601783612695565b91506128fa826128b9565b602082019050919050565b6000602082019050818103600083015261291e816128e2565b9050919050565b61292e816123b0565b82525050565b61293d816120c2565b82525050565b61294c81612634565b82525050565b61295b8161224d565b82525050565b600082825260208201905092915050565b600061297d826124df565b6129878185612961565b93506129978185602086016124fb565b6129a081612525565b840191505092915050565b600060c0830160008301516129c36000860182612925565b5060208301516129d66020860182612934565b5060408301516129e96040860182612943565b5060608301516129fc6060860182612952565b506080830151612a0f6080860182612952565b5060a083015184820360a0860152612a278282612972565b9150508091505092915050565b60006020820190508181036000830152612a4e81846129ab565b905092915050565b600081519050612a6581612100565b92915050565b600060208284031215612a8157612a806120f6565b5b6000612a8f84828501612a56565b91505092915050565b7f4d7573742062652070726f706f736564206f776e657200000000000000000000600082015250565b6000612ace601683612695565b9150612ad982612a98565b602082019050919050565b60006020820190508181036000830152612afd81612ac1565b9050919050565b6000606082019050612b196000830186612223565b612b266020830185612223565b612b336040830184612223565b949350505050565b7f5a65726f20616464726573730000000000000000000000000000000000000000600082015250565b6000612b71600c83612695565b9150612b7c82612b3b565b602082019050919050565b60006020820190508181036000830152612ba081612b64565b9050919050565b7f4e6f7420617574686f72697a6564000000000000000000000000000000000000600082015250565b6000612bdd600e83612695565b9150612be882612ba7565b602082019050919050565b60006020820190508181036000830152612c0c81612bd0565b9050919050565b7f4e6f204554482073656e74000000000000000000000000000000000000000000600082015250565b6000612c49600b83612695565b9150612c5482612c13565b602082019050919050565b60006020820190508181036000830152612c7881612c3c565b9050919050565b6000612c8a826120c2565b9150612c95836120c2565b9250828201905080821115612cad57612cac61277e565b5b92915050565b7f4e6f7420656e6f7567682072616e646f6d6e6573730000000000000000000000600082015250565b6000612ce9601583612695565b9150612cf482612cb3565b602082019050919050565b60006020820190508181036000830152612d1881612cdc565b9050919050565b7f4e487b7100000000000000000000000000000000000000000000000000000000600052604160045260246000fd5b7f4e487b7100000000000000000000000000000000000000000000000000000000600052603260045260246000fd5b7f4e487b7100000000000000000000000000000000000000000000000000000000600052601260045260246000fd5b6000612db7826120c2565b9150612dc2836120c2565b925082612dd257612dd1612d7d565b5b828206905092915050565b6000612de8826120c2565b91507fffffffffffffffffffffffffffffffffffffffffffffffffffffffffffffffff8203612e1a57612e1961277e565b5b600182019050919050565b6000612e30826120c2565b9150612e3b836120c2565b9250828202612e49816120c2565b91508282048414831517612e6057612e5f61277e565b5b5092915050565b6000612e72826120c2565b9150612e7d836120c2565b925082612e8d57612e8c612d7d565b5b828204905092915050565b600081519050919050565b600082825260208201905092915050565b6000819050602082019050919050565b6000612ed08383612934565b60208301905092915050565b6000602082019050919050565b6000612ef482612e98565b612efe8185612ea3565b9350612f0983612eb4565b8060005b83811015612f3a578151612f218882612ec4565b9750612f2c83612edc565b925050600181019050612f0d565b5085935050505092915050565b60006040820190508181036000830152612f618185612444565b90508181036020830152612f758184612ee9565b90509392505050565b612f87816124c4565b82525050565b602082016000820151612fa36000850182612f7e565b50505050565b6000602082019050612fbe6000830184612f8d565b92915050565b7f4f6e6c792063616c6c61626c65206279206f776e657200000000000000000000600082015250565b6000612ffa601683612695565b915061300582612fc4565b602082019050919050565b6000602082019050818103600083015261302981612fed565b9050919050565b7f43616e6e6f74207472616e7366657220746f2073656c66000000000000000000600082015250565b6000613066601783612695565b915061307182613030565b602082019050919050565b6000602082019050818103600083015261309581613059565b905091905056fea2646970667358221220af25d8c02726a4b1a11a6e97108a375ef5e2ad232f77d704539add1146837bbe64736f6c634300081e0033",
  "linkReferences": {},
  "deployedLinkReferences": {}
}