{
  "_format": "hh-sol-artifact-1",
  "contractName": "Vault",
  "sourceName": "contracts/UserVault.sol",
  "abi": [
    {
      "inputs": [],
      "stateMutability": "nonpayable",
      "type": "constructor"
    },
    {
      "anonymous": false,
      "inputs": [
        {
          "indexed": true,
          "internalType": "address",
          "name": "user",
          "type": "address"
        },
        {
          "indexed": false,
          "internalType": "uint256",
          "name": "amount",
          "type": "uint256"
        }
      ],
      "name": "DepositAVAX",
      "type": "event"
    },
    {
      "anonymous": false,
      "inputs": [
        {
          "indexed": true,
          "internalType": "address",
          "name": "user",
          "type": "address"
        },
        {
          "indexed": true,
          "internalType": "address",
          "name": "token",
          "type": "address"
        },
        {
          "indexed": false,
          "internalType": "uint256",
          "name": "amount",
          "type": "uint256"
        }
      ],
      "name": "DepositToken",
      "type": "event"
    },
    {
      "anonymous": false,
      "inputs": [
        {
          "indexed": true,
          "internalType": "address",
          "name": "user",
          "type": "address"
        },
        {
          "indexed": false,
          "internalType": "uint256",
          "name": "amount",
          "type": "uint256"
        }
      ],
      "name": "WithdrawAVAX",
      "type": "event"
    },
    {
      "anonymous": false,
      "inputs": [
        {
          "indexed": true,
          "internalType": "address",
          "name": "user",
          "type": "address"
        },
        {
          "indexed": true,
          "internalType": "address",
          "name": "token",
          "type": "address"
        },
        {
          "indexed": false,
          "internalType": "uint256",
          "name": "amount",
          "type": "uint256"
        }
      ],
      "name": "WithdrawToken",
      "type": "event"
    },
    {
      "inputs": [
        {
          "internalType": "address",
          "name": "",
          "type": "address"
        }
      ],
      "name": "avaxBalances",
      "outputs": [
        {
          "internalType": "uint256",
          "name": "",
          "type": "uint256"
        }
      ],
      "stateMutability": "view",
      "type": "function"
    },
    {
      "inputs": [],
      "name": "bettingContract",
      "outputs": [
        {
          "internalType": "address",
          "name": "",
          "type": "address"
        }
      ],
      "stateMutability": "view",
      "type": "function"
    },
    {
      "inputs": [
        {
          "internalType": "address",
          "name": "user",
          "type": "address"
        },
        {
          "internalType": "uint256",
          "name": "amount",
          "type": "uint256"
        }
      ],
      "name": "deductForBet",
      "outputs": [],
      "stateMutability": "nonpayable",
      "type": "function"
    },
    {
      "inputs": [],
      "name": "depositAVAX",
      "outputs": [],
      "stateMutability": "payable",
      "type": "function"
    },
    {
      "inputs": [
        {
          "internalType": "address",
          "name": "token",
          "type": "address"
        },
        {
          "internalType": "uint256",
          "name": "amount",
          "type": "uint256"
        }
      ],
      "name": "depositToken",
      "outputs": [],
      "stateMutability": "nonpayable",
      "type": "function"
    },
    {
      "inputs": [
        {
          "internalType": "address",
          "name": "user",
          "type": "address"
        }
      ],
      "name": "getAVAXBalance",
      "outputs": [
        {
          "internalType": "uint256",
          "name": "",
          "type": "uint256"
        }
      ],
      "stateMutability": "view",
      "type": "function"
    },
    {
      "inputs": [
        {
          "internalType": "address",
          "name": "token",
          "type": "address"
        },
        {
          "internalType": "address",
          "name": "user",
          "type": "address"
        }
      ],
      "name": "getTokenBalance",
      "outputs": [
        {
          "internalType": "uint256",
          "name": "",
          "type": "uint256"
        }
      ],
      "stateMutability": "view",
      "type": "function"
    },
    {
      "inputs": [],
      "name": "owner",
      "outputs": [
        {
          "internalType": "address",
          "name": "",
          "type": "address"
        }
      ],
      "stateMutability": "view",
      "type": "function"
    },
    {
      "inputs": [
        {
          "internalType": "address",
          "name": "_betting",
          "type": "address"
        }
      ],
      "name": "setBettingContract",
      "outputs": [],
      "stateMutability": "nonpayable",
      "type": "function"
    },
    {
      "inputs": [
        {
          "internalType": "address",
          "name": "",
          "type": "address"
        },
        {
          "internalType": "address",
          "name": "",
          "type": "address"
        }
      ],
      "name": "tokenBalances",
      "outputs": [
        {
          "internalType": "uint256",
          "name": "",
          "type": "uint256"
        }
      ],
      "stateMutability": "view",
      "type": "function"
    },
    {
      "inputs": [
        {
          "internalType": "uint256",
          "name": "amount",
          "type": "uint256"
        }
      ],
      "name": "withdrawAVAX",
      "outputs": [],
      "stateMutability": "nonpayable",
      "type": "function"
    },
    {
      "inputs": [
        {
          "internalType": "address",
          "name": "token",
          "type": "address"
        },
        {
          "internalType": "uint256",
          "name": "amount",
          "type": "uint256"
        }
      ],
      "name": "withdrawToken",
      "outputs": [],
      "stateMutability": "nonpayable",
      "type": "function"
    },
    {
      "stateMutability": "payable",
      "type": "receive"
    }
  ],
  "bytecode": "0x6080604052348015600f57600080fd5b50336000806101000a81548173ffffffffffffffffffffffffffffffffffffffff021916908373ffffffffffffffffffffffffffffffffffffffff1602179055506114aa8061005f6000396000f3fe6080604052600436106100ab5760003560e01c80639e281a98116100645780639e281a981461027d578063a0d065c3146102a6578063aeb5cd5e146102b0578063c489744b146102d9578063d1ce472014610316578063fcb936361461033f57610156565b8063153179581461015b57806321cb48311461019857806330fce48b146101c3578063338b5dea146101ec5780634dbf6c5a146102155780638da5cb5b1461025257610156565b366101565734600360003373ffffffffffffffffffffffffffffffffffffffff1673ffffffffffffffffffffffffffffffffffffffff16815260200190815260200160002060008282546100ff9190610e19565b925050819055503373ffffffffffffffffffffffffffffffffffffffff167f64d94a7544bc0f398394bd748cdd1e03e19432c505e0c9cf292fd39db4b854613460405161014c9190610e5c565b60405180910390a2005b600080fd5b34801561016757600080fd5b50610182600480360381019061017d9190610eda565b61037c565b60405161018f9190610e5c565b60405180910390f35b3480156101a457600080fd5b506101ad6103c5565b6040516101ba9190610f16565b60405180910390f35b3480156101cf57600080fd5b506101ea60048036038101906101e59190610eda565b6103eb565b005b3480156101f857600080fd5b50610213600480360381019061020e9190610f5d565b6104bd565b005b34801561022157600080fd5b5061023c60048036038101906102379190610f9d565b6106bb565b6040516102499190610e5c565b60405180910390f35b34801561025e57600080fd5b506102676106e0565b6040516102749190610f16565b60405180910390f35b34801561028957600080fd5b506102a4600480360381019061029f9190610f5d565b610704565b005b6102ae61097c565b005b3480156102bc57600080fd5b506102d760048036038101906102d29190610fdd565b610a65565b005b3480156102e557600080fd5b5061030060048036038101906102fb9190610f9d565b610bd5565b60405161030d9190610e5c565b60405180910390f35b34801561032257600080fd5b5061033d60048036038101906103389190610f5d565b610c5c565b005b34801561034b57600080fd5b5061036660048036038101906103619190610eda565b610dc8565b6040516103739190610e5c565b60405180910390f35b6000600360008373ffffffffffffffffffffffffffffffffffffffff1673ffffffffffffffffffffffffffffffffffffffff168152602001908152602001600020549050919050565b600160009054906101000a900473ffffffffffffffffffffffffffffffffffffffff1681565b60008054906101000a900473ffffffffffffffffffffffffffffffffffffffff1673ffffffffffffffffffffffffffffffffffffffff163373ffffffffffffffffffffffffffffffffffffffff1614610479576040517f08c379a000000000000000000000000000000000000000000000000000000000815260040161047090611067565b60405180910390fd5b80600160006101000a81548173ffffffffffffffffffffffffffffffffffffffff021916908373ffffffffffffffffffffffffffffffffffffffff16021790555050565b60008111610500576040517f08c379a00000000000000000000000000000000000000000000000000000000081526004016104f7906110d3565b60405180910390fd5b8173ffffffffffffffffffffffffffffffffffffffff166323b872dd3330846040518463ffffffff1660e01b815260040161053d939291906110f3565b6020604051808303816000875af115801561055c573d6000803e3d6000fd5b505050506040513d601f19601f820116820180604052508101906105809190611162565b6105bf576040517f08c379a00000000000000000000000000000000000000000000000000000000081526004016105b6906111db565b60405180910390fd5b80600260008473ffffffffffffffffffffffffffffffffffffffff1673ffffffffffffffffffffffffffffffffffffffff16815260200190815260200160002060003373ffffffffffffffffffffffffffffffffffffffff1673ffffffffffffffffffffffffffffffffffffffff168152602001908152602001600020600082825461064b9190610e19565b925050819055508173ffffffffffffffffffffffffffffffffffffffff163373ffffffffffffffffffffffffffffffffffffffff167f4b3f81827ede20c81afbf1bb77b954afcdcae24d391d99042310cb1d9210dd57836040516106af9190610e5c565b60405180910390a35050565b6002602052816000526040600020602052806000526040600020600091509150505481565b60008054906101000a900473ffffffffffffffffffffffffffffffffffffffff1681565b80600260008473ffffffffffffffffffffffffffffffffffffffff1673ffffffffffffffffffffffffffffffffffffffff16815260200190815260200160002060003373ffffffffffffffffffffffffffffffffffffffff1673ffffffffffffffffffffffffffffffffffffffff1681526020019081526020016000205410156107c3576040517f08c379a00000000000000000000000000000000000000000000000000000000081526004016107ba90611247565b60405180910390fd5b80600260008473ffffffffffffffffffffffffffffffffffffffff1673ffffffffffffffffffffffffffffffffffffffff16815260200190815260200160002060003373ffffffffffffffffffffffffffffffffffffffff1673ffffffffffffffffffffffffffffffffffffffff168152602001908152602001600020600082825461084f9190611267565b925050819055508173ffffffffffffffffffffffffffffffffffffffff1663a9059cbb33836040518363ffffffff1660e01b815260040161089192919061129b565b6020604051808303816000875af11580156108b0573d6000803e3d6000fd5b505050506040513d601f19601f820116820180604052508101906108d49190611162565b610913576040517f08c379a000000000000000000000000000000000000000000000000000000000815260040161090a906111db565b60405180910390fd5b8173ffffffffffffffffffffffffffffffffffffffff163373ffffffffffffffffffffffffffffffffffffffff167f037238854fe57fbf51f09946f854fc3916fe83938d6521f09bd05463839f1304836040516109709190610e5c565b60405180910390a35050565b600034116109bf576040517f08c379a00000000000000000000000000000000000000000000000000000000081526004016109b690611310565b60405180910390fd5b34600360003373ffffffffffffffffffffffffffffffffffffffff1673ffffffffffffffffffffffffffffffffffffffff1681526020019081526020016000206000828254610a0e9190610e19565b925050819055503373ffffffffffffffffffffffffffffffffffffffff167f64d94a7544bc0f398394bd748cdd1e03e19432c505e0c9cf292fd39db4b8546134604051610a5b9190610e5c565b60405180910390a2565b80600360003373ffffffffffffffffffffffffffffffffffffffff1673ffffffffffffffffffffffffffffffffffffffff168152602001908152602001600020541015610ae7576040517f08c379a0000000000000000000000000000000000000000000000000000000008152600401610ade9061137c565b60405180910390fd5b80600360003373ffffffffffffffffffffffffffffffffffffffff1673ffffffffffffffffffffffffffffffffffffffff1681526020019081526020016000206000828254610b369190611267565b925050819055503373ffffffffffffffffffffffffffffffffffffffff166108fc829081150290604051600060405180830381858888f19350505050158015610b83573d6000803e3d6000fd5b503373ffffffffffffffffffffffffffffffffffffffff167ffbd782bf775015428374a2a3913122e400bb832b03851d2749d8a2ed3d4c41e182604051610bca9190610e5c565b60405180910390a250565b6000600260008473ffffffffffffffffffffffffffffffffffffffff1673ffffffffffffffffffffffffffffffffffffffff16815260200190815260200160002060008373ffffffffffffffffffffffffffffffffffffffff1673ffffffffffffffffffffffffffffffffffffffff16815260200190815260200160002054905092915050565b600160009054906101000a900473ffffffffffffffffffffffffffffffffffffffff1673ffffffffffffffffffffffffffffffffffffffff163373ffffffffffffffffffffffffffffffffffffffff1614610cec576040517f08c379a0000000000000000000000000000000000000000000000000000000008152600401610ce3906113e8565b60405180910390fd5b80600360008473ffffffffffffffffffffffffffffffffffffffff1673ffffffffffffffffffffffffffffffffffffffff168152602001908152602001600020541015610d6e576040517f08c379a0000000000000000000000000000000000000000000000000000000008152600401610d6590611454565b60405180910390fd5b80600360008473ffffffffffffffffffffffffffffffffffffffff1673ffffffffffffffffffffffffffffffffffffffff1681526020019081526020016000206000828254610dbd9190611267565b925050819055505050565b60036020528060005260406000206000915090505481565b6000819050919050565b7f4e487b7100000000000000000000000000000000000000000000000000000000600052601160045260246000fd5b6000610e2482610de0565b9150610e2f83610de0565b9250828201905080821115610e4757610e46610dea565b5b92915050565b610e5681610de0565b82525050565b6000602082019050610e716000830184610e4d565b92915050565b600080fd5b600073ffffffffffffffffffffffffffffffffffffffff82169050919050565b6000610ea782610e7c565b9050919050565b610eb781610e9c565b8114610ec257600080fd5b50565b600081359050610ed481610eae565b92915050565b600060208284031215610ef057610eef610e77565b5b6000610efe84828501610ec5565b91505092915050565b610f1081610e9c565b82525050565b6000602082019050610f2b6000830184610f07565b92915050565b610f3a81610de0565b8114610f4557600080fd5b50565b600081359050610f5781610f31565b92915050565b60008060408385031215610f7457610f73610e77565b5b6000610f8285828601610ec5565b9250506020610f9385828601610f48565b9150509250929050565b60008060408385031215610fb457610fb3610e77565b5b6000610fc285828601610ec5565b9250506020610fd385828601610ec5565b9150509250929050565b600060208284031215610ff357610ff2610e77565b5b600061100184828501610f48565b91505092915050565b600082825260208201905092915050565b7f4e6f7420746865206f776e657200000000000000000000000000000000000000600082015250565b6000611051600d8361100a565b915061105c8261101b565b602082019050919050565b6000602082019050818103600083015261108081611044565b9050919050565b7f416d6f756e74206d757374206265203e20300000000000000000000000000000600082015250565b60006110bd60128361100a565b91506110c882611087565b602082019050919050565b600060208201905081810360008301526110ec816110b0565b9050919050565b60006060820190506111086000830186610f07565b6111156020830185610f07565b6111226040830184610e4d565b949350505050565b60008115159050919050565b61113f8161112a565b811461114a57600080fd5b50565b60008151905061115c81611136565b92915050565b60006020828403121561117857611177610e77565b5b60006111868482850161114d565b91505092915050565b7f546f6b656e207472616e73666572206661696c65640000000000000000000000600082015250565b60006111c560158361100a565b91506111d08261118f565b602082019050919050565b600060208201905081810360008301526111f4816111b8565b9050919050565b7f496e73756666696369656e7420746f6b656e2062616c616e6365000000000000600082015250565b6000611231601a8361100a565b915061123c826111fb565b602082019050919050565b6000602082019050818103600083015261126081611224565b9050919050565b600061127282610de0565b915061127d83610de0565b925082820390508181111561129557611294610dea565b5b92915050565b60006040820190506112b06000830185610f07565b6112bd6020830184610e4d565b9392505050565b7f4e6f20415641582073656e740000000000000000000000000000000000000000600082015250565b60006112fa600c8361100a565b9150611305826112c4565b602082019050919050565b60006020820190508181036000830152611329816112ed565b9050919050565b7f496e73756666696369656e7420415641582062616c616e636500000000000000600082015250565b600061136660198361100a565b915061137182611330565b602082019050919050565b6000602082019050818103600083015261139581611359565b9050919050565b7f4f6e6c792062657474696e6720636f6e74726163742063616e2063616c6c0000600082015250565b60006113d2601e8361100a565b91506113dd8261139c565b602082019050919050565b60006020820190508181036000830152611401816113c5565b9050919050565b7f496e73756666696369656e74205661756c742062616c616e6365000000000000600082015250565b600061143e601a8361100a565b915061144982611408565b602082019050919050565b6000602082019050818103600083015261146d81611431565b905091905056fea2646970667358221220c491468e124a797691ae5603b274217074ff25cc1742d95769364c363aabe1d964736f6c634300081e0033",
  "linkReferences": {},
  "deployedLinkReferences": {}
}