{
  "_format": "hh-sol-artifact-1",
  "contractName": "Vault",
  "sourceName": "contracts/UserVault.sol",
  "abi": [
    {
      "inputs": [],
      "stateMutability": "nonpayable",
      "type": "constructor"
    },
    {
      "anonymous": false,
      "inputs": [
        {
          "indexed": true,
          "internalType": "address",
          "name": "user",
          "type": "address"
        },
        {
          "indexed": false,
          "internalType": "uint256",
          "name": "amount",
          "type": "uint256"
        }
      ],
      "name": "DepositAVAX",
      "type": "event"
    },
    {
      "anonymous": false,
      "inputs": [
        {
          "indexed": true,
          "internalType": "address",
          "name": "user",
          "type": "address"
        },
        {
          "indexed": true,
          "internalType": "address",
          "name": "token",
          "type": "address"
        },
        {
          "indexed": false,
          "internalType": "uint256",
          "name": "amount",
          "type": "uint256"
        }
      ],
      "name": "DepositToken",
      "type": "event"
    },
    {
      "anonymous": false,
      "inputs": [
        {
          "indexed": true,
          "internalType": "address",
          "name": "user",
          "type": "address"
        },
        {
          "indexed": false,
          "internalType": "uint256",
          "name": "amount",
          "type": "uint256"
        }
      ],
      "name": "WithdrawAVAX",
      "type": "event"
    },
    {
      "anonymous": false,
      "inputs": [
        {
          "indexed": true,
          "internalType": "address",
          "name": "user",
          "type": "address"
        },
        {
          "indexed": true,
          "internalType": "address",
          "name": "token",
          "type": "address"
        },
        {
          "indexed": false,
          "internalType": "uint256",
          "name": "amount",
          "type": "uint256"
        }
      ],
      "name": "WithdrawToken",
      "type": "event"
    },
    {
      "inputs": [
        {
          "internalType": "address",
          "name": "",
          "type": "address"
        }
      ],
      "name": "avaxBalances",
      "outputs": [
        {
          "internalType": "uint256",
          "name": "",
          "type": "uint256"
        }
      ],
      "stateMutability": "view",
      "type": "function"
    },
    {
      "inputs": [],
      "name": "bettingContract",
      "outputs": [
        {
          "internalType": "address",
          "name": "",
          "type": "address"
        }
      ],
      "stateMutability": "view",
      "type": "function"
    },
    {
      "inputs": [
        {
          "internalType": "address",
          "name": "user",
          "type": "address"
        },
        {
          "internalType": "uint256",
          "name": "amount",
          "type": "uint256"
        }
      ],
      "name": "deductForBet",
      "outputs": [],
      "stateMutability": "nonpayable",
      "type": "function"
    },
    {
      "inputs": [],
      "name": "depositAVAX",
      "outputs": [],
      "stateMutability": "payable",
      "type": "function"
    },
    {
      "inputs": [
        {
          "internalType": "address",
          "name": "token",
          "type": "address"
        },
        {
          "internalType": "uint256",
          "name": "amount",
          "type": "uint256"
        }
      ],
      "name": "depositToken",
      "outputs": [],
      "stateMutability": "nonpayable",
      "type": "function"
    },
    {
      "inputs": [
        {
          "internalType": "address",
          "name": "user",
          "type": "address"
        }
      ],
      "name": "getAVAXBalance",
      "outputs": [
        {
          "internalType": "uint256",
          "name": "",
          "type": "uint256"
        }
      ],
      "stateMutability": "view",
      "type": "function"
    },
    {
      "inputs": [
        {
          "internalType": "address",
          "name": "token",
          "type": "address"
        },
        {
          "internalType": "address",
          "name": "user",
          "type": "address"
        }
      ],
      "name": "getTokenBalance",
      "outputs": [
        {
          "internalType": "uint256",
          "name": "",
          "type": "uint256"
        }
      ],
      "stateMutability": "view",
      "type": "function"
    },
    {
      "inputs": [],
      "name": "owner",
      "outputs": [
        {
          "internalType": "address",
          "name": "",
          "type": "address"
        }
      ],
      "stateMutability": "view",
      "type": "function"
    },
    {
      "inputs": [
        {
          "internalType": "address",
          "name": "_betting",
          "type": "address"
        }
      ],
      "name": "setBettingContract",
      "outputs": [],
      "stateMutability": "nonpayable",
      "type": "function"
    },
    {
      "inputs": [
        {
          "internalType": "address",
          "name": "",
          "type": "address"
        },
        {
          "internalType": "address",
          "name": "",
          "type": "address"
        }
      ],
      "name": "tokenBalances",
      "outputs": [
        {
          "internalType": "uint256",
          "name": "",
          "type": "uint256"
        }
      ],
      "stateMutability": "view",
      "type": "function"
    },
    {
      "inputs": [
        {
          "internalType": "uint256",
          "name": "amount",
          "type": "uint256"
        }
      ],
      "name": "withdrawAVAX",
      "outputs": [],
      "stateMutability": "nonpayable",
      "type": "function"
    },
    {
      "inputs": [
        {
          "internalType": "address",
          "name": "token",
          "type": "address"
        },
        {
          "internalType": "uint256",
          "name": "amount",
          "type": "uint256"
        }
      ],
      "name": "withdrawToken",
      "outputs": [],
      "stateMutability": "nonpayable",
      "type": "function"
    },
    {
      "stateMutability": "payable",
      "type": "receive"
    }
  ],
  "bytecode": "0x6080604052348015600f57600080fd5b50336000806101000a81548173ffffffffffffffffffffffffffffffffffffffff021916908373ffffffffffffffffffffffffffffffffffffffff1602179055506116518061005f6000396000f3fe6080604052600436106100ab5760003560e01c80639e281a98116100645780639e281a981461027d578063a0d065c3146102a6578063aeb5cd5e146102b0578063c489744b146102d9578063d1ce472014610316578063fcb936361461033f57610156565b8063153179581461015b57806321cb48311461019857806330fce48b146101c3578063338b5dea146101ec5780634dbf6c5a146102155780638da5cb5b1461025257610156565b366101565734600360003373ffffffffffffffffffffffffffffffffffffffff1673ffffffffffffffffffffffffffffffffffffffff16815260200190815260200160002060008282546100ff9190610ee8565b925050819055503373ffffffffffffffffffffffffffffffffffffffff167f64d94a7544bc0f398394bd748cdd1e03e19432c505e0c9cf292fd39db4b854613460405161014c9190610f2b565b60405180910390a2005b600080fd5b34801561016757600080fd5b50610182600480360381019061017d9190610fa9565b61037c565b60405161018f9190610f2b565b60405180910390f35b3480156101a457600080fd5b506101ad6103c5565b6040516101ba9190610fe5565b60405180910390f35b3480156101cf57600080fd5b506101ea60048036038101906101e59190610fa9565b6103eb565b005b3480156101f857600080fd5b50610213600480360381019061020e919061102c565b6104bd565b005b34801561022157600080fd5b5061023c6004803603810190610237919061106c565b6106bb565b6040516102499190610f2b565b60405180910390f35b34801561025e57600080fd5b506102676106e0565b6040516102749190610fe5565b60405180910390f35b34801561028957600080fd5b506102a4600480360381019061029f919061102c565b610704565b005b6102ae61097c565b005b3480156102bc57600080fd5b506102d760048036038101906102d291906110ac565b610a65565b005b3480156102e557600080fd5b5061030060048036038101906102fb919061106c565b610bd5565b60405161030d9190610f2b565b60405180910390f35b34801561032257600080fd5b5061033d6004803603810190610338919061102c565b610c5c565b005b34801561034b57600080fd5b5061036660048036038101906103619190610fa9565b610e97565b6040516103739190610f2b565b60405180910390f35b6000600360008373ffffffffffffffffffffffffffffffffffffffff1673ffffffffffffffffffffffffffffffffffffffff168152602001908152602001600020549050919050565b600160009054906101000a900473ffffffffffffffffffffffffffffffffffffffff1681565b60008054906101000a900473ffffffffffffffffffffffffffffffffffffffff1673ffffffffffffffffffffffffffffffffffffffff163373ffffffffffffffffffffffffffffffffffffffff1614610479576040517f08c379a000000000000000000000000000000000000000000000000000000000815260040161047090611136565b60405180910390fd5b80600160006101000a81548173ffffffffffffffffffffffffffffffffffffffff021916908373ffffffffffffffffffffffffffffffffffffffff16021790555050565b60008111610500576040517f08c379a00000000000000000000000000000000000000000000000000000000081526004016104f7906111a2565b60405180910390fd5b8173ffffffffffffffffffffffffffffffffffffffff166323b872dd3330846040518463ffffffff1660e01b815260040161053d939291906111c2565b6020604051808303816000875af115801561055c573d6000803e3d6000fd5b505050506040513d601f19601f820116820180604052508101906105809190611231565b6105bf576040517f08c379a00000000000000000000000000000000000000000000000000000000081526004016105b6906112aa565b60405180910390fd5b80600260008473ffffffffffffffffffffffffffffffffffffffff1673ffffffffffffffffffffffffffffffffffffffff16815260200190815260200160002060003373ffffffffffffffffffffffffffffffffffffffff1673ffffffffffffffffffffffffffffffffffffffff168152602001908152602001600020600082825461064b9190610ee8565b925050819055508173ffffffffffffffffffffffffffffffffffffffff163373ffffffffffffffffffffffffffffffffffffffff167f4b3f81827ede20c81afbf1bb77b954afcdcae24d391d99042310cb1d9210dd57836040516106af9190610f2b565b60405180910390a35050565b6002602052816000526040600020602052806000526040600020600091509150505481565b60008054906101000a900473ffffffffffffffffffffffffffffffffffffffff1681565b80600260008473ffffffffffffffffffffffffffffffffffffffff1673ffffffffffffffffffffffffffffffffffffffff16815260200190815260200160002060003373ffffffffffffffffffffffffffffffffffffffff1673ffffffffffffffffffffffffffffffffffffffff1681526020019081526020016000205410156107c3576040517f08c379a00000000000000000000000000000000000000000000000000000000081526004016107ba90611316565b60405180910390fd5b80600260008473ffffffffffffffffffffffffffffffffffffffff1673ffffffffffffffffffffffffffffffffffffffff16815260200190815260200160002060003373ffffffffffffffffffffffffffffffffffffffff1673ffffffffffffffffffffffffffffffffffffffff168152602001908152602001600020600082825461084f9190611336565b925050819055508173ffffffffffffffffffffffffffffffffffffffff1663a9059cbb33836040518363ffffffff1660e01b815260040161089192919061136a565b6020604051808303816000875af11580156108b0573d6000803e3d6000fd5b505050506040513d601f19601f820116820180604052508101906108d49190611231565b610913576040517f08c379a000000000000000000000000000000000000000000000000000000000815260040161090a906112aa565b60405180910390fd5b8173ffffffffffffffffffffffffffffffffffffffff163373ffffffffffffffffffffffffffffffffffffffff167f037238854fe57fbf51f09946f854fc3916fe83938d6521f09bd05463839f1304836040516109709190610f2b565b60405180910390a35050565b600034116109bf576040517f08c379a00000000000000000000000000000000000000000000000000000000081526004016109b6906113df565b60405180910390fd5b34600360003373ffffffffffffffffffffffffffffffffffffffff1673ffffffffffffffffffffffffffffffffffffffff1681526020019081526020016000206000828254610a0e9190610ee8565b925050819055503373ffffffffffffffffffffffffffffffffffffffff167f64d94a7544bc0f398394bd748cdd1e03e19432c505e0c9cf292fd39db4b8546134604051610a5b9190610f2b565b60405180910390a2565b80600360003373ffffffffffffffffffffffffffffffffffffffff1673ffffffffffffffffffffffffffffffffffffffff168152602001908152602001600020541015610ae7576040517f08c379a0000000000000000000000000000000000000000000000000000000008152600401610ade9061144b565b60405180910390fd5b80600360003373ffffffffffffffffffffffffffffffffffffffff1673ffffffffffffffffffffffffffffffffffffffff1681526020019081526020016000206000828254610b369190611336565b925050819055503373ffffffffffffffffffffffffffffffffffffffff166108fc829081150290604051600060405180830381858888f19350505050158015610b83573d6000803e3d6000fd5b503373ffffffffffffffffffffffffffffffffffffffff167ffbd782bf775015428374a2a3913122e400bb832b03851d2749d8a2ed3d4c41e182604051610bca9190610f2b565b60405180910390a250565b6000600260008473ffffffffffffffffffffffffffffffffffffffff1673ffffffffffffffffffffffffffffffffffffffff16815260200190815260200160002060008373ffffffffffffffffffffffffffffffffffffffff1673ffffffffffffffffffffffffffffffffffffffff16815260200190815260200160002054905092915050565b600160009054906101000a900473ffffffffffffffffffffffffffffffffffffffff1673ffffffffffffffffffffffffffffffffffffffff163373ffffffffffffffffffffffffffffffffffffffff1614610cec576040517f08c379a0000000000000000000000000000000000000000000000000000000008152600401610ce3906114b7565b60405180910390fd5b80600360008473ffffffffffffffffffffffffffffffffffffffff1673ffffffffffffffffffffffffffffffffffffffff168152602001908152602001600020541015610d6e576040517f08c379a0000000000000000000000000000000000000000000000000000000008152600401610d6590611523565b60405180910390fd5b80600360008473ffffffffffffffffffffffffffffffffffffffff1673ffffffffffffffffffffffffffffffffffffffff1681526020019081526020016000206000828254610dbd9190611336565b925050819055506000600160009054906101000a900473ffffffffffffffffffffffffffffffffffffffff1673ffffffffffffffffffffffffffffffffffffffff1682604051610e0c90611574565b60006040518083038185875af1925050503d8060008114610e49576040519150601f19603f3d011682016040523d82523d6000602084013e610e4e565b606091505b5050905080610e92576040517f08c379a0000000000000000000000000000000000000000000000000000000008152600401610e89906115fb565b60405180910390fd5b505050565b60036020528060005260406000206000915090505481565b6000819050919050565b7f4e487b7100000000000000000000000000000000000000000000000000000000600052601160045260246000fd5b6000610ef382610eaf565b9150610efe83610eaf565b9250828201905080821115610f1657610f15610eb9565b5b92915050565b610f2581610eaf565b82525050565b6000602082019050610f406000830184610f1c565b92915050565b600080fd5b600073ffffffffffffffffffffffffffffffffffffffff82169050919050565b6000610f7682610f4b565b9050919050565b610f8681610f6b565b8114610f9157600080fd5b50565b600081359050610fa381610f7d565b92915050565b600060208284031215610fbf57610fbe610f46565b5b6000610fcd84828501610f94565b91505092915050565b610fdf81610f6b565b82525050565b6000602082019050610ffa6000830184610fd6565b92915050565b61100981610eaf565b811461101457600080fd5b50565b60008135905061102681611000565b92915050565b6000806040838503121561104357611042610f46565b5b600061105185828601610f94565b925050602061106285828601611017565b9150509250929050565b6000806040838503121561108357611082610f46565b5b600061109185828601610f94565b92505060206110a285828601610f94565b9150509250929050565b6000602082840312156110c2576110c1610f46565b5b60006110d084828501611017565b91505092915050565b600082825260208201905092915050565b7f4e6f74206f776e65720000000000000000000000000000000000000000000000600082015250565b60006111206009836110d9565b915061112b826110ea565b602082019050919050565b6000602082019050818103600083015261114f81611113565b9050919050565b7f416d6f756e74203e300000000000000000000000000000000000000000000000600082015250565b600061118c6009836110d9565b915061119782611156565b602082019050919050565b600060208201905081810360008301526111bb8161117f565b9050919050565b60006060820190506111d76000830186610fd6565b6111e46020830185610fd6565b6111f16040830184610f1c565b949350505050565b60008115159050919050565b61120e816111f9565b811461121957600080fd5b50565b60008151905061122b81611205565b92915050565b60006020828403121561124757611246610f46565b5b60006112558482850161121c565b91505092915050565b7f5472616e73666572206661696c65640000000000000000000000000000000000600082015250565b6000611294600f836110d9565b915061129f8261125e565b602082019050919050565b600060208201905081810360008301526112c381611287565b9050919050565b7f496e73756666696369656e7420746f6b656e0000000000000000000000000000600082015250565b60006113006012836110d9565b915061130b826112ca565b602082019050919050565b6000602082019050818103600083015261132f816112f3565b9050919050565b600061134182610eaf565b915061134c83610eaf565b925082820390508181111561136457611363610eb9565b5b92915050565b600060408201905061137f6000830185610fd6565b61138c6020830184610f1c565b9392505050565b7f4e6f204156415800000000000000000000000000000000000000000000000000600082015250565b60006113c96007836110d9565b91506113d482611393565b602082019050919050565b600060208201905081810360008301526113f8816113bc565b9050919050565b7f496e73756666696369656e742041564158000000000000000000000000000000600082015250565b60006114356011836110d9565b9150611440826113ff565b602082019050919050565b6000602082019050818103600083015261146481611428565b9050919050565b7f4f6e6c792062657474696e6720636f6e74726163740000000000000000000000600082015250565b60006114a16015836110d9565b91506114ac8261146b565b602082019050919050565b600060208201905081810360008301526114d081611494565b9050919050565b7f496e73756666696369656e742062616c616e6365000000000000000000000000600082015250565b600061150d6014836110d9565b9150611518826114d7565b602082019050919050565b6000602082019050818103600083015261153c81611500565b9050919050565b600081905092915050565b50565b600061155e600083611543565b91506115698261154e565b600082019050919050565b600061157f82611551565b9150819050919050565b7f5472616e7366657220746f2062657474696e6720636f6e74726163742066616960008201527f6c65640000000000000000000000000000000000000000000000000000000000602082015250565b60006115e56023836110d9565b91506115f082611589565b604082019050919050565b60006020820190508181036000830152611614816115d8565b905091905056fea26469706673582212205457591b6064fe214360fb4dca51fc2ff0c951f582d691819b3933f49743fdae64736f6c634300081e0033",
  "linkReferences": {},
  "deployedLinkReferences": {}
}