{
  "_format": "hh-sol-artifact-1",
  "contractName": "Vault",
  "sourceName": "contracts/UserVault.sol",
  "abi": [
    {
      "inputs": [],
      "stateMutability": "nonpayable",
      "type": "constructor"
    },
    {
      "anonymous": false,
      "inputs": [
        {
          "indexed": true,
          "internalType": "address",
          "name": "user",
          "type": "address"
        },
        {
          "indexed": false,
          "internalType": "uint256",
          "name": "amount",
          "type": "uint256"
        }
      ],
      "name": "DepositAVAX",
      "type": "event"
    },
    {
      "anonymous": false,
      "inputs": [
        {
          "indexed": true,
          "internalType": "address",
          "name": "user",
          "type": "address"
        },
        {
          "indexed": true,
          "internalType": "address",
          "name": "token",
          "type": "address"
        },
        {
          "indexed": false,
          "internalType": "uint256",
          "name": "amount",
          "type": "uint256"
        }
      ],
      "name": "DepositToken",
      "type": "event"
    },
    {
      "anonymous": false,
      "inputs": [
        {
          "indexed": true,
          "internalType": "address",
          "name": "user",
          "type": "address"
        },
        {
          "indexed": false,
          "internalType": "uint256",
          "name": "amount",
          "type": "uint256"
        }
      ],
      "name": "WithdrawAVAX",
      "type": "event"
    },
    {
      "anonymous": false,
      "inputs": [
        {
          "indexed": true,
          "internalType": "address",
          "name": "user",
          "type": "address"
        },
        {
          "indexed": true,
          "internalType": "address",
          "name": "token",
          "type": "address"
        },
        {
          "indexed": false,
          "internalType": "uint256",
          "name": "amount",
          "type": "uint256"
        }
      ],
      "name": "WithdrawToken",
      "type": "event"
    },
    {
      "inputs": [
        {
          "internalType": "address",
          "name": "",
          "type": "address"
        }
      ],
      "name": "avaxBalances",
      "outputs": [
        {
          "internalType": "uint256",
          "name": "",
          "type": "uint256"
        }
      ],
      "stateMutability": "view",
      "type": "function"
    },
    {
      "inputs": [],
      "name": "bettingContract",
      "outputs": [
        {
          "internalType": "address",
          "name": "",
          "type": "address"
        }
      ],
      "stateMutability": "view",
      "type": "function"
    },
    {
      "inputs": [],
      "name": "depositAVAX",
      "outputs": [],
      "stateMutability": "payable",
      "type": "function"
    },
    {
      "inputs": [
        {
          "internalType": "address",
          "name": "token",
          "type": "address"
        },
        {
          "internalType": "uint256",
          "name": "amount",
          "type": "uint256"
        }
      ],
      "name": "depositToken",
      "outputs": [],
      "stateMutability": "nonpayable",
      "type": "function"
    },
    {
      "inputs": [
        {
          "internalType": "address",
          "name": "user",
          "type": "address"
        }
      ],
      "name": "getAVAXBalance",
      "outputs": [
        {
          "internalType": "uint256",
          "name": "",
          "type": "uint256"
        }
      ],
      "stateMutability": "view",
      "type": "function"
    },
    {
      "inputs": [
        {
          "internalType": "address",
          "name": "token",
          "type": "address"
        },
        {
          "internalType": "address",
          "name": "user",
          "type": "address"
        }
      ],
      "name": "getTokenBalance",
      "outputs": [
        {
          "internalType": "uint256",
          "name": "",
          "type": "uint256"
        }
      ],
      "stateMutability": "view",
      "type": "function"
    },
    {
      "inputs": [],
      "name": "owner",
      "outputs": [
        {
          "internalType": "address",
          "name": "",
          "type": "address"
        }
      ],
      "stateMutability": "view",
      "type": "function"
    },
    {
      "inputs": [
        {
          "internalType": "uint256",
          "name": "amount",
          "type": "uint256"
        },
        {
          "internalType": "uint8",
          "name": "position",
          "type": "uint8"
        }
      ],
      "name": "placeBetFromVault",
      "outputs": [],
      "stateMutability": "nonpayable",
      "type": "function"
    },
    {
      "inputs": [
        {
          "internalType": "address",
          "name": "_betting",
          "type": "address"
        }
      ],
      "name": "setBettingContract",
      "outputs": [],
      "stateMutability": "nonpayable",
      "type": "function"
    },
    {
      "inputs": [
        {
          "internalType": "address",
          "name": "",
          "type": "address"
        },
        {
          "internalType": "address",
          "name": "",
          "type": "address"
        }
      ],
      "name": "tokenBalances",
      "outputs": [
        {
          "internalType": "uint256",
          "name": "",
          "type": "uint256"
        }
      ],
      "stateMutability": "view",
      "type": "function"
    },
    {
      "inputs": [
        {
          "internalType": "uint256",
          "name": "amount",
          "type": "uint256"
        }
      ],
      "name": "withdrawAVAX",
      "outputs": [],
      "stateMutability": "nonpayable",
      "type": "function"
    },
    {
      "inputs": [
        {
          "internalType": "address",
          "name": "token",
          "type": "address"
        },
        {
          "internalType": "uint256",
          "name": "amount",
          "type": "uint256"
        }
      ],
      "name": "withdrawToken",
      "outputs": [],
      "stateMutability": "nonpayable",
      "type": "function"
    },
    {
      "stateMutability": "payable",
      "type": "receive"
    }
  ],
  "bytecode": "0x6080604052348015600f57600080fd5b50336000806101000a81548173ffffffffffffffffffffffffffffffffffffffff021916908373ffffffffffffffffffffffffffffffffffffffff1602179055506116b38061005f6000396000f3fe6080604052600436106100ab5760003560e01c80638da5cb5b116100645780638da5cb5b1461027b5780639e281a98146102a6578063a0d065c3146102cf578063aeb5cd5e146102d9578063c489744b14610302578063fcb936361461033f57610156565b8063153179581461015b57806321cb48311461019857806330fce48b146101c3578063338b5dea146101ec5780634dbf6c5a1461021557806368e8ae161461025257610156565b366101565734600360003373ffffffffffffffffffffffffffffffffffffffff1673ffffffffffffffffffffffffffffffffffffffff16815260200190815260200160002060008282546100ff9190610ee9565b925050819055503373ffffffffffffffffffffffffffffffffffffffff167f64d94a7544bc0f398394bd748cdd1e03e19432c505e0c9cf292fd39db4b854613460405161014c9190610f2c565b60405180910390a2005b600080fd5b34801561016757600080fd5b50610182600480360381019061017d9190610faa565b61037c565b60405161018f9190610f2c565b60405180910390f35b3480156101a457600080fd5b506101ad6103c5565b6040516101ba9190610fe6565b60405180910390f35b3480156101cf57600080fd5b506101ea60048036038101906101e59190610faa565b6103eb565b005b3480156101f857600080fd5b50610213600480360381019061020e919061102d565b6104bd565b005b34801561022157600080fd5b5061023c6004803603810190610237919061106d565b6106bb565b6040516102499190610f2c565b60405180910390f35b34801561025e57600080fd5b50610279600480360381019061027491906110e6565b6106e0565b005b34801561028757600080fd5b5061029061091c565b60405161029d9190610fe6565b60405180910390f35b3480156102b257600080fd5b506102cd60048036038101906102c8919061102d565b610940565b005b6102d7610bb8565b005b3480156102e557600080fd5b5061030060048036038101906102fb9190611126565b610ca1565b005b34801561030e57600080fd5b506103296004803603810190610324919061106d565b610e11565b6040516103369190610f2c565b60405180910390f35b34801561034b57600080fd5b5061036660048036038101906103619190610faa565b610e98565b6040516103739190610f2c565b60405180910390f35b6000600360008373ffffffffffffffffffffffffffffffffffffffff1673ffffffffffffffffffffffffffffffffffffffff168152602001908152602001600020549050919050565b600160009054906101000a900473ffffffffffffffffffffffffffffffffffffffff1681565b60008054906101000a900473ffffffffffffffffffffffffffffffffffffffff1673ffffffffffffffffffffffffffffffffffffffff163373ffffffffffffffffffffffffffffffffffffffff1614610479576040517f08c379a0000000000000000000000000000000000000000000000000000000008152600401610470906111b0565b60405180910390fd5b80600160006101000a81548173ffffffffffffffffffffffffffffffffffffffff021916908373ffffffffffffffffffffffffffffffffffffffff16021790555050565b60008111610500576040517f08c379a00000000000000000000000000000000000000000000000000000000081526004016104f79061121c565b60405180910390fd5b8173ffffffffffffffffffffffffffffffffffffffff166323b872dd3330846040518463ffffffff1660e01b815260040161053d9392919061123c565b6020604051808303816000875af115801561055c573d6000803e3d6000fd5b505050506040513d601f19601f8201168201806040525081019061058091906112ab565b6105bf576040517f08c379a00000000000000000000000000000000000000000000000000000000081526004016105b690611324565b60405180910390fd5b80600260008473ffffffffffffffffffffffffffffffffffffffff1673ffffffffffffffffffffffffffffffffffffffff16815260200190815260200160002060003373ffffffffffffffffffffffffffffffffffffffff1673ffffffffffffffffffffffffffffffffffffffff168152602001908152602001600020600082825461064b9190610ee9565b925050819055508173ffffffffffffffffffffffffffffffffffffffff163373ffffffffffffffffffffffffffffffffffffffff167f4b3f81827ede20c81afbf1bb77b954afcdcae24d391d99042310cb1d9210dd57836040516106af9190610f2c565b60405180910390a35050565b6002602052816000526040600020602052806000526040600020600091509150505481565b81600360003373ffffffffffffffffffffffffffffffffffffffff1673ffffffffffffffffffffffffffffffffffffffff168152602001908152602001600020541015610762576040517f08c379a000000000000000000000000000000000000000000000000000000000815260040161075990611390565b60405180910390fd5b81600360003373ffffffffffffffffffffffffffffffffffffffff1673ffffffffffffffffffffffffffffffffffffffff16815260200190815260200160002060008282546107b191906113b0565b925050819055506000600160009054906101000a900473ffffffffffffffffffffffffffffffffffffffff1673ffffffffffffffffffffffffffffffffffffffff168333846040516024016108079291906113f3565b6040516020818303038152906040527f1fa2ef42000000000000000000000000000000000000000000000000000000007bffffffffffffffffffffffffffffffffffffffffffffffffffffffff19166020820180517bffffffffffffffffffffffffffffffffffffffffffffffffffffffff8381831617835250505050604051610891919061148d565b60006040518083038185875af1925050503d80600081146108ce576040519150601f19603f3d011682016040523d82523d6000602084013e6108d3565b606091505b5050905080610917576040517f08c379a000000000000000000000000000000000000000000000000000000000815260040161090e906114f0565b60405180910390fd5b505050565b60008054906101000a900473ffffffffffffffffffffffffffffffffffffffff1681565b80600260008473ffffffffffffffffffffffffffffffffffffffff1673ffffffffffffffffffffffffffffffffffffffff16815260200190815260200160002060003373ffffffffffffffffffffffffffffffffffffffff1673ffffffffffffffffffffffffffffffffffffffff1681526020019081526020016000205410156109ff576040517f08c379a00000000000000000000000000000000000000000000000000000000081526004016109f69061155c565b60405180910390fd5b80600260008473ffffffffffffffffffffffffffffffffffffffff1673ffffffffffffffffffffffffffffffffffffffff16815260200190815260200160002060003373ffffffffffffffffffffffffffffffffffffffff1673ffffffffffffffffffffffffffffffffffffffff1681526020019081526020016000206000828254610a8b91906113b0565b925050819055508173ffffffffffffffffffffffffffffffffffffffff1663a9059cbb33836040518363ffffffff1660e01b8152600401610acd92919061157c565b6020604051808303816000875af1158015610aec573d6000803e3d6000fd5b505050506040513d601f19601f82011682018060405250810190610b1091906112ab565b610b4f576040517f08c379a0000000000000000000000000000000000000000000000000000000008152600401610b4690611324565b60405180910390fd5b8173ffffffffffffffffffffffffffffffffffffffff163373ffffffffffffffffffffffffffffffffffffffff167f037238854fe57fbf51f09946f854fc3916fe83938d6521f09bd05463839f130483604051610bac9190610f2c565b60405180910390a35050565b60003411610bfb576040517f08c379a0000000000000000000000000000000000000000000000000000000008152600401610bf2906115f1565b60405180910390fd5b34600360003373ffffffffffffffffffffffffffffffffffffffff1673ffffffffffffffffffffffffffffffffffffffff1681526020019081526020016000206000828254610c4a9190610ee9565b925050819055503373ffffffffffffffffffffffffffffffffffffffff167f64d94a7544bc0f398394bd748cdd1e03e19432c505e0c9cf292fd39db4b8546134604051610c979190610f2c565b60405180910390a2565b80600360003373ffffffffffffffffffffffffffffffffffffffff1673ffffffffffffffffffffffffffffffffffffffff168152602001908152602001600020541015610d23576040517f08c379a0000000000000000000000000000000000000000000000000000000008152600401610d1a9061165d565b60405180910390fd5b80600360003373ffffffffffffffffffffffffffffffffffffffff1673ffffffffffffffffffffffffffffffffffffffff1681526020019081526020016000206000828254610d7291906113b0565b925050819055503373ffffffffffffffffffffffffffffffffffffffff166108fc829081150290604051600060405180830381858888f19350505050158015610dbf573d6000803e3d6000fd5b503373ffffffffffffffffffffffffffffffffffffffff167ffbd782bf775015428374a2a3913122e400bb832b03851d2749d8a2ed3d4c41e182604051610e069190610f2c565b60405180910390a250565b6000600260008473ffffffffffffffffffffffffffffffffffffffff1673ffffffffffffffffffffffffffffffffffffffff16815260200190815260200160002060008373ffffffffffffffffffffffffffffffffffffffff1673ffffffffffffffffffffffffffffffffffffffff16815260200190815260200160002054905092915050565b60036020528060005260406000206000915090505481565b6000819050919050565b7f4e487b7100000000000000000000000000000000000000000000000000000000600052601160045260246000fd5b6000610ef482610eb0565b9150610eff83610eb0565b9250828201905080821115610f1757610f16610eba565b5b92915050565b610f2681610eb0565b82525050565b6000602082019050610f416000830184610f1d565b92915050565b600080fd5b600073ffffffffffffffffffffffffffffffffffffffff82169050919050565b6000610f7782610f4c565b9050919050565b610f8781610f6c565b8114610f9257600080fd5b50565b600081359050610fa481610f7e565b92915050565b600060208284031215610fc057610fbf610f47565b5b6000610fce84828501610f95565b91505092915050565b610fe081610f6c565b82525050565b6000602082019050610ffb6000830184610fd7565b92915050565b61100a81610eb0565b811461101557600080fd5b50565b60008135905061102781611001565b92915050565b6000806040838503121561104457611043610f47565b5b600061105285828601610f95565b925050602061106385828601611018565b9150509250929050565b6000806040838503121561108457611083610f47565b5b600061109285828601610f95565b92505060206110a385828601610f95565b9150509250929050565b600060ff82169050919050565b6110c3816110ad565b81146110ce57600080fd5b50565b6000813590506110e0816110ba565b92915050565b600080604083850312156110fd576110fc610f47565b5b600061110b85828601611018565b925050602061111c858286016110d1565b9150509250929050565b60006020828403121561113c5761113b610f47565b5b600061114a84828501611018565b91505092915050565b600082825260208201905092915050565b7f4e6f7420746865206f776e657200000000000000000000000000000000000000600082015250565b600061119a600d83611153565b91506111a582611164565b602082019050919050565b600060208201905081810360008301526111c98161118d565b9050919050565b7f416d6f756e74206d757374206265203e20300000000000000000000000000000600082015250565b6000611206601283611153565b9150611211826111d0565b602082019050919050565b60006020820190508181036000830152611235816111f9565b9050919050565b60006060820190506112516000830186610fd7565b61125e6020830185610fd7565b61126b6040830184610f1d565b949350505050565b60008115159050919050565b61128881611273565b811461129357600080fd5b50565b6000815190506112a58161127f565b92915050565b6000602082840312156112c1576112c0610f47565b5b60006112cf84828501611296565b91505092915050565b7f546f6b656e207472616e73666572206661696c65640000000000000000000000600082015250565b600061130e601583611153565b9150611319826112d8565b602082019050919050565b6000602082019050818103600083015261133d81611301565b9050919050565b7f496e73756666696369656e74207661756c742062616c616e6365000000000000600082015250565b600061137a601a83611153565b915061138582611344565b602082019050919050565b600060208201905081810360008301526113a98161136d565b9050919050565b60006113bb82610eb0565b91506113c683610eb0565b92508282039050818111156113de576113dd610eba565b5b92915050565b6113ed816110ad565b82525050565b60006040820190506114086000830185610fd7565b61141560208301846113e4565b9392505050565b600081519050919050565b600081905092915050565b60005b83811015611450578082015181840152602081019050611435565b60008484015250505050565b60006114678261141c565b6114718185611427565b9350611481818560208601611432565b80840191505092915050565b6000611499828461145c565b915081905092915050565b7f42657474696e67206661696c6564000000000000000000000000000000000000600082015250565b60006114da600e83611153565b91506114e5826114a4565b602082019050919050565b60006020820190508181036000830152611509816114cd565b9050919050565b7f496e73756666696369656e7420746f6b656e2062616c616e6365000000000000600082015250565b6000611546601a83611153565b915061155182611510565b602082019050919050565b6000602082019050818103600083015261157581611539565b9050919050565b60006040820190506115916000830185610fd7565b61159e6020830184610f1d565b9392505050565b7f4e6f20415641582073656e740000000000000000000000000000000000000000600082015250565b60006115db600c83611153565b91506115e6826115a5565b602082019050919050565b6000602082019050818103600083015261160a816115ce565b9050919050565b7f496e73756666696369656e7420415641582062616c616e636500000000000000600082015250565b6000611647601983611153565b915061165282611611565b602082019050919050565b600060208201905081810360008301526116768161163a565b905091905056fea2646970667358221220d6bb8c5a206780097440cf187def6d5a8e71ec0d2de07dcdaba70791e066165e64736f6c634300081e0033",
  "linkReferences": {},
  "deployedLinkReferences": {}
}